{
	"contract/new_contract.sol": {
		"ERC20": {
			"abi": [
				{
					"inputs": [
						{
							"internalType": "string",
							"name": "name_",
							"type": "string"
						},
						{
							"internalType": "string",
							"name": "symbol_",
							"type": "string"
						}
					],
					"stateMutability": "nonpayable",
					"type": "constructor"
				},
				{
					"anonymous": false,
					"inputs": [
						{
							"indexed": true,
							"internalType": "address",
							"name": "owner",
							"type": "address"
						},
						{
							"indexed": true,
							"internalType": "address",
							"name": "spender",
							"type": "address"
						},
						{
							"indexed": false,
							"internalType": "uint256",
							"name": "value",
							"type": "uint256"
						}
					],
					"name": "Approval",
					"type": "event"
				},
				{
					"anonymous": false,
					"inputs": [
						{
							"indexed": true,
							"internalType": "address",
							"name": "account",
							"type": "address"
						}
					],
					"name": "AskedForRecovery",
					"type": "event"
				},
				{
					"anonymous": false,
					"inputs": [
						{
							"indexed": true,
							"internalType": "address",
							"name": "account",
							"type": "address"
						}
					],
					"name": "Recovered",
					"type": "event"
				},
				{
					"anonymous": false,
					"inputs": [
						{
							"indexed": true,
							"internalType": "address",
							"name": "account",
							"type": "address"
						},
						{
							"indexed": false,
							"internalType": "bytes32",
							"name": "registrationHash",
							"type": "bytes32"
						}
					],
					"name": "Registered",
					"type": "event"
				},
				{
					"anonymous": false,
					"inputs": [
						{
							"indexed": true,
							"internalType": "address",
							"name": "from",
							"type": "address"
						},
						{
							"indexed": true,
							"internalType": "address",
							"name": "to",
							"type": "address"
						},
						{
							"indexed": false,
							"internalType": "uint256",
							"name": "value",
							"type": "uint256"
						}
					],
					"name": "Transfer",
					"type": "event"
				},
				{
					"inputs": [],
					"name": "ONE_SHARE",
					"outputs": [
						{
							"internalType": "uint256",
							"name": "",
							"type": "uint256"
						}
					],
					"stateMutability": "view",
					"type": "function"
				},
				{
					"inputs": [],
					"name": "_totalSupply",
					"outputs": [
						{
							"internalType": "uint256",
							"name": "",
							"type": "uint256"
						}
					],
					"stateMutability": "view",
					"type": "function"
				},
				{
					"inputs": [
						{
							"internalType": "address",
							"name": "owner",
							"type": "address"
						},
						{
							"internalType": "address",
							"name": "spender",
							"type": "address"
						}
					],
					"name": "allowance",
					"outputs": [
						{
							"internalType": "uint256",
							"name": "",
							"type": "uint256"
						}
					],
					"stateMutability": "view",
					"type": "function"
				},
				{
					"inputs": [
						{
							"internalType": "address",
							"name": "spender",
							"type": "address"
						},
						{
							"internalType": "uint256",
							"name": "amount",
							"type": "uint256"
						}
					],
					"name": "approve",
					"outputs": [
						{
							"internalType": "bool",
							"name": "",
							"type": "bool"
						}
					],
					"stateMutability": "nonpayable",
					"type": "function"
				},
				{
					"inputs": [
						{
							"internalType": "address",
							"name": "account",
							"type": "address"
						}
					],
					"name": "askForRecovery",
					"outputs": [],
					"stateMutability": "payable",
					"type": "function"
				},
				{
					"inputs": [
						{
							"internalType": "address",
							"name": "account",
							"type": "address"
						}
					],
					"name": "balanceOf",
					"outputs": [
						{
							"internalType": "uint256",
							"name": "",
							"type": "uint256"
						}
					],
					"stateMutability": "view",
					"type": "function"
				},
				{
					"inputs": [],
					"name": "corporation",
					"outputs": [
						{
							"internalType": "address",
							"name": "",
							"type": "address"
						}
					],
					"stateMutability": "view",
					"type": "function"
				},
				{
					"inputs": [],
					"name": "decimals",
					"outputs": [
						{
							"internalType": "uint8",
							"name": "",
							"type": "uint8"
						}
					],
					"stateMutability": "pure",
					"type": "function"
				},
				{
					"inputs": [
						{
							"internalType": "address",
							"name": "spender",
							"type": "address"
						},
						{
							"internalType": "uint256",
							"name": "subtractedValue",
							"type": "uint256"
						}
					],
					"name": "decreaseAllowance",
					"outputs": [
						{
							"internalType": "bool",
							"name": "",
							"type": "bool"
						}
					],
					"stateMutability": "nonpayable",
					"type": "function"
				},
				{
					"inputs": [
						{
							"internalType": "address",
							"name": "account",
							"type": "address"
						}
					],
					"name": "fractionalShareBalanceOf",
					"outputs": [
						{
							"internalType": "uint256",
							"name": "",
							"type": "uint256"
						}
					],
					"stateMutability": "view",
					"type": "function"
				},
				{
					"inputs": [
						{
							"internalType": "address",
							"name": "spender",
							"type": "address"
						},
						{
							"internalType": "uint256",
							"name": "addedValue",
							"type": "uint256"
						}
					],
					"name": "increaseAllowance",
					"outputs": [
						{
							"internalType": "bool",
							"name": "",
							"type": "bool"
						}
					],
					"stateMutability": "nonpayable",
					"type": "function"
				},
				{
					"inputs": [],
					"name": "name",
					"outputs": [
						{
							"internalType": "string",
							"name": "",
							"type": "string"
						}
					],
					"stateMutability": "view",
					"type": "function"
				},
				{
					"inputs": [],
					"name": "pause",
					"outputs": [],
					"stateMutability": "nonpayable",
					"type": "function"
				},
				{
					"inputs": [],
					"name": "paused",
					"outputs": [
						{
							"internalType": "bool",
							"name": "",
							"type": "bool"
						}
					],
					"stateMutability": "view",
					"type": "function"
				},
				{
					"inputs": [
						{
							"internalType": "address",
							"name": "oldAddress",
							"type": "address"
						},
						{
							"internalType": "address",
							"name": "newAddress",
							"type": "address"
						}
					],
					"name": "recover",
					"outputs": [],
					"stateMutability": "nonpayable",
					"type": "function"
				},
				{
					"inputs": [
						{
							"internalType": "bytes32",
							"name": "hash",
							"type": "bytes32"
						}
					],
					"name": "registerHash",
					"outputs": [],
					"stateMutability": "nonpayable",
					"type": "function"
				},
				{
					"inputs": [
						{
							"internalType": "address",
							"name": "",
							"type": "address"
						}
					],
					"name": "registry",
					"outputs": [
						{
							"internalType": "uint256",
							"name": "tokenBalance",
							"type": "uint256"
						},
						{
							"internalType": "uint256",
							"name": "shareBalance",
							"type": "uint256"
						},
						{
							"internalType": "uint256",
							"name": "fractionalPartOfTokenBalance",
							"type": "uint256"
						},
						{
							"internalType": "bytes32",
							"name": "registrationHash",
							"type": "bytes32"
						},
						{
							"internalType": "bool",
							"name": "recoverable",
							"type": "bool"
						}
					],
					"stateMutability": "view",
					"type": "function"
				},
				{
					"inputs": [
						{
							"internalType": "address",
							"name": "account",
							"type": "address"
						}
					],
					"name": "shareBalanceOf",
					"outputs": [
						{
							"internalType": "uint256",
							"name": "",
							"type": "uint256"
						}
					],
					"stateMutability": "view",
					"type": "function"
				},
				{
					"inputs": [],
					"name": "symbol",
					"outputs": [
						{
							"internalType": "string",
							"name": "",
							"type": "string"
						}
					],
					"stateMutability": "view",
					"type": "function"
				},
				{
					"inputs": [],
					"name": "totalSupply",
					"outputs": [
						{
							"internalType": "uint256",
							"name": "",
							"type": "uint256"
						}
					],
					"stateMutability": "view",
					"type": "function"
				},
				{
					"inputs": [
						{
							"internalType": "address",
							"name": "to",
							"type": "address"
						},
						{
							"internalType": "uint256",
							"name": "amount",
							"type": "uint256"
						}
					],
					"name": "transfer",
					"outputs": [
						{
							"internalType": "bool",
							"name": "",
							"type": "bool"
						}
					],
					"stateMutability": "nonpayable",
					"type": "function"
				},
				{
					"inputs": [
						{
							"internalType": "address",
							"name": "from",
							"type": "address"
						},
						{
							"internalType": "address",
							"name": "to",
							"type": "address"
						},
						{
							"internalType": "uint256",
							"name": "amount",
							"type": "uint256"
						}
					],
					"name": "transferFrom",
					"outputs": [
						{
							"internalType": "bool",
							"name": "",
							"type": "bool"
						}
					],
					"stateMutability": "nonpayable",
					"type": "function"
				},
				{
					"inputs": [],
					"name": "unpause",
					"outputs": [],
					"stateMutability": "nonpayable",
					"type": "function"
				}
			],
			"devdoc": {
				"kind": "dev",
				"methods": {},
				"version": 1
			},
			"evm": {
				"assembly": "    /* \"contract/new_contract.sol\":60:7990  contract ERC20 {... */\n  mstore(0x40, 0x80)\n    /* \"contract/new_contract.sol\":1279:1455  constructor(string memory name_, string memory symbol_) {... */\n  callvalue\n  dup1\n  iszero\n  tag_1\n  jumpi\n  0x00\n  dup1\n  revert\ntag_1:\n  pop\n  mload(0x40)\n  sub(codesize, bytecodeSize)\n  dup1\n  bytecodeSize\n  dup4\n  codecopy\n  dup2\n  dup2\n  add\n  0x40\n  mstore\n  dup2\n  add\n  swap1\n  tag_2\n  swap2\n  swap1\n  tag_3\n  jump\t// in\ntag_2:\n    /* \"contract/new_contract.sol\":1354:1359  name_ */\n  dup2\n    /* \"contract/new_contract.sol\":1346:1351  _name */\n  0x04\n    /* \"contract/new_contract.sol\":1346:1359  _name = name_ */\n  swap1\n  dup2\n  tag_6\n  swap2\n  swap1\n  tag_7\n  jump\t// in\ntag_6:\n  pop\n    /* \"contract/new_contract.sol\":1380:1387  symbol_ */\n  dup1\n    /* \"contract/new_contract.sol\":1370:1377  _symbol */\n  0x05\n    /* \"contract/new_contract.sol\":1370:1387  _symbol = symbol_ */\n  swap1\n  dup2\n  tag_8\n  swap2\n  swap1\n  tag_7\n  jump\t// in\ntag_8:\n  pop\n    /* \"contract/new_contract.sol\":1412:1422  msg.sender */\n  caller\n    /* \"contract/new_contract.sol\":1398:1409  corporation */\n  0x06\n  0x00\n    /* \"contract/new_contract.sol\":1398:1422  corporation = msg.sender */\n  0x0100\n  exp\n  dup2\n  sload\n  dup2\n  0xffffffffffffffffffffffffffffffffffffffff\n  mul\n  not\n  and\n  swap1\n  dup4\n  0xffffffffffffffffffffffffffffffffffffffff\n  and\n  mul\n  or\n  swap1\n  sstore\n  pop\n    /* \"contract/new_contract.sol\":1442:1447  false */\n  0x00\n    /* \"contract/new_contract.sol\":1433:1439  paused */\n  0x03\n  0x00\n    /* \"contract/new_contract.sol\":1433:1447  paused = false */\n  0x0100\n  exp\n  dup2\n  sload\n  dup2\n  0xff\n  mul\n  not\n  and\n  swap1\n  dup4\n  iszero\n  iszero\n  mul\n  or\n  swap1\n  sstore\n  pop\n    /* \"contract/new_contract.sol\":1279:1455  constructor(string memory name_, string memory symbol_) {... */\n  pop\n  pop\n    /* \"contract/new_contract.sol\":60:7990  contract ERC20 {... */\n  jump(tag_9)\n    /* \"#utility.yul\":7:82   */\ntag_10:\n    /* \"#utility.yul\":40:46   */\n  0x00\n    /* \"#utility.yul\":73:75   */\n  0x40\n    /* \"#utility.yul\":67:76   */\n  mload\n    /* \"#utility.yul\":57:76   */\n  swap1\n  pop\n    /* \"#utility.yul\":7:82   */\n  swap1\n  jump\t// out\n    /* \"#utility.yul\":88:205   */\ntag_11:\n    /* \"#utility.yul\":197:198   */\n  0x00\n    /* \"#utility.yul\":194:195   */\n  dup1\n    /* \"#utility.yul\":187:199   */\n  revert\n    /* \"#utility.yul\":211:328   */\ntag_12:\n    /* \"#utility.yul\":320:321   */\n  0x00\n    /* \"#utility.yul\":317:318   */\n  dup1\n    /* \"#utility.yul\":310:322   */\n  revert\n    /* \"#utility.yul\":334:451   */\ntag_13:\n    /* \"#utility.yul\":443:444   */\n  0x00\n    /* \"#utility.yul\":440:441   */\n  dup1\n    /* \"#utility.yul\":433:445   */\n  revert\n    /* \"#utility.yul\":457:574   */\ntag_14:\n    /* \"#utility.yul\":566:567   */\n  0x00\n    /* \"#utility.yul\":563:564   */\n  dup1\n    /* \"#utility.yul\":556:568   */\n  revert\n    /* \"#utility.yul\":580:682   */\ntag_15:\n    /* \"#utility.yul\":621:627   */\n  0x00\n    /* \"#utility.yul\":672:674   */\n  0x1f\n    /* \"#utility.yul\":668:675   */\n  not\n    /* \"#utility.yul\":663:665   */\n  0x1f\n    /* \"#utility.yul\":656:661   */\n  dup4\n    /* \"#utility.yul\":652:666   */\n  add\n    /* \"#utility.yul\":648:676   */\n  and\n    /* \"#utility.yul\":638:676   */\n  swap1\n  pop\n    /* \"#utility.yul\":580:682   */\n  swap2\n  swap1\n  pop\n  jump\t// out\n    /* \"#utility.yul\":688:868   */\ntag_16:\n    /* \"#utility.yul\":736:813   */\n  0x4e487b7100000000000000000000000000000000000000000000000000000000\n    /* \"#utility.yul\":733:734   */\n  0x00\n    /* \"#utility.yul\":726:814   */\n  mstore\n    /* \"#utility.yul\":833:837   */\n  0x41\n    /* \"#utility.yul\":830:831   */\n  0x04\n    /* \"#utility.yul\":823:838   */\n  mstore\n    /* \"#utility.yul\":857:861   */\n  0x24\n    /* \"#utility.yul\":854:855   */\n  0x00\n    /* \"#utility.yul\":847:862   */\n  revert\n    /* \"#utility.yul\":874:1155   */\ntag_17:\n    /* \"#utility.yul\":957:984   */\n  tag_51\n    /* \"#utility.yul\":979:983   */\n  dup3\n    /* \"#utility.yul\":957:984   */\n  tag_15\n  jump\t// in\ntag_51:\n    /* \"#utility.yul\":949:955   */\n  dup2\n    /* \"#utility.yul\":945:985   */\n  add\n    /* \"#utility.yul\":1087:1093   */\n  dup2\n    /* \"#utility.yul\":1075:1085   */\n  dup2\n    /* \"#utility.yul\":1072:1094   */\n  lt\n    /* \"#utility.yul\":1051:1069   */\n  0xffffffffffffffff\n    /* \"#utility.yul\":1039:1049   */\n  dup3\n    /* \"#utility.yul\":1036:1070   */\n  gt\n    /* \"#utility.yul\":1033:1095   */\n  or\n    /* \"#utility.yul\":1030:1118   */\n  iszero\n  tag_52\n  jumpi\n    /* \"#utility.yul\":1098:1116   */\n  tag_53\n  tag_16\n  jump\t// in\ntag_53:\n    /* \"#utility.yul\":1030:1118   */\ntag_52:\n    /* \"#utility.yul\":1138:1148   */\n  dup1\n    /* \"#utility.yul\":1134:1136   */\n  0x40\n    /* \"#utility.yul\":1127:1149   */\n  mstore\n    /* \"#utility.yul\":917:1155   */\n  pop\n    /* \"#utility.yul\":874:1155   */\n  pop\n  pop\n  jump\t// out\n    /* \"#utility.yul\":1161:1290   */\ntag_18:\n    /* \"#utility.yul\":1195:1201   */\n  0x00\n    /* \"#utility.yul\":1222:1242   */\n  tag_55\n  tag_10\n  jump\t// in\ntag_55:\n    /* \"#utility.yul\":1212:1242   */\n  swap1\n  pop\n    /* \"#utility.yul\":1251:1284   */\n  tag_56\n    /* \"#utility.yul\":1279:1283   */\n  dup3\n    /* \"#utility.yul\":1271:1277   */\n  dup3\n    /* \"#utility.yul\":1251:1284   */\n  tag_17\n  jump\t// in\ntag_56:\n    /* \"#utility.yul\":1161:1290   */\n  swap2\n  swap1\n  pop\n  jump\t// out\n    /* \"#utility.yul\":1296:1604   */\ntag_19:\n    /* \"#utility.yul\":1358:1362   */\n  0x00\n    /* \"#utility.yul\":1448:1466   */\n  0xffffffffffffffff\n    /* \"#utility.yul\":1440:1446   */\n  dup3\n    /* \"#utility.yul\":1437:1467   */\n  gt\n    /* \"#utility.yul\":1434:1490   */\n  iszero\n  tag_58\n  jumpi\n    /* \"#utility.yul\":1470:1488   */\n  tag_59\n  tag_16\n  jump\t// in\ntag_59:\n    /* \"#utility.yul\":1434:1490   */\ntag_58:\n    /* \"#utility.yul\":1508:1537   */\n  tag_60\n    /* \"#utility.yul\":1530:1536   */\n  dup3\n    /* \"#utility.yul\":1508:1537   */\n  tag_15\n  jump\t// in\ntag_60:\n    /* \"#utility.yul\":1500:1537   */\n  swap1\n  pop\n    /* \"#utility.yul\":1592:1596   */\n  0x20\n    /* \"#utility.yul\":1586:1590   */\n  dup2\n    /* \"#utility.yul\":1582:1597   */\n  add\n    /* \"#utility.yul\":1574:1597   */\n  swap1\n  pop\n    /* \"#utility.yul\":1296:1604   */\n  swap2\n  swap1\n  pop\n  jump\t// out\n    /* \"#utility.yul\":1610:1856   */\ntag_20:\n    /* \"#utility.yul\":1691:1692   */\n  0x00\n    /* \"#utility.yul\":1701:1814   */\ntag_62:\n    /* \"#utility.yul\":1715:1721   */\n  dup4\n    /* \"#utility.yul\":1712:1713   */\n  dup2\n    /* \"#utility.yul\":1709:1722   */\n  lt\n    /* \"#utility.yul\":1701:1814   */\n  iszero\n  tag_64\n  jumpi\n    /* \"#utility.yul\":1800:1801   */\n  dup1\n    /* \"#utility.yul\":1795:1798   */\n  dup3\n    /* \"#utility.yul\":1791:1802   */\n  add\n    /* \"#utility.yul\":1785:1803   */\n  mload\n    /* \"#utility.yul\":1781:1782   */\n  dup2\n    /* \"#utility.yul\":1776:1779   */\n  dup5\n    /* \"#utility.yul\":1772:1783   */\n  add\n    /* \"#utility.yul\":1765:1804   */\n  mstore\n    /* \"#utility.yul\":1737:1739   */\n  0x20\n    /* \"#utility.yul\":1734:1735   */\n  dup2\n    /* \"#utility.yul\":1730:1740   */\n  add\n    /* \"#utility.yul\":1725:1740   */\n  swap1\n  pop\n    /* \"#utility.yul\":1701:1814   */\n  jump(tag_62)\ntag_64:\n    /* \"#utility.yul\":1848:1849   */\n  0x00\n    /* \"#utility.yul\":1839:1845   */\n  dup5\n    /* \"#utility.yul\":1834:1837   */\n  dup5\n    /* \"#utility.yul\":1830:1846   */\n  add\n    /* \"#utility.yul\":1823:1850   */\n  mstore\n    /* \"#utility.yul\":1672:1856   */\n  pop\n    /* \"#utility.yul\":1610:1856   */\n  pop\n  pop\n  pop\n  jump\t// out\n    /* \"#utility.yul\":1862:2296   */\ntag_21:\n    /* \"#utility.yul\":1951:1956   */\n  0x00\n    /* \"#utility.yul\":1976:2042   */\n  tag_66\n    /* \"#utility.yul\":1992:2041   */\n  tag_67\n    /* \"#utility.yul\":2034:2040   */\n  dup5\n    /* \"#utility.yul\":1992:2041   */\n  tag_19\n  jump\t// in\ntag_67:\n    /* \"#utility.yul\":1976:2042   */\n  tag_18\n  jump\t// in\ntag_66:\n    /* \"#utility.yul\":1967:2042   */\n  swap1\n  pop\n    /* \"#utility.yul\":2065:2071   */\n  dup3\n    /* \"#utility.yul\":2058:2063   */\n  dup2\n    /* \"#utility.yul\":2051:2072   */\n  mstore\n    /* \"#utility.yul\":2103:2107   */\n  0x20\n    /* \"#utility.yul\":2096:2101   */\n  dup2\n    /* \"#utility.yul\":2092:2108   */\n  add\n    /* \"#utility.yul\":2141:2144   */\n  dup5\n    /* \"#utility.yul\":2132:2138   */\n  dup5\n    /* \"#utility.yul\":2127:2130   */\n  dup5\n    /* \"#utility.yul\":2123:2139   */\n  add\n    /* \"#utility.yul\":2120:2145   */\n  gt\n    /* \"#utility.yul\":2117:2229   */\n  iszero\n  tag_68\n  jumpi\n    /* \"#utility.yul\":2148:2227   */\n  tag_69\n  tag_14\n  jump\t// in\ntag_69:\n    /* \"#utility.yul\":2117:2229   */\ntag_68:\n    /* \"#utility.yul\":2238:2290   */\n  tag_70\n    /* \"#utility.yul\":2283:2289   */\n  dup5\n    /* \"#utility.yul\":2278:2281   */\n  dup3\n    /* \"#utility.yul\":2273:2276   */\n  dup6\n    /* \"#utility.yul\":2238:2290   */\n  tag_20\n  jump\t// in\ntag_70:\n    /* \"#utility.yul\":1957:2296   */\n  pop\n    /* \"#utility.yul\":1862:2296   */\n  swap4\n  swap3\n  pop\n  pop\n  pop\n  jump\t// out\n    /* \"#utility.yul\":2316:2671   */\ntag_22:\n    /* \"#utility.yul\":2383:2388   */\n  0x00\n    /* \"#utility.yul\":2432:2435   */\n  dup3\n    /* \"#utility.yul\":2425:2429   */\n  0x1f\n    /* \"#utility.yul\":2417:2423   */\n  dup4\n    /* \"#utility.yul\":2413:2430   */\n  add\n    /* \"#utility.yul\":2409:2436   */\n  slt\n    /* \"#utility.yul\":2399:2521   */\n  tag_72\n  jumpi\n    /* \"#utility.yul\":2440:2519   */\n  tag_73\n  tag_13\n  jump\t// in\ntag_73:\n    /* \"#utility.yul\":2399:2521   */\ntag_72:\n    /* \"#utility.yul\":2550:2556   */\n  dup2\n    /* \"#utility.yul\":2544:2557   */\n  mload\n    /* \"#utility.yul\":2575:2665   */\n  tag_74\n    /* \"#utility.yul\":2661:2664   */\n  dup5\n    /* \"#utility.yul\":2653:2659   */\n  dup3\n    /* \"#utility.yul\":2646:2650   */\n  0x20\n    /* \"#utility.yul\":2638:2644   */\n  dup7\n    /* \"#utility.yul\":2634:2651   */\n  add\n    /* \"#utility.yul\":2575:2665   */\n  tag_21\n  jump\t// in\ntag_74:\n    /* \"#utility.yul\":2566:2665   */\n  swap2\n  pop\n    /* \"#utility.yul\":2389:2671   */\n  pop\n    /* \"#utility.yul\":2316:2671   */\n  swap3\n  swap2\n  pop\n  pop\n  jump\t// out\n    /* \"#utility.yul\":2677:3530   */\ntag_3:\n    /* \"#utility.yul\":2776:2782   */\n  0x00\n    /* \"#utility.yul\":2784:2790   */\n  dup1\n    /* \"#utility.yul\":2833:2835   */\n  0x40\n    /* \"#utility.yul\":2821:2830   */\n  dup4\n    /* \"#utility.yul\":2812:2819   */\n  dup6\n    /* \"#utility.yul\":2808:2831   */\n  sub\n    /* \"#utility.yul\":2804:2836   */\n  slt\n    /* \"#utility.yul\":2801:2920   */\n  iszero\n  tag_76\n  jumpi\n    /* \"#utility.yul\":2839:2918   */\n  tag_77\n  tag_11\n  jump\t// in\ntag_77:\n    /* \"#utility.yul\":2801:2920   */\ntag_76:\n    /* \"#utility.yul\":2980:2981   */\n  0x00\n    /* \"#utility.yul\":2969:2978   */\n  dup4\n    /* \"#utility.yul\":2965:2982   */\n  add\n    /* \"#utility.yul\":2959:2983   */\n  mload\n    /* \"#utility.yul\":3010:3028   */\n  0xffffffffffffffff\n    /* \"#utility.yul\":3002:3008   */\n  dup2\n    /* \"#utility.yul\":2999:3029   */\n  gt\n    /* \"#utility.yul\":2996:3113   */\n  iszero\n  tag_78\n  jumpi\n    /* \"#utility.yul\":3032:3111   */\n  tag_79\n  tag_12\n  jump\t// in\ntag_79:\n    /* \"#utility.yul\":2996:3113   */\ntag_78:\n    /* \"#utility.yul\":3137:3211   */\n  tag_80\n    /* \"#utility.yul\":3203:3210   */\n  dup6\n    /* \"#utility.yul\":3194:3200   */\n  dup3\n    /* \"#utility.yul\":3183:3192   */\n  dup7\n    /* \"#utility.yul\":3179:3201   */\n  add\n    /* \"#utility.yul\":3137:3211   */\n  tag_22\n  jump\t// in\ntag_80:\n    /* \"#utility.yul\":3127:3211   */\n  swap3\n  pop\n    /* \"#utility.yul\":2930:3221   */\n  pop\n    /* \"#utility.yul\":3281:3283   */\n  0x20\n    /* \"#utility.yul\":3270:3279   */\n  dup4\n    /* \"#utility.yul\":3266:3284   */\n  add\n    /* \"#utility.yul\":3260:3285   */\n  mload\n    /* \"#utility.yul\":3312:3330   */\n  0xffffffffffffffff\n    /* \"#utility.yul\":3304:3310   */\n  dup2\n    /* \"#utility.yul\":3301:3331   */\n  gt\n    /* \"#utility.yul\":3298:3415   */\n  iszero\n  tag_81\n  jumpi\n    /* \"#utility.yul\":3334:3413   */\n  tag_82\n  tag_12\n  jump\t// in\ntag_82:\n    /* \"#utility.yul\":3298:3415   */\ntag_81:\n    /* \"#utility.yul\":3439:3513   */\n  tag_83\n    /* \"#utility.yul\":3505:3512   */\n  dup6\n    /* \"#utility.yul\":3496:3502   */\n  dup3\n    /* \"#utility.yul\":3485:3494   */\n  dup7\n    /* \"#utility.yul\":3481:3503   */\n  add\n    /* \"#utility.yul\":3439:3513   */\n  tag_22\n  jump\t// in\ntag_83:\n    /* \"#utility.yul\":3429:3513   */\n  swap2\n  pop\n    /* \"#utility.yul\":3231:3523   */\n  pop\n    /* \"#utility.yul\":2677:3530   */\n  swap3\n  pop\n  swap3\n  swap1\n  pop\n  jump\t// out\n    /* \"#utility.yul\":3536:3635   */\ntag_23:\n    /* \"#utility.yul\":3588:3594   */\n  0x00\n    /* \"#utility.yul\":3622:3627   */\n  dup2\n    /* \"#utility.yul\":3616:3628   */\n  mload\n    /* \"#utility.yul\":3606:3628   */\n  swap1\n  pop\n    /* \"#utility.yul\":3536:3635   */\n  swap2\n  swap1\n  pop\n  jump\t// out\n    /* \"#utility.yul\":3641:3821   */\ntag_24:\n    /* \"#utility.yul\":3689:3766   */\n  0x4e487b7100000000000000000000000000000000000000000000000000000000\n    /* \"#utility.yul\":3686:3687   */\n  0x00\n    /* \"#utility.yul\":3679:3767   */\n  mstore\n    /* \"#utility.yul\":3786:3790   */\n  0x22\n    /* \"#utility.yul\":3783:3784   */\n  0x04\n    /* \"#utility.yul\":3776:3791   */\n  mstore\n    /* \"#utility.yul\":3810:3814   */\n  0x24\n    /* \"#utility.yul\":3807:3808   */\n  0x00\n    /* \"#utility.yul\":3800:3815   */\n  revert\n    /* \"#utility.yul\":3827:4147   */\ntag_25:\n    /* \"#utility.yul\":3871:3877   */\n  0x00\n    /* \"#utility.yul\":3908:3909   */\n  0x02\n    /* \"#utility.yul\":3902:3906   */\n  dup3\n    /* \"#utility.yul\":3898:3910   */\n  div\n    /* \"#utility.yul\":3888:3910   */\n  swap1\n  pop\n    /* \"#utility.yul\":3955:3956   */\n  0x01\n    /* \"#utility.yul\":3949:3953   */\n  dup3\n    /* \"#utility.yul\":3945:3957   */\n  and\n    /* \"#utility.yul\":3976:3994   */\n  dup1\n    /* \"#utility.yul\":3966:4047   */\n  tag_87\n  jumpi\n    /* \"#utility.yul\":4032:4036   */\n  0x7f\n    /* \"#utility.yul\":4024:4030   */\n  dup3\n    /* \"#utility.yul\":4020:4037   */\n  and\n    /* \"#utility.yul\":4010:4037   */\n  swap2\n  pop\n    /* \"#utility.yul\":3966:4047   */\ntag_87:\n    /* \"#utility.yul\":4094:4096   */\n  0x20\n    /* \"#utility.yul\":4086:4092   */\n  dup3\n    /* \"#utility.yul\":4083:4097   */\n  lt\n    /* \"#utility.yul\":4063:4081   */\n  dup2\n    /* \"#utility.yul\":4060:4098   */\n  sub\n    /* \"#utility.yul\":4057:4141   */\n  tag_88\n  jumpi\n    /* \"#utility.yul\":4113:4131   */\n  tag_89\n  tag_24\n  jump\t// in\ntag_89:\n    /* \"#utility.yul\":4057:4141   */\ntag_88:\n    /* \"#utility.yul\":3878:4147   */\n  pop\n    /* \"#utility.yul\":3827:4147   */\n  swap2\n  swap1\n  pop\n  jump\t// out\n    /* \"#utility.yul\":4153:4294   */\ntag_26:\n    /* \"#utility.yul\":4202:4206   */\n  0x00\n    /* \"#utility.yul\":4225:4228   */\n  dup2\n    /* \"#utility.yul\":4217:4228   */\n  swap1\n  pop\n    /* \"#utility.yul\":4248:4251   */\n  dup2\n    /* \"#utility.yul\":4245:4246   */\n  0x00\n    /* \"#utility.yul\":4238:4252   */\n  mstore\n    /* \"#utility.yul\":4282:4286   */\n  0x20\n    /* \"#utility.yul\":4279:4280   */\n  0x00\n    /* \"#utility.yul\":4269:4287   */\n  keccak256\n    /* \"#utility.yul\":4261:4287   */\n  swap1\n  pop\n    /* \"#utility.yul\":4153:4294   */\n  swap2\n  swap1\n  pop\n  jump\t// out\n    /* \"#utility.yul\":4300:4393   */\ntag_27:\n    /* \"#utility.yul\":4337:4343   */\n  0x00\n    /* \"#utility.yul\":4384:4386   */\n  0x20\n    /* \"#utility.yul\":4379:4381   */\n  0x1f\n    /* \"#utility.yul\":4372:4377   */\n  dup4\n    /* \"#utility.yul\":4368:4382   */\n  add\n    /* \"#utility.yul\":4364:4387   */\n  div\n    /* \"#utility.yul\":4354:4387   */\n  swap1\n  pop\n    /* \"#utility.yul\":4300:4393   */\n  swap2\n  swap1\n  pop\n  jump\t// out\n    /* \"#utility.yul\":4399:4506   */\ntag_28:\n    /* \"#utility.yul\":4443:4451   */\n  0x00\n    /* \"#utility.yul\":4493:4498   */\n  dup3\n    /* \"#utility.yul\":4487:4491   */\n  dup3\n    /* \"#utility.yul\":4483:4499   */\n  shl\n    /* \"#utility.yul\":4462:4499   */\n  swap1\n  pop\n    /* \"#utility.yul\":4399:4506   */\n  swap3\n  swap2\n  pop\n  pop\n  jump\t// out\n    /* \"#utility.yul\":4512:4905   */\ntag_29:\n    /* \"#utility.yul\":4581:4587   */\n  0x00\n    /* \"#utility.yul\":4631:4632   */\n  0x08\n    /* \"#utility.yul\":4619:4629   */\n  dup4\n    /* \"#utility.yul\":4615:4633   */\n  mul\n    /* \"#utility.yul\":4654:4751   */\n  tag_94\n    /* \"#utility.yul\":4684:4750   */\n  0xffffffffffffffffffffffffffffffffffffffffffffffffffffffffffffffff\n    /* \"#utility.yul\":4673:4682   */\n  dup3\n    /* \"#utility.yul\":4654:4751   */\n  tag_28\n  jump\t// in\ntag_94:\n    /* \"#utility.yul\":4772:4811   */\n  tag_95\n    /* \"#utility.yul\":4802:4810   */\n  dup7\n    /* \"#utility.yul\":4791:4800   */\n  dup4\n    /* \"#utility.yul\":4772:4811   */\n  tag_28\n  jump\t// in\ntag_95:\n    /* \"#utility.yul\":4760:4811   */\n  swap6\n  pop\n    /* \"#utility.yul\":4844:4848   */\n  dup1\n    /* \"#utility.yul\":4840:4849   */\n  not\n    /* \"#utility.yul\":4833:4838   */\n  dup5\n    /* \"#utility.yul\":4829:4850   */\n  and\n    /* \"#utility.yul\":4820:4850   */\n  swap4\n  pop\n    /* \"#utility.yul\":4893:4897   */\n  dup1\n    /* \"#utility.yul\":4883:4891   */\n  dup7\n    /* \"#utility.yul\":4879:4898   */\n  and\n    /* \"#utility.yul\":4872:4877   */\n  dup5\n    /* \"#utility.yul\":4869:4899   */\n  or\n    /* \"#utility.yul\":4859:4899   */\n  swap3\n  pop\n    /* \"#utility.yul\":4588:4905   */\n  pop\n  pop\n    /* \"#utility.yul\":4512:4905   */\n  swap4\n  swap3\n  pop\n  pop\n  pop\n  jump\t// out\n    /* \"#utility.yul\":4911:4988   */\ntag_30:\n    /* \"#utility.yul\":4948:4955   */\n  0x00\n    /* \"#utility.yul\":4977:4982   */\n  dup2\n    /* \"#utility.yul\":4966:4982   */\n  swap1\n  pop\n    /* \"#utility.yul\":4911:4988   */\n  swap2\n  swap1\n  pop\n  jump\t// out\n    /* \"#utility.yul\":4994:5054   */\ntag_31:\n    /* \"#utility.yul\":5022:5025   */\n  0x00\n    /* \"#utility.yul\":5043:5048   */\n  dup2\n    /* \"#utility.yul\":5036:5048   */\n  swap1\n  pop\n    /* \"#utility.yul\":4994:5054   */\n  swap2\n  swap1\n  pop\n  jump\t// out\n    /* \"#utility.yul\":5060:5202   */\ntag_32:\n    /* \"#utility.yul\":5110:5119   */\n  0x00\n    /* \"#utility.yul\":5143:5196   */\n  tag_99\n    /* \"#utility.yul\":5161:5195   */\n  tag_100\n    /* \"#utility.yul\":5170:5194   */\n  tag_101\n    /* \"#utility.yul\":5188:5193   */\n  dup5\n    /* \"#utility.yul\":5170:5194   */\n  tag_30\n  jump\t// in\ntag_101:\n    /* \"#utility.yul\":5161:5195   */\n  tag_31\n  jump\t// in\ntag_100:\n    /* \"#utility.yul\":5143:5196   */\n  tag_30\n  jump\t// in\ntag_99:\n    /* \"#utility.yul\":5130:5196   */\n  swap1\n  pop\n    /* \"#utility.yul\":5060:5202   */\n  swap2\n  swap1\n  pop\n  jump\t// out\n    /* \"#utility.yul\":5208:5283   */\ntag_33:\n    /* \"#utility.yul\":5251:5254   */\n  0x00\n    /* \"#utility.yul\":5272:5277   */\n  dup2\n    /* \"#utility.yul\":5265:5277   */\n  swap1\n  pop\n    /* \"#utility.yul\":5208:5283   */\n  swap2\n  swap1\n  pop\n  jump\t// out\n    /* \"#utility.yul\":5289:5558   */\ntag_34:\n    /* \"#utility.yul\":5399:5438   */\n  tag_104\n    /* \"#utility.yul\":5430:5437   */\n  dup4\n    /* \"#utility.yul\":5399:5438   */\n  tag_32\n  jump\t// in\ntag_104:\n    /* \"#utility.yul\":5460:5551   */\n  tag_105\n    /* \"#utility.yul\":5509:5550   */\n  tag_106\n    /* \"#utility.yul\":5533:5549   */\n  dup3\n    /* \"#utility.yul\":5509:5550   */\n  tag_33\n  jump\t// in\ntag_106:\n    /* \"#utility.yul\":5501:5507   */\n  dup5\n    /* \"#utility.yul\":5494:5498   */\n  dup5\n    /* \"#utility.yul\":5488:5499   */\n  sload\n    /* \"#utility.yul\":5460:5551   */\n  tag_29\n  jump\t// in\ntag_105:\n    /* \"#utility.yul\":5454:5458   */\n  dup3\n    /* \"#utility.yul\":5447:5552   */\n  sstore\n    /* \"#utility.yul\":5365:5558   */\n  pop\n    /* \"#utility.yul\":5289:5558   */\n  pop\n  pop\n  pop\n  jump\t// out\n    /* \"#utility.yul\":5564:5637   */\ntag_35:\n    /* \"#utility.yul\":5609:5612   */\n  0x00\n    /* \"#utility.yul\":5564:5637   */\n  swap1\n  jump\t// out\n    /* \"#utility.yul\":5643:5832   */\ntag_36:\n    /* \"#utility.yul\":5720:5752   */\n  tag_109\n  tag_35\n  jump\t// in\ntag_109:\n    /* \"#utility.yul\":5761:5826   */\n  tag_110\n    /* \"#utility.yul\":5819:5825   */\n  dup2\n    /* \"#utility.yul\":5811:5817   */\n  dup5\n    /* \"#utility.yul\":5805:5809   */\n  dup5\n    /* \"#utility.yul\":5761:5826   */\n  tag_34\n  jump\t// in\ntag_110:\n    /* \"#utility.yul\":5696:5832   */\n  pop\n    /* \"#utility.yul\":5643:5832   */\n  pop\n  pop\n  jump\t// out\n    /* \"#utility.yul\":5838:6024   */\ntag_37:\n    /* \"#utility.yul\":5898:6018   */\ntag_112:\n    /* \"#utility.yul\":5915:5918   */\n  dup2\n    /* \"#utility.yul\":5908:5913   */\n  dup2\n    /* \"#utility.yul\":5905:5919   */\n  lt\n    /* \"#utility.yul\":5898:6018   */\n  iszero\n  tag_114\n  jumpi\n    /* \"#utility.yul\":5969:6008   */\n  tag_115\n    /* \"#utility.yul\":6006:6007   */\n  0x00\n    /* \"#utility.yul\":5999:6004   */\n  dup3\n    /* \"#utility.yul\":5969:6008   */\n  tag_36\n  jump\t// in\ntag_115:\n    /* \"#utility.yul\":5942:5943   */\n  0x01\n    /* \"#utility.yul\":5935:5940   */\n  dup2\n    /* \"#utility.yul\":5931:5944   */\n  add\n    /* \"#utility.yul\":5922:5944   */\n  swap1\n  pop\n    /* \"#utility.yul\":5898:6018   */\n  jump(tag_112)\ntag_114:\n    /* \"#utility.yul\":5838:6024   */\n  pop\n  pop\n  jump\t// out\n    /* \"#utility.yul\":6030:6573   */\ntag_38:\n    /* \"#utility.yul\":6131:6133   */\n  0x1f\n    /* \"#utility.yul\":6126:6129   */\n  dup3\n    /* \"#utility.yul\":6123:6134   */\n  gt\n    /* \"#utility.yul\":6120:6566   */\n  iszero\n  tag_117\n  jumpi\n    /* \"#utility.yul\":6165:6203   */\n  tag_118\n    /* \"#utility.yul\":6197:6202   */\n  dup2\n    /* \"#utility.yul\":6165:6203   */\n  tag_26\n  jump\t// in\ntag_118:\n    /* \"#utility.yul\":6249:6278   */\n  tag_119\n    /* \"#utility.yul\":6267:6277   */\n  dup5\n    /* \"#utility.yul\":6249:6278   */\n  tag_27\n  jump\t// in\ntag_119:\n    /* \"#utility.yul\":6239:6247   */\n  dup2\n    /* \"#utility.yul\":6235:6279   */\n  add\n    /* \"#utility.yul\":6432:6434   */\n  0x20\n    /* \"#utility.yul\":6420:6430   */\n  dup6\n    /* \"#utility.yul\":6417:6435   */\n  lt\n    /* \"#utility.yul\":6414:6463   */\n  iszero\n  tag_120\n  jumpi\n    /* \"#utility.yul\":6453:6461   */\n  dup2\n    /* \"#utility.yul\":6438:6461   */\n  swap1\n  pop\n    /* \"#utility.yul\":6414:6463   */\ntag_120:\n    /* \"#utility.yul\":6476:6556   */\n  tag_121\n    /* \"#utility.yul\":6532:6554   */\n  tag_122\n    /* \"#utility.yul\":6550:6553   */\n  dup6\n    /* \"#utility.yul\":6532:6554   */\n  tag_27\n  jump\t// in\ntag_122:\n    /* \"#utility.yul\":6522:6530   */\n  dup4\n    /* \"#utility.yul\":6518:6555   */\n  add\n    /* \"#utility.yul\":6505:6516   */\n  dup3\n    /* \"#utility.yul\":6476:6556   */\n  tag_37\n  jump\t// in\ntag_121:\n    /* \"#utility.yul\":6135:6566   */\n  pop\n  pop\n    /* \"#utility.yul\":6120:6566   */\ntag_117:\n    /* \"#utility.yul\":6030:6573   */\n  pop\n  pop\n  pop\n  jump\t// out\n    /* \"#utility.yul\":6579:6696   */\ntag_39:\n    /* \"#utility.yul\":6633:6641   */\n  0x00\n    /* \"#utility.yul\":6683:6688   */\n  dup3\n    /* \"#utility.yul\":6677:6681   */\n  dup3\n    /* \"#utility.yul\":6673:6689   */\n  shr\n    /* \"#utility.yul\":6652:6689   */\n  swap1\n  pop\n    /* \"#utility.yul\":6579:6696   */\n  swap3\n  swap2\n  pop\n  pop\n  jump\t// out\n    /* \"#utility.yul\":6702:6871   */\ntag_40:\n    /* \"#utility.yul\":6746:6752   */\n  0x00\n    /* \"#utility.yul\":6779:6830   */\n  tag_125\n    /* \"#utility.yul\":6827:6828   */\n  0x00\n    /* \"#utility.yul\":6823:6829   */\n  not\n    /* \"#utility.yul\":6815:6820   */\n  dup5\n    /* \"#utility.yul\":6812:6813   */\n  0x08\n    /* \"#utility.yul\":6808:6821   */\n  mul\n    /* \"#utility.yul\":6779:6830   */\n  tag_39\n  jump\t// in\ntag_125:\n    /* \"#utility.yul\":6775:6831   */\n  not\n    /* \"#utility.yul\":6860:6864   */\n  dup1\n    /* \"#utility.yul\":6854:6858   */\n  dup4\n    /* \"#utility.yul\":6850:6865   */\n  and\n    /* \"#utility.yul\":6840:6865   */\n  swap2\n  pop\n    /* \"#utility.yul\":6753:6871   */\n  pop\n    /* \"#utility.yul\":6702:6871   */\n  swap3\n  swap2\n  pop\n  pop\n  jump\t// out\n    /* \"#utility.yul\":6876:7171   */\ntag_41:\n    /* \"#utility.yul\":6952:6956   */\n  0x00\n    /* \"#utility.yul\":7098:7127   */\n  tag_127\n    /* \"#utility.yul\":7123:7126   */\n  dup4\n    /* \"#utility.yul\":7117:7121   */\n  dup4\n    /* \"#utility.yul\":7098:7127   */\n  tag_40\n  jump\t// in\ntag_127:\n    /* \"#utility.yul\":7090:7127   */\n  swap2\n  pop\n    /* \"#utility.yul\":7160:7163   */\n  dup3\n    /* \"#utility.yul\":7157:7158   */\n  0x02\n    /* \"#utility.yul\":7153:7164   */\n  mul\n    /* \"#utility.yul\":7147:7151   */\n  dup3\n    /* \"#utility.yul\":7144:7165   */\n  or\n    /* \"#utility.yul\":7136:7165   */\n  swap1\n  pop\n    /* \"#utility.yul\":6876:7171   */\n  swap3\n  swap2\n  pop\n  pop\n  jump\t// out\n    /* \"#utility.yul\":7176:8571   */\ntag_7:\n    /* \"#utility.yul\":7293:7330   */\n  tag_129\n    /* \"#utility.yul\":7326:7329   */\n  dup3\n    /* \"#utility.yul\":7293:7330   */\n  tag_23\n  jump\t// in\ntag_129:\n    /* \"#utility.yul\":7395:7413   */\n  0xffffffffffffffff\n    /* \"#utility.yul\":7387:7393   */\n  dup2\n    /* \"#utility.yul\":7384:7414   */\n  gt\n    /* \"#utility.yul\":7381:7437   */\n  iszero\n  tag_130\n  jumpi\n    /* \"#utility.yul\":7417:7435   */\n  tag_131\n  tag_16\n  jump\t// in\ntag_131:\n    /* \"#utility.yul\":7381:7437   */\ntag_130:\n    /* \"#utility.yul\":7461:7499   */\n  tag_132\n    /* \"#utility.yul\":7493:7497   */\n  dup3\n    /* \"#utility.yul\":7487:7498   */\n  sload\n    /* \"#utility.yul\":7461:7499   */\n  tag_25\n  jump\t// in\ntag_132:\n    /* \"#utility.yul\":7546:7613   */\n  tag_133\n    /* \"#utility.yul\":7606:7612   */\n  dup3\n    /* \"#utility.yul\":7598:7604   */\n  dup3\n    /* \"#utility.yul\":7592:7596   */\n  dup6\n    /* \"#utility.yul\":7546:7613   */\n  tag_38\n  jump\t// in\ntag_133:\n    /* \"#utility.yul\":7640:7641   */\n  0x00\n    /* \"#utility.yul\":7664:7668   */\n  0x20\n    /* \"#utility.yul\":7651:7668   */\n  swap1\n  pop\n    /* \"#utility.yul\":7696:7698   */\n  0x1f\n    /* \"#utility.yul\":7688:7694   */\n  dup4\n    /* \"#utility.yul\":7685:7699   */\n  gt\n    /* \"#utility.yul\":7713:7714   */\n  0x01\n    /* \"#utility.yul\":7708:8326   */\n  dup2\n  eq\n  tag_135\n  jumpi\n    /* \"#utility.yul\":8370:8371   */\n  0x00\n    /* \"#utility.yul\":8387:8393   */\n  dup5\n    /* \"#utility.yul\":8384:8461   */\n  iszero\n  tag_136\n  jumpi\n    /* \"#utility.yul\":8436:8445   */\n  dup3\n    /* \"#utility.yul\":8431:8434   */\n  dup8\n    /* \"#utility.yul\":8427:8446   */\n  add\n    /* \"#utility.yul\":8421:8447   */\n  mload\n    /* \"#utility.yul\":8412:8447   */\n  swap1\n  pop\n    /* \"#utility.yul\":8384:8461   */\ntag_136:\n    /* \"#utility.yul\":8487:8554   */\n  tag_137\n    /* \"#utility.yul\":8547:8553   */\n  dup6\n    /* \"#utility.yul\":8540:8545   */\n  dup3\n    /* \"#utility.yul\":8487:8554   */\n  tag_41\n  jump\t// in\ntag_137:\n    /* \"#utility.yul\":8481:8485   */\n  dup7\n    /* \"#utility.yul\":8474:8555   */\n  sstore\n    /* \"#utility.yul\":8343:8565   */\n  pop\n    /* \"#utility.yul\":7678:8565   */\n  jump(tag_134)\n    /* \"#utility.yul\":7708:8326   */\ntag_135:\n    /* \"#utility.yul\":7760:7764   */\n  0x1f\n    /* \"#utility.yul\":7756:7765   */\n  not\n    /* \"#utility.yul\":7748:7754   */\n  dup5\n    /* \"#utility.yul\":7744:7766   */\n  and\n    /* \"#utility.yul\":7794:7831   */\n  tag_138\n    /* \"#utility.yul\":7826:7830   */\n  dup7\n    /* \"#utility.yul\":7794:7831   */\n  tag_26\n  jump\t// in\ntag_138:\n    /* \"#utility.yul\":7853:7854   */\n  0x00\n    /* \"#utility.yul\":7867:8075   */\ntag_139:\n    /* \"#utility.yul\":7881:7888   */\n  dup3\n    /* \"#utility.yul\":7878:7879   */\n  dup2\n    /* \"#utility.yul\":7875:7889   */\n  lt\n    /* \"#utility.yul\":7867:8075   */\n  iszero\n  tag_141\n  jumpi\n    /* \"#utility.yul\":7960:7969   */\n  dup5\n    /* \"#utility.yul\":7955:7958   */\n  dup10\n    /* \"#utility.yul\":7951:7970   */\n  add\n    /* \"#utility.yul\":7945:7971   */\n  mload\n    /* \"#utility.yul\":7937:7943   */\n  dup3\n    /* \"#utility.yul\":7930:7972   */\n  sstore\n    /* \"#utility.yul\":8011:8012   */\n  0x01\n    /* \"#utility.yul\":8003:8009   */\n  dup3\n    /* \"#utility.yul\":7999:8013   */\n  add\n    /* \"#utility.yul\":7989:8013   */\n  swap2\n  pop\n    /* \"#utility.yul\":8058:8060   */\n  0x20\n    /* \"#utility.yul\":8047:8056   */\n  dup6\n    /* \"#utility.yul\":8043:8061   */\n  add\n    /* \"#utility.yul\":8030:8061   */\n  swap5\n  pop\n    /* \"#utility.yul\":7904:7908   */\n  0x20\n    /* \"#utility.yul\":7901:7902   */\n  dup2\n    /* \"#utility.yul\":7897:7909   */\n  add\n    /* \"#utility.yul\":7892:7909   */\n  swap1\n  pop\n    /* \"#utility.yul\":7867:8075   */\n  jump(tag_139)\ntag_141:\n    /* \"#utility.yul\":8103:8109   */\n  dup7\n    /* \"#utility.yul\":8094:8101   */\n  dup4\n    /* \"#utility.yul\":8091:8110   */\n  lt\n    /* \"#utility.yul\":8088:8267   */\n  iszero\n  tag_142\n  jumpi\n    /* \"#utility.yul\":8161:8170   */\n  dup5\n    /* \"#utility.yul\":8156:8159   */\n  dup10\n    /* \"#utility.yul\":8152:8171   */\n  add\n    /* \"#utility.yul\":8146:8172   */\n  mload\n    /* \"#utility.yul\":8204:8252   */\n  tag_143\n    /* \"#utility.yul\":8246:8250   */\n  0x1f\n    /* \"#utility.yul\":8238:8244   */\n  dup10\n    /* \"#utility.yul\":8234:8251   */\n  and\n    /* \"#utility.yul\":8223:8232   */\n  dup3\n    /* \"#utility.yul\":8204:8252   */\n  tag_40\n  jump\t// in\ntag_143:\n    /* \"#utility.yul\":8196:8202   */\n  dup4\n    /* \"#utility.yul\":8189:8253   */\n  sstore\n    /* \"#utility.yul\":8111:8267   */\n  pop\n    /* \"#utility.yul\":8088:8267   */\ntag_142:\n    /* \"#utility.yul\":8313:8314   */\n  0x01\n    /* \"#utility.yul\":8309:8310   */\n  0x02\n    /* \"#utility.yul\":8301:8307   */\n  dup9\n    /* \"#utility.yul\":8297:8311   */\n  mul\n    /* \"#utility.yul\":8293:8315   */\n  add\n    /* \"#utility.yul\":8287:8291   */\n  dup9\n    /* \"#utility.yul\":8280:8316   */\n  sstore\n    /* \"#utility.yul\":7715:8326   */\n  pop\n  pop\n  pop\n    /* \"#utility.yul\":7678:8565   */\ntag_134:\n  pop\n    /* \"#utility.yul\":7268:8571   */\n  pop\n  pop\n  pop\n    /* \"#utility.yul\":7176:8571   */\n  pop\n  pop\n  jump\t// out\n    /* \"contract/new_contract.sol\":60:7990  contract ERC20 {... */\ntag_9:\n  dataSize(sub_0)\n  dup1\n  dataOffset(sub_0)\n  0x00\n  codecopy\n  0x00\n  return\nstop\n\nsub_0: assembly {\n        /* \"contract/new_contract.sol\":60:7990  contract ERC20 {... */\n      mstore(0x40, 0x80)\n      jumpi(tag_1, lt(calldatasize, 0x04))\n      shr(0xe0, calldataload(0x00))\n      dup1\n      0x648bf774\n      gt\n      tag_25\n      jumpi\n      dup1\n      0xa457c2d7\n      gt\n      tag_26\n      jumpi\n      dup1\n      0xa457c2d7\n      eq\n      tag_19\n      jumpi\n      dup1\n      0xa9059cbb\n      eq\n      tag_20\n      jumpi\n      dup1\n      0xb7d122b5\n      eq\n      tag_21\n      jumpi\n      dup1\n      0xbd6f529e\n      eq\n      tag_22\n      jumpi\n      dup1\n      0xdd62ed3e\n      eq\n      tag_23\n      jumpi\n      dup1\n      0xe25c4cf5\n      eq\n      tag_24\n      jumpi\n      jump(tag_1)\n    tag_26:\n      dup1\n      0x648bf774\n      eq\n      tag_13\n      jumpi\n      dup1\n      0x6e6ce65f\n      eq\n      tag_14\n      jumpi\n      dup1\n      0x70a08231\n      eq\n      tag_15\n      jumpi\n      dup1\n      0x8456cb59\n      eq\n      tag_16\n      jumpi\n      dup1\n      0x8f1de16e\n      eq\n      tag_17\n      jumpi\n      dup1\n      0x95d89b41\n      eq\n      tag_18\n      jumpi\n      jump(tag_1)\n    tag_25:\n      dup1\n      0x313ce567\n      gt\n      tag_27\n      jumpi\n      dup1\n      0x313ce567\n      eq\n      tag_7\n      jumpi\n      dup1\n      0x39509351\n      eq\n      tag_8\n      jumpi\n      dup1\n      0x3eaaf86b\n      eq\n      tag_9\n      jumpi\n      dup1\n      0x3f4ba83a\n      eq\n      tag_10\n      jumpi\n      dup1\n      0x4473ad52\n      eq\n      tag_11\n      jumpi\n      dup1\n      0x5c975abb\n      eq\n      tag_12\n      jumpi\n      jump(tag_1)\n    tag_27:\n      dup1\n      0x038defd7\n      eq\n      tag_2\n      jumpi\n      dup1\n      0x06fdde03\n      eq\n      tag_3\n      jumpi\n      dup1\n      0x095ea7b3\n      eq\n      tag_4\n      jumpi\n      dup1\n      0x18160ddd\n      eq\n      tag_5\n      jumpi\n      dup1\n      0x23b872dd\n      eq\n      tag_6\n      jumpi\n    tag_1:\n      0x00\n      dup1\n      revert\n        /* \"contract/new_contract.sol\":294:342  mapping(address => InvestorData) public registry */\n    tag_2:\n      callvalue\n      dup1\n      iszero\n      tag_28\n      jumpi\n      0x00\n      dup1\n      revert\n    tag_28:\n      pop\n      tag_29\n      0x04\n      dup1\n      calldatasize\n      sub\n      dup2\n      add\n      swap1\n      tag_30\n      swap2\n      swap1\n      tag_31\n      jump\t// in\n    tag_30:\n      tag_32\n      jump\t// in\n    tag_29:\n      mload(0x40)\n      tag_33\n      swap6\n      swap5\n      swap4\n      swap3\n      swap2\n      swap1\n      tag_34\n      jump\t// in\n    tag_33:\n      mload(0x40)\n      dup1\n      swap2\n      sub\n      swap1\n      return\n        /* \"contract/new_contract.sol\":1463:1546  function name() public view returns (string memory) {... */\n    tag_3:\n      callvalue\n      dup1\n      iszero\n      tag_35\n      jumpi\n      0x00\n      dup1\n      revert\n    tag_35:\n      pop\n      tag_36\n      tag_37\n      jump\t// in\n    tag_36:\n      mload(0x40)\n      tag_38\n      swap2\n      swap1\n      tag_39\n      jump\t// in\n    tag_38:\n      mload(0x40)\n      dup1\n      swap2\n      sub\n      swap1\n      return\n        /* \"contract/new_contract.sol\":3881:4047  function approve(address spender, uint256 amount) public returns (bool) {... */\n    tag_4:\n      callvalue\n      dup1\n      iszero\n      tag_40\n      jumpi\n      0x00\n      dup1\n      revert\n    tag_40:\n      pop\n      tag_41\n      0x04\n      dup1\n      calldatasize\n      sub\n      dup2\n      add\n      swap1\n      tag_42\n      swap2\n      swap1\n      tag_43\n      jump\t// in\n    tag_42:\n      tag_44\n      jump\t// in\n    tag_41:\n      mload(0x40)\n      tag_45\n      swap2\n      swap1\n      tag_46\n      jump\t// in\n    tag_45:\n      mload(0x40)\n      dup1\n      swap2\n      sub\n      swap1\n      return\n        /* \"contract/new_contract.sol\":1897:1988  function totalSupply() public view returns (uint256) {... */\n    tag_5:\n      callvalue\n      dup1\n      iszero\n      tag_47\n      jumpi\n      0x00\n      dup1\n      revert\n    tag_47:\n      pop\n      tag_48\n      tag_49\n      jump\t// in\n    tag_48:\n      mload(0x40)\n      tag_50\n      swap2\n      swap1\n      tag_51\n      jump\t// in\n    tag_50:\n      mload(0x40)\n      dup1\n      swap2\n      sub\n      swap1\n      return\n        /* \"contract/new_contract.sol\":4051:4470  function transferFrom(address from, address to, uint256 amount) public whenUnpaused returns (bool) {... */\n    tag_6:\n      callvalue\n      dup1\n      iszero\n      tag_52\n      jumpi\n      0x00\n      dup1\n      revert\n    tag_52:\n      pop\n      tag_53\n      0x04\n      dup1\n      calldatasize\n      sub\n      dup2\n      add\n      swap1\n      tag_54\n      swap2\n      swap1\n      tag_55\n      jump\t// in\n    tag_54:\n      tag_56\n      jump\t// in\n    tag_53:\n      mload(0x40)\n      tag_57\n      swap2\n      swap1\n      tag_46\n      jump\t// in\n    tag_57:\n      mload(0x40)\n      dup1\n      swap2\n      sub\n      swap1\n      return\n        /* \"contract/new_contract.sol\":1813:1889  function decimals() public pure returns (uint8) {... */\n    tag_7:\n      callvalue\n      dup1\n      iszero\n      tag_58\n      jumpi\n      0x00\n      dup1\n      revert\n    tag_58:\n      pop\n      tag_59\n      tag_60\n      jump\t// in\n    tag_59:\n      mload(0x40)\n      tag_61\n      swap2\n      swap1\n      tag_62\n      jump\t// in\n    tag_61:\n      mload(0x40)\n      dup1\n      swap2\n      sub\n      swap1\n      return\n        /* \"contract/new_contract.sol\":4474:4686  function increaseAllowance(address spender, uint256 addedValue) public returns (bool) {... */\n    tag_8:\n      callvalue\n      dup1\n      iszero\n      tag_63\n      jumpi\n      0x00\n      dup1\n      revert\n    tag_63:\n      pop\n      tag_64\n      0x04\n      dup1\n      calldatasize\n      sub\n      dup2\n      add\n      swap1\n      tag_65\n      swap2\n      swap1\n      tag_43\n      jump\t// in\n    tag_65:\n      tag_66\n      jump\t// in\n    tag_64:\n      mload(0x40)\n      tag_67\n      swap2\n      swap1\n      tag_46\n      jump\t// in\n    tag_67:\n      mload(0x40)\n      dup1\n      swap2\n      sub\n      swap1\n      return\n        /* \"contract/new_contract.sol\":423:450  uint256 public _totalSupply */\n    tag_9:\n      callvalue\n      dup1\n      iszero\n      tag_68\n      jumpi\n      0x00\n      dup1\n      revert\n    tag_68:\n      pop\n      tag_69\n      tag_70\n      jump\t// in\n    tag_69:\n      mload(0x40)\n      tag_71\n      swap2\n      swap1\n      tag_51\n      jump\t// in\n    tag_71:\n      mload(0x40)\n      dup1\n      swap2\n      sub\n      swap1\n      return\n        /* \"contract/new_contract.sol\":1641:1710  function unpause() public onlyOwner {... */\n    tag_10:\n      callvalue\n      dup1\n      iszero\n      tag_72\n      jumpi\n      0x00\n      dup1\n      revert\n    tag_72:\n      pop\n      tag_73\n      tag_74\n      jump\t// in\n    tag_73:\n      stop\n        /* \"contract/new_contract.sol\":2126:2253  function shareBalanceOf(address account) public view returns (uint256) {... */\n    tag_11:\n      callvalue\n      dup1\n      iszero\n      tag_75\n      jumpi\n      0x00\n      dup1\n      revert\n    tag_75:\n      pop\n      tag_76\n      0x04\n      dup1\n      calldatasize\n      sub\n      dup2\n      add\n      swap1\n      tag_77\n      swap2\n      swap1\n      tag_31\n      jump\t// in\n    tag_77:\n      tag_78\n      jump\t// in\n    tag_76:\n      mload(0x40)\n      tag_79\n      swap2\n      swap1\n      tag_51\n      jump\t// in\n    tag_79:\n      mload(0x40)\n      dup1\n      swap2\n      sub\n      swap1\n      return\n        /* \"contract/new_contract.sol\":564:582  bool public paused */\n    tag_12:\n      callvalue\n      dup1\n      iszero\n      tag_80\n      jumpi\n      0x00\n      dup1\n      revert\n    tag_80:\n      pop\n      tag_81\n      tag_82\n      jump\t// in\n    tag_81:\n      mload(0x40)\n      tag_83\n      swap2\n      swap1\n      tag_46\n      jump\t// in\n    tag_83:\n      mload(0x40)\n      dup1\n      swap2\n      sub\n      swap1\n      return\n        /* \"contract/new_contract.sol\":7233:7987  function recover(address oldAddress, address newAddress) public onlyOwner whenUnpaused {... */\n    tag_13:\n      callvalue\n      dup1\n      iszero\n      tag_84\n      jumpi\n      0x00\n      dup1\n      revert\n    tag_84:\n      pop\n      tag_85\n      0x04\n      dup1\n      calldatasize\n      sub\n      dup2\n      add\n      swap1\n      tag_86\n      swap2\n      swap1\n      tag_87\n      jump\t// in\n    tag_86:\n      tag_88\n      jump\t// in\n    tag_85:\n      stop\n        /* \"contract/new_contract.sol\":6914:7229  function askForRecovery(address account) public payable {... */\n    tag_14:\n      tag_89\n      0x04\n      dup1\n      calldatasize\n      sub\n      dup2\n      add\n      swap1\n      tag_90\n      swap2\n      swap1\n      tag_31\n      jump\t// in\n    tag_90:\n      tag_91\n      jump\t// in\n    tag_89:\n      stop\n        /* \"contract/new_contract.sol\":1996:2118  function balanceOf(address account) public view returns (uint256) {... */\n    tag_15:\n      callvalue\n      dup1\n      iszero\n      tag_92\n      jumpi\n      0x00\n      dup1\n      revert\n    tag_92:\n      pop\n      tag_93\n      0x04\n      dup1\n      calldatasize\n      sub\n      dup2\n      add\n      swap1\n      tag_94\n      swap2\n      swap1\n      tag_31\n      jump\t// in\n    tag_94:\n      tag_95\n      jump\t// in\n    tag_93:\n      mload(0x40)\n      tag_96\n      swap2\n      swap1\n      tag_51\n      jump\t// in\n    tag_96:\n      mload(0x40)\n      dup1\n      swap2\n      sub\n      swap1\n      return\n        /* \"contract/new_contract.sol\":1554:1633  function pause() public onlyOwner whenUnpaused {... */\n    tag_16:\n      callvalue\n      dup1\n      iszero\n      tag_97\n      jumpi\n      0x00\n      dup1\n      revert\n    tag_97:\n      pop\n      tag_98\n      tag_99\n      jump\t// in\n    tag_98:\n      stop\n        /* \"contract/new_contract.sol\":6772:6910  function registerHash(bytes32 hash) public {... */\n    tag_17:\n      callvalue\n      dup1\n      iszero\n      tag_100\n      jumpi\n      0x00\n      dup1\n      revert\n    tag_100:\n      pop\n      tag_101\n      0x04\n      dup1\n      calldatasize\n      sub\n      dup2\n      add\n      swap1\n      tag_102\n      swap2\n      swap1\n      tag_103\n      jump\t// in\n    tag_102:\n      tag_104\n      jump\t// in\n    tag_101:\n      stop\n        /* \"contract/new_contract.sol\":1718:1805  function symbol() public view returns (string memory) {... */\n    tag_18:\n      callvalue\n      dup1\n      iszero\n      tag_105\n      jumpi\n      0x00\n      dup1\n      revert\n    tag_105:\n      pop\n      tag_106\n      tag_107\n      jump\t// in\n    tag_106:\n      mload(0x40)\n      tag_108\n      swap2\n      swap1\n      tag_39\n      jump\t// in\n    tag_108:\n      mload(0x40)\n      dup1\n      swap2\n      sub\n      swap1\n      return\n        /* \"contract/new_contract.sol\":4690:5082  function decreaseAllowance(address spender, uint256 subtractedValue) public returns (bool) {... */\n    tag_19:\n      callvalue\n      dup1\n      iszero\n      tag_109\n      jumpi\n      0x00\n      dup1\n      revert\n    tag_109:\n      pop\n      tag_110\n      0x04\n      dup1\n      calldatasize\n      sub\n      dup2\n      add\n      swap1\n      tag_111\n      swap2\n      swap1\n      tag_43\n      jump\t// in\n    tag_111:\n      tag_112\n      jump\t// in\n    tag_110:\n      mload(0x40)\n      tag_113\n      swap2\n      swap1\n      tag_46\n      jump\t// in\n    tag_113:\n      mload(0x40)\n      dup1\n      swap2\n      sub\n      swap1\n      return\n        /* \"contract/new_contract.sol\":2437:3747  function transfer(address to, uint256 amount) public whenUnpaused returns (bool) {... */\n    tag_20:\n      callvalue\n      dup1\n      iszero\n      tag_114\n      jumpi\n      0x00\n      dup1\n      revert\n    tag_114:\n      pop\n      tag_115\n      0x04\n      dup1\n      calldatasize\n      sub\n      dup2\n      add\n      swap1\n      tag_116\n      swap2\n      swap1\n      tag_43\n      jump\t// in\n    tag_116:\n      tag_117\n      jump\t// in\n    tag_115:\n      mload(0x40)\n      tag_118\n      swap2\n      swap1\n      tag_46\n      jump\t// in\n    tag_118:\n      mload(0x40)\n      dup1\n      swap2\n      sub\n      swap1\n      return\n        /* \"contract/new_contract.sol\":483:526  uint256 public constant ONE_SHARE = 1 ether */\n    tag_21:\n      callvalue\n      dup1\n      iszero\n      tag_119\n      jumpi\n      0x00\n      dup1\n      revert\n    tag_119:\n      pop\n      tag_120\n      tag_121\n      jump\t// in\n    tag_120:\n      mload(0x40)\n      tag_122\n      swap2\n      swap1\n      tag_51\n      jump\t// in\n    tag_122:\n      mload(0x40)\n      dup1\n      swap2\n      sub\n      swap1\n      return\n        /* \"contract/new_contract.sol\":2261:2429  function fractionalShareBalanceOf(address account) public view virtual returns (uint256) {... */\n    tag_22:\n      callvalue\n      dup1\n      iszero\n      tag_123\n      jumpi\n      0x00\n      dup1\n      revert\n    tag_123:\n      pop\n      tag_124\n      0x04\n      dup1\n      calldatasize\n      sub\n      dup2\n      add\n      swap1\n      tag_125\n      swap2\n      swap1\n      tag_31\n      jump\t// in\n    tag_125:\n      tag_126\n      jump\t// in\n    tag_124:\n      mload(0x40)\n      tag_127\n      swap2\n      swap1\n      tag_51\n      jump\t// in\n    tag_127:\n      mload(0x40)\n      dup1\n      swap2\n      sub\n      swap1\n      return\n        /* \"contract/new_contract.sol\":3751:3877  function allowance(address owner, address spender) public view returns (uint256) {... */\n    tag_23:\n      callvalue\n      dup1\n      iszero\n      tag_128\n      jumpi\n      0x00\n      dup1\n      revert\n    tag_128:\n      pop\n      tag_129\n      0x04\n      dup1\n      calldatasize\n      sub\n      dup2\n      add\n      swap1\n      tag_130\n      swap2\n      swap1\n      tag_87\n      jump\t// in\n    tag_130:\n      tag_131\n      jump\t// in\n    tag_129:\n      mload(0x40)\n      tag_132\n      swap2\n      swap1\n      tag_51\n      jump\t// in\n    tag_132:\n      mload(0x40)\n      dup1\n      swap2\n      sub\n      swap1\n      return\n        /* \"contract/new_contract.sol\":645:671  address public corporation */\n    tag_24:\n      callvalue\n      dup1\n      iszero\n      tag_133\n      jumpi\n      0x00\n      dup1\n      revert\n    tag_133:\n      pop\n      tag_134\n      tag_135\n      jump\t// in\n    tag_134:\n      mload(0x40)\n      tag_136\n      swap2\n      swap1\n      tag_137\n      jump\t// in\n    tag_136:\n      mload(0x40)\n      dup1\n      swap2\n      sub\n      swap1\n      return\n        /* \"contract/new_contract.sol\":294:342  mapping(address => InvestorData) public registry */\n    tag_32:\n      mstore(0x20, 0x00)\n      dup1\n      0x00\n      mstore\n      keccak256(0x00, 0x40)\n      0x00\n      swap2\n      pop\n      swap1\n      pop\n      dup1\n      0x00\n      add\n      sload\n      swap1\n      dup1\n      0x01\n      add\n      sload\n      swap1\n      dup1\n      0x02\n      add\n      sload\n      swap1\n      dup1\n      0x03\n      add\n      sload\n      swap1\n      dup1\n      0x04\n      add\n      0x00\n      swap1\n      sload\n      swap1\n      0x0100\n      exp\n      swap1\n      div\n      0xff\n      and\n      swap1\n      pop\n      dup6\n      jump\t// out\n        /* \"contract/new_contract.sol\":1463:1546  function name() public view returns (string memory) {... */\n    tag_37:\n        /* \"contract/new_contract.sol\":1500:1513  string memory */\n      0x60\n        /* \"contract/new_contract.sol\":1533:1538  _name */\n      0x04\n        /* \"contract/new_contract.sol\":1526:1538  return _name */\n      dup1\n      sload\n      tag_139\n      swap1\n      tag_140\n      jump\t// in\n    tag_139:\n      dup1\n      0x1f\n      add\n      0x20\n      dup1\n      swap2\n      div\n      mul\n      0x20\n      add\n      mload(0x40)\n      swap1\n      dup2\n      add\n      0x40\n      mstore\n      dup1\n      swap3\n      swap2\n      swap1\n      dup2\n      dup2\n      mstore\n      0x20\n      add\n      dup3\n      dup1\n      sload\n      tag_141\n      swap1\n      tag_140\n      jump\t// in\n    tag_141:\n      dup1\n      iszero\n      tag_142\n      jumpi\n      dup1\n      0x1f\n      lt\n      tag_143\n      jumpi\n      0x0100\n      dup1\n      dup4\n      sload\n      div\n      mul\n      dup4\n      mstore\n      swap2\n      0x20\n      add\n      swap2\n      jump(tag_142)\n    tag_143:\n      dup3\n      add\n      swap2\n      swap1\n      0x00\n      mstore\n      keccak256(0x00, 0x20)\n      swap1\n    tag_144:\n      dup2\n      sload\n      dup2\n      mstore\n      swap1\n      0x01\n      add\n      swap1\n      0x20\n      add\n      dup1\n      dup4\n      gt\n      tag_144\n      jumpi\n      dup3\n      swap1\n      sub\n      0x1f\n      and\n      dup3\n      add\n      swap2\n    tag_142:\n      pop\n      pop\n      pop\n      pop\n      pop\n      swap1\n      pop\n        /* \"contract/new_contract.sol\":1463:1546  function name() public view returns (string memory) {... */\n      swap1\n      jump\t// out\n        /* \"contract/new_contract.sol\":3881:4047  function approve(address spender, uint256 amount) public returns (bool) {... */\n    tag_44:\n        /* \"contract/new_contract.sol\":3947:3951  bool */\n      0x00\n        /* \"contract/new_contract.sol\":3960:3973  address owner */\n      dup1\n        /* \"contract/new_contract.sol\":3976:3986  msg.sender */\n      caller\n        /* \"contract/new_contract.sol\":3960:3986  address owner = msg.sender */\n      swap1\n      pop\n        /* \"contract/new_contract.sol\":3993:4025  _approve(owner, spender, amount) */\n      tag_146\n        /* \"contract/new_contract.sol\":4002:4007  owner */\n      dup2\n        /* \"contract/new_contract.sol\":4009:4016  spender */\n      dup6\n        /* \"contract/new_contract.sol\":4018:4024  amount */\n      dup6\n        /* \"contract/new_contract.sol\":3993:4001  _approve */\n      tag_147\n        /* \"contract/new_contract.sol\":3993:4025  _approve(owner, spender, amount) */\n      jump\t// in\n    tag_146:\n        /* \"contract/new_contract.sol\":4039:4043  true */\n      0x01\n        /* \"contract/new_contract.sol\":4032:4043  return true */\n      swap2\n      pop\n      pop\n        /* \"contract/new_contract.sol\":3881:4047  function approve(address spender, uint256 amount) public returns (bool) {... */\n      swap3\n      swap2\n      pop\n      pop\n      jump\t// out\n        /* \"contract/new_contract.sol\":1897:1988  function totalSupply() public view returns (uint256) {... */\n    tag_49:\n        /* \"contract/new_contract.sol\":1941:1948  uint256 */\n      0x00\n        /* \"contract/new_contract.sol\":1968:1980  _totalSupply */\n      sload(0x02)\n        /* \"contract/new_contract.sol\":1961:1980  return _totalSupply */\n      swap1\n      pop\n        /* \"contract/new_contract.sol\":1897:1988  function totalSupply() public view returns (uint256) {... */\n      swap1\n      jump\t// out\n        /* \"contract/new_contract.sol\":4051:4470  function transferFrom(address from, address to, uint256 amount) public whenUnpaused returns (bool) {... */\n    tag_56:\n        /* \"contract/new_contract.sol\":4144:4148  bool */\n      0x00\n        /* \"contract/new_contract.sol\":1070:1076  paused */\n      0x03\n      0x00\n      swap1\n      sload\n      swap1\n      0x0100\n      exp\n      swap1\n      div\n      0xff\n      and\n        /* \"contract/new_contract.sol\":1062:1107  require(paused, \"ERC20: token is not paused\") */\n      tag_150\n      jumpi\n      mload(0x40)\n      0x08c379a000000000000000000000000000000000000000000000000000000000\n      dup2\n      mstore\n      0x04\n      add\n      tag_151\n      swap1\n      tag_152\n      jump\t// in\n    tag_151:\n      mload(0x40)\n      dup1\n      swap2\n      sub\n      swap1\n      revert\n    tag_150:\n        /* \"contract/new_contract.sol\":4157:4172  address spender */\n      0x00\n        /* \"contract/new_contract.sol\":4175:4185  msg.sender */\n      caller\n        /* \"contract/new_contract.sol\":4157:4185  address spender = msg.sender */\n      swap1\n      pop\n        /* \"contract/new_contract.sol\":4192:4216  uint256 currentAllowance */\n      0x00\n        /* \"contract/new_contract.sol\":4219:4243  allowance(from, spender) */\n      tag_154\n        /* \"contract/new_contract.sol\":4229:4233  from */\n      dup7\n        /* \"contract/new_contract.sol\":4235:4242  spender */\n      dup4\n        /* \"contract/new_contract.sol\":4219:4228  allowance */\n      tag_131\n        /* \"contract/new_contract.sol\":4219:4243  allowance(from, spender) */\n      jump\t// in\n    tag_154:\n        /* \"contract/new_contract.sol\":4192:4243  uint256 currentAllowance = allowance(from, spender) */\n      swap1\n      pop\n        /* \"contract/new_contract.sol\":4278:4284  amount */\n      dup4\n        /* \"contract/new_contract.sol\":4258:4274  currentAllowance */\n      dup2\n        /* \"contract/new_contract.sol\":4258:4284  currentAllowance >= amount */\n      lt\n      iszero\n        /* \"contract/new_contract.sol\":4250:4329  require(currentAllowance >= amount, \"ERC20: transfer amount exceeds allowance\") */\n      tag_155\n      jumpi\n      mload(0x40)\n      0x08c379a000000000000000000000000000000000000000000000000000000000\n      dup2\n      mstore\n      0x04\n      add\n      tag_156\n      swap1\n      tag_157\n      jump\t// in\n    tag_156:\n      mload(0x40)\n      dup1\n      swap2\n      sub\n      swap1\n      revert\n    tag_155:\n        /* \"contract/new_contract.sol\":4357:4407  _approve(from, spender, currentAllowance - amount) */\n      tag_158\n        /* \"contract/new_contract.sol\":4366:4370  from */\n      dup7\n        /* \"contract/new_contract.sol\":4372:4379  spender */\n      dup4\n        /* \"contract/new_contract.sol\":4400:4406  amount */\n      dup7\n        /* \"contract/new_contract.sol\":4381:4397  currentAllowance */\n      dup5\n        /* \"contract/new_contract.sol\":4381:4406  currentAllowance - amount */\n      sub\n        /* \"contract/new_contract.sol\":4357:4365  _approve */\n      tag_147\n        /* \"contract/new_contract.sol\":4357:4407  _approve(from, spender, currentAllowance - amount) */\n      jump\t// in\n    tag_158:\n        /* \"contract/new_contract.sol\":4421:4448  _transfer(from, to, amount) */\n      tag_159\n        /* \"contract/new_contract.sol\":4431:4435  from */\n      dup7\n        /* \"contract/new_contract.sol\":4437:4439  to */\n      dup7\n        /* \"contract/new_contract.sol\":4441:4447  amount */\n      dup7\n        /* \"contract/new_contract.sol\":4421:4430  _transfer */\n      tag_160\n        /* \"contract/new_contract.sol\":4421:4448  _transfer(from, to, amount) */\n      jump\t// in\n    tag_159:\n        /* \"contract/new_contract.sol\":4462:4466  true */\n      0x01\n        /* \"contract/new_contract.sol\":4455:4466  return true */\n      swap3\n      pop\n      pop\n      pop\n        /* \"contract/new_contract.sol\":4051:4470  function transferFrom(address from, address to, uint256 amount) public whenUnpaused returns (bool) {... */\n      swap4\n      swap3\n      pop\n      pop\n      pop\n      jump\t// out\n        /* \"contract/new_contract.sol\":1813:1889  function decimals() public pure returns (uint8) {... */\n    tag_60:\n        /* \"contract/new_contract.sol\":1854:1859  uint8 */\n      0x00\n        /* \"contract/new_contract.sol\":1879:1881  18 */\n      0x12\n        /* \"contract/new_contract.sol\":1872:1881  return 18 */\n      swap1\n      pop\n        /* \"contract/new_contract.sol\":1813:1889  function decimals() public pure returns (uint8) {... */\n      swap1\n      jump\t// out\n        /* \"contract/new_contract.sol\":4474:4686  function increaseAllowance(address spender, uint256 addedValue) public returns (bool) {... */\n    tag_66:\n        /* \"contract/new_contract.sol\":4554:4558  bool */\n      0x00\n        /* \"contract/new_contract.sol\":4567:4580  address owner */\n      dup1\n        /* \"contract/new_contract.sol\":4583:4593  msg.sender */\n      caller\n        /* \"contract/new_contract.sol\":4567:4593  address owner = msg.sender */\n      swap1\n      pop\n        /* \"contract/new_contract.sol\":4600:4664  _approve(owner, spender, allowance(owner, spender) + addedValue) */\n      tag_163\n        /* \"contract/new_contract.sol\":4609:4614  owner */\n      dup2\n        /* \"contract/new_contract.sol\":4616:4623  spender */\n      dup6\n        /* \"contract/new_contract.sol\":4653:4663  addedValue */\n      dup6\n        /* \"contract/new_contract.sol\":4625:4650  allowance(owner, spender) */\n      tag_164\n        /* \"contract/new_contract.sol\":4635:4640  owner */\n      dup6\n        /* \"contract/new_contract.sol\":4642:4649  spender */\n      dup10\n        /* \"contract/new_contract.sol\":4625:4634  allowance */\n      tag_131\n        /* \"contract/new_contract.sol\":4625:4650  allowance(owner, spender) */\n      jump\t// in\n    tag_164:\n        /* \"contract/new_contract.sol\":4625:4663  allowance(owner, spender) + addedValue */\n      tag_165\n      swap2\n      swap1\n      tag_166\n      jump\t// in\n    tag_165:\n        /* \"contract/new_contract.sol\":4600:4608  _approve */\n      tag_147\n        /* \"contract/new_contract.sol\":4600:4664  _approve(owner, spender, allowance(owner, spender) + addedValue) */\n      jump\t// in\n    tag_163:\n        /* \"contract/new_contract.sol\":4678:4682  true */\n      0x01\n        /* \"contract/new_contract.sol\":4671:4682  return true */\n      swap2\n      pop\n      pop\n        /* \"contract/new_contract.sol\":4474:4686  function increaseAllowance(address spender, uint256 addedValue) public returns (bool) {... */\n      swap3\n      swap2\n      pop\n      pop\n      jump\t// out\n        /* \"contract/new_contract.sol\":423:450  uint256 public _totalSupply */\n    tag_70:\n      sload(0x02)\n      dup2\n      jump\t// out\n        /* \"contract/new_contract.sol\":1641:1710  function unpause() public onlyOwner {... */\n    tag_74:\n        /* \"contract/new_contract.sol\":1189:1200  corporation */\n      0x06\n      0x00\n      swap1\n      sload\n      swap1\n      0x0100\n      exp\n      swap1\n      div\n      0xffffffffffffffffffffffffffffffffffffffff\n      and\n        /* \"contract/new_contract.sol\":1175:1200  msg.sender == corporation */\n      0xffffffffffffffffffffffffffffffffffffffff\n      and\n        /* \"contract/new_contract.sol\":1175:1185  msg.sender */\n      caller\n        /* \"contract/new_contract.sol\":1175:1200  msg.sender == corporation */\n      0xffffffffffffffffffffffffffffffffffffffff\n      and\n      eq\n        /* \"contract/new_contract.sol\":1167:1251  require(msg.sender == corporation, \"ERC20: only corporation can call this function\") */\n      tag_168\n      jumpi\n      mload(0x40)\n      0x08c379a000000000000000000000000000000000000000000000000000000000\n      dup2\n      mstore\n      0x04\n      add\n      tag_169\n      swap1\n      tag_170\n      jump\t// in\n    tag_169:\n      mload(0x40)\n      dup1\n      swap2\n      sub\n      swap1\n      revert\n    tag_168:\n        /* \"contract/new_contract.sol\":1697:1702  false */\n      0x00\n        /* \"contract/new_contract.sol\":1688:1694  paused */\n      0x03\n      0x00\n        /* \"contract/new_contract.sol\":1688:1702  paused = false */\n      0x0100\n      exp\n      dup2\n      sload\n      dup2\n      0xff\n      mul\n      not\n      and\n      swap1\n      dup4\n      iszero\n      iszero\n      mul\n      or\n      swap1\n      sstore\n      pop\n        /* \"contract/new_contract.sol\":1641:1710  function unpause() public onlyOwner {... */\n      jump\t// out\n        /* \"contract/new_contract.sol\":2126:2253  function shareBalanceOf(address account) public view returns (uint256) {... */\n    tag_78:\n        /* \"contract/new_contract.sol\":2188:2195  uint256 */\n      0x00\n        /* \"contract/new_contract.sol\":2215:2223  registry */\n      dup1\n        /* \"contract/new_contract.sol\":2215:2232  registry[account] */\n      0x00\n        /* \"contract/new_contract.sol\":2224:2231  account */\n      dup4\n        /* \"contract/new_contract.sol\":2215:2232  registry[account] */\n      0xffffffffffffffffffffffffffffffffffffffff\n      and\n      0xffffffffffffffffffffffffffffffffffffffff\n      and\n      dup2\n      mstore\n      0x20\n      add\n      swap1\n      dup2\n      mstore\n      0x20\n      add\n      0x00\n      keccak256\n        /* \"contract/new_contract.sol\":2215:2245  registry[account].shareBalance */\n      0x01\n      add\n      sload\n        /* \"contract/new_contract.sol\":2208:2245  return registry[account].shareBalance */\n      swap1\n      pop\n        /* \"contract/new_contract.sol\":2126:2253  function shareBalanceOf(address account) public view returns (uint256) {... */\n      swap2\n      swap1\n      pop\n      jump\t// out\n        /* \"contract/new_contract.sol\":564:582  bool public paused */\n    tag_82:\n      0x03\n      0x00\n      swap1\n      sload\n      swap1\n      0x0100\n      exp\n      swap1\n      div\n      0xff\n      and\n      dup2\n      jump\t// out\n        /* \"contract/new_contract.sol\":7233:7987  function recover(address oldAddress, address newAddress) public onlyOwner whenUnpaused {... */\n    tag_88:\n        /* \"contract/new_contract.sol\":1189:1200  corporation */\n      0x06\n      0x00\n      swap1\n      sload\n      swap1\n      0x0100\n      exp\n      swap1\n      div\n      0xffffffffffffffffffffffffffffffffffffffff\n      and\n        /* \"contract/new_contract.sol\":1175:1200  msg.sender == corporation */\n      0xffffffffffffffffffffffffffffffffffffffff\n      and\n        /* \"contract/new_contract.sol\":1175:1185  msg.sender */\n      caller\n        /* \"contract/new_contract.sol\":1175:1200  msg.sender == corporation */\n      0xffffffffffffffffffffffffffffffffffffffff\n      and\n      eq\n        /* \"contract/new_contract.sol\":1167:1251  require(msg.sender == corporation, \"ERC20: only corporation can call this function\") */\n      tag_174\n      jumpi\n      mload(0x40)\n      0x08c379a000000000000000000000000000000000000000000000000000000000\n      dup2\n      mstore\n      0x04\n      add\n      tag_175\n      swap1\n      tag_170\n      jump\t// in\n    tag_175:\n      mload(0x40)\n      dup1\n      swap2\n      sub\n      swap1\n      revert\n    tag_174:\n        /* \"contract/new_contract.sol\":1070:1076  paused */\n      0x03\n      0x00\n      swap1\n      sload\n      swap1\n      0x0100\n      exp\n      swap1\n      div\n      0xff\n      and\n        /* \"contract/new_contract.sol\":1062:1107  require(paused, \"ERC20: token is not paused\") */\n      tag_177\n      jumpi\n      mload(0x40)\n      0x08c379a000000000000000000000000000000000000000000000000000000000\n      dup2\n      mstore\n      0x04\n      add\n      tag_178\n      swap1\n      tag_152\n      jump\t// in\n    tag_178:\n      mload(0x40)\n      dup1\n      swap2\n      sub\n      swap1\n      revert\n    tag_177:\n        /* \"contract/new_contract.sol\":7349:7359  newAddress */\n      dup1\n        /* \"contract/new_contract.sol\":7335:7359  oldAddress != newAddress */\n      0xffffffffffffffffffffffffffffffffffffffff\n      and\n        /* \"contract/new_contract.sol\":7335:7345  oldAddress */\n      dup3\n        /* \"contract/new_contract.sol\":7335:7359  oldAddress != newAddress */\n      0xffffffffffffffffffffffffffffffffffffffff\n      and\n      sub\n        /* \"contract/new_contract.sol\":7327:7410  require(oldAddress != newAddress, \"Lost address cannot be the same as new address\") */\n      tag_180\n      jumpi\n      mload(0x40)\n      0x08c379a000000000000000000000000000000000000000000000000000000000\n      dup2\n      mstore\n      0x04\n      add\n      tag_181\n      swap1\n      tag_182\n      jump\t// in\n    tag_181:\n      mload(0x40)\n      dup1\n      swap2\n      sub\n      swap1\n      revert\n    tag_180:\n        /* \"contract/new_contract.sol\":7466:7467  0 */\n      0x00\n        /* \"contract/new_contract.sol\":7425:7467  registry[oldAddress].registrationHash != 0 */\n      dup1\n      shl\n        /* \"contract/new_contract.sol\":7425:7433  registry */\n      0x00\n        /* \"contract/new_contract.sol\":7425:7445  registry[oldAddress] */\n      dup1\n        /* \"contract/new_contract.sol\":7434:7444  oldAddress */\n      dup5\n        /* \"contract/new_contract.sol\":7425:7445  registry[oldAddress] */\n      0xffffffffffffffffffffffffffffffffffffffff\n      and\n      0xffffffffffffffffffffffffffffffffffffffff\n      and\n      dup2\n      mstore\n      0x20\n      add\n      swap1\n      dup2\n      mstore\n      0x20\n      add\n      0x00\n      keccak256\n        /* \"contract/new_contract.sol\":7425:7462  registry[oldAddress].registrationHash */\n      0x03\n      add\n      sload\n        /* \"contract/new_contract.sol\":7425:7467  registry[oldAddress].registrationHash != 0 */\n      sub\n        /* \"contract/new_contract.sol\":7417:7503  require(registry[oldAddress].registrationHash != 0, \"Lost address must be registered\") */\n      tag_183\n      jumpi\n      mload(0x40)\n      0x08c379a000000000000000000000000000000000000000000000000000000000\n      dup2\n      mstore\n      0x04\n      add\n      tag_184\n      swap1\n      tag_185\n      jump\t// in\n    tag_184:\n      mload(0x40)\n      dup1\n      swap2\n      sub\n      swap1\n      revert\n    tag_183:\n        /* \"contract/new_contract.sol\":7555:7556  0 */\n      0x00\n        /* \"contract/new_contract.sol\":7518:7526  registry */\n      dup1\n        /* \"contract/new_contract.sol\":7518:7538  registry[newAddress] */\n      0x00\n        /* \"contract/new_contract.sol\":7527:7537  newAddress */\n      dup4\n        /* \"contract/new_contract.sol\":7518:7538  registry[newAddress] */\n      0xffffffffffffffffffffffffffffffffffffffff\n      and\n      0xffffffffffffffffffffffffffffffffffffffff\n      and\n      dup2\n      mstore\n      0x20\n      add\n      swap1\n      dup2\n      mstore\n      0x20\n      add\n      0x00\n      keccak256\n        /* \"contract/new_contract.sol\":7518:7551  registry[newAddress].tokenBalance */\n      0x00\n      add\n      sload\n        /* \"contract/new_contract.sol\":7518:7556  registry[newAddress].tokenBalance == 0 */\n      eq\n        /* \"contract/new_contract.sol\":7510:7591  require(registry[newAddress].tokenBalance == 0, \"New address must be registered\") */\n      tag_186\n      jumpi\n      mload(0x40)\n      0x08c379a000000000000000000000000000000000000000000000000000000000\n      dup2\n      mstore\n      0x04\n      add\n      tag_187\n      swap1\n      tag_188\n      jump\t// in\n    tag_187:\n      mload(0x40)\n      dup1\n      swap2\n      sub\n      swap1\n      revert\n    tag_186:\n        /* \"contract/new_contract.sol\":7643:7644  0 */\n      0x00\n        /* \"contract/new_contract.sol\":7606:7614  registry */\n      dup1\n        /* \"contract/new_contract.sol\":7606:7626  registry[newAddress] */\n      0x00\n        /* \"contract/new_contract.sol\":7615:7625  newAddress */\n      dup4\n        /* \"contract/new_contract.sol\":7606:7626  registry[newAddress] */\n      0xffffffffffffffffffffffffffffffffffffffff\n      and\n      0xffffffffffffffffffffffffffffffffffffffff\n      and\n      dup2\n      mstore\n      0x20\n      add\n      swap1\n      dup2\n      mstore\n      0x20\n      add\n      0x00\n      keccak256\n        /* \"contract/new_contract.sol\":7606:7639  registry[newAddress].shareBalance */\n      0x01\n      add\n      sload\n        /* \"contract/new_contract.sol\":7606:7644  registry[newAddress].shareBalance == 0 */\n      eq\n        /* \"contract/new_contract.sol\":7598:7679  require(registry[newAddress].shareBalance == 0, \"New address must be registered\") */\n      tag_189\n      jumpi\n      mload(0x40)\n      0x08c379a000000000000000000000000000000000000000000000000000000000\n      dup2\n      mstore\n      0x04\n      add\n      tag_190\n      swap1\n      tag_188\n      jump\t// in\n    tag_190:\n      mload(0x40)\n      dup1\n      swap2\n      sub\n      swap1\n      revert\n    tag_189:\n        /* \"contract/new_contract.sol\":7747:7748  0 */\n      0x00\n        /* \"contract/new_contract.sol\":7694:7702  registry */\n      dup1\n        /* \"contract/new_contract.sol\":7694:7714  registry[newAddress] */\n      0x00\n        /* \"contract/new_contract.sol\":7703:7713  newAddress */\n      dup4\n        /* \"contract/new_contract.sol\":7694:7714  registry[newAddress] */\n      0xffffffffffffffffffffffffffffffffffffffff\n      and\n      0xffffffffffffffffffffffffffffffffffffffff\n      and\n      dup2\n      mstore\n      0x20\n      add\n      swap1\n      dup2\n      mstore\n      0x20\n      add\n      0x00\n      keccak256\n        /* \"contract/new_contract.sol\":7694:7743  registry[newAddress].fractionalPartOfTokenBalance */\n      0x02\n      add\n      sload\n        /* \"contract/new_contract.sol\":7694:7748  registry[newAddress].fractionalPartOfTokenBalance == 0 */\n      eq\n        /* \"contract/new_contract.sol\":7686:7783  require(registry[newAddress].fractionalPartOfTokenBalance == 0, \"New address must be registered\") */\n      tag_191\n      jumpi\n      mload(0x40)\n      0x08c379a000000000000000000000000000000000000000000000000000000000\n      dup2\n      mstore\n      0x04\n      add\n      tag_192\n      swap1\n      tag_188\n      jump\t// in\n    tag_192:\n      mload(0x40)\n      dup1\n      swap2\n      sub\n      swap1\n      revert\n    tag_191:\n        /* \"contract/new_contract.sol\":7798:7806  registry */\n      0x00\n        /* \"contract/new_contract.sol\":7798:7818  registry[oldAddress] */\n      dup1\n        /* \"contract/new_contract.sol\":7807:7817  oldAddress */\n      dup4\n        /* \"contract/new_contract.sol\":7798:7818  registry[oldAddress] */\n      0xffffffffffffffffffffffffffffffffffffffff\n      and\n      0xffffffffffffffffffffffffffffffffffffffff\n      and\n      dup2\n      mstore\n      0x20\n      add\n      swap1\n      dup2\n      mstore\n      0x20\n      add\n      0x00\n      keccak256\n        /* \"contract/new_contract.sol\":7798:7830  registry[oldAddress].recoverable */\n      0x04\n      add\n      0x00\n      swap1\n      sload\n      swap1\n      0x0100\n      exp\n      swap1\n      div\n      0xff\n      and\n        /* \"contract/new_contract.sol\":7790:7866  require(registry[oldAddress].recoverable, \"Address not marked for recovery\") */\n      tag_193\n      jumpi\n      mload(0x40)\n      0x08c379a000000000000000000000000000000000000000000000000000000000\n      dup2\n      mstore\n      0x04\n      add\n      tag_194\n      swap1\n      tag_195\n      jump\t// in\n    tag_194:\n      mload(0x40)\n      dup1\n      swap2\n      sub\n      swap1\n      revert\n    tag_193:\n        /* \"contract/new_contract.sol\":7896:7904  registry */\n      0x00\n        /* \"contract/new_contract.sol\":7896:7916  registry[oldAddress] */\n      dup1\n        /* \"contract/new_contract.sol\":7905:7915  oldAddress */\n      dup4\n        /* \"contract/new_contract.sol\":7896:7916  registry[oldAddress] */\n      0xffffffffffffffffffffffffffffffffffffffff\n      and\n      0xffffffffffffffffffffffffffffffffffffffff\n      and\n      dup2\n      mstore\n      0x20\n      add\n      swap1\n      dup2\n      mstore\n      0x20\n      add\n      0x00\n      keccak256\n        /* \"contract/new_contract.sol\":7873:7881  registry */\n      0x00\n        /* \"contract/new_contract.sol\":7873:7893  registry[newAddress] */\n      dup1\n        /* \"contract/new_contract.sol\":7882:7892  newAddress */\n      dup4\n        /* \"contract/new_contract.sol\":7873:7893  registry[newAddress] */\n      0xffffffffffffffffffffffffffffffffffffffff\n      and\n      0xffffffffffffffffffffffffffffffffffffffff\n      and\n      dup2\n      mstore\n      0x20\n      add\n      swap1\n      dup2\n      mstore\n      0x20\n      add\n      0x00\n      keccak256\n        /* \"contract/new_contract.sol\":7873:7916  registry[newAddress] = registry[oldAddress] */\n      0x00\n      dup3\n      add\n      sload\n      dup2\n      0x00\n      add\n      sstore\n      0x01\n      dup3\n      add\n      sload\n      dup2\n      0x01\n      add\n      sstore\n      0x02\n      dup3\n      add\n      sload\n      dup2\n      0x02\n      add\n      sstore\n      0x03\n      dup3\n      add\n      sload\n      dup2\n      0x03\n      add\n      sstore\n      0x04\n      dup3\n      add\n      0x00\n      swap1\n      sload\n      swap1\n      0x0100\n      exp\n      swap1\n      div\n      0xff\n      and\n      dup2\n      0x04\n      add\n      exp(0x0100, 0x00)\n      dup2\n      sload\n      dup2\n      0xff\n      mul\n      not\n      and\n      swap1\n      dup4\n      iszero\n      iszero\n      mul\n      or\n      swap1\n      sstore\n      pop\n      swap1\n      pop\n      pop\n        /* \"contract/new_contract.sol\":7930:7938  registry */\n      0x00\n        /* \"contract/new_contract.sol\":7930:7950  registry[oldAddress] */\n      dup1\n        /* \"contract/new_contract.sol\":7939:7949  oldAddress */\n      dup4\n        /* \"contract/new_contract.sol\":7930:7950  registry[oldAddress] */\n      0xffffffffffffffffffffffffffffffffffffffff\n      and\n      0xffffffffffffffffffffffffffffffffffffffff\n      and\n      dup2\n      mstore\n      0x20\n      add\n      swap1\n      dup2\n      mstore\n      0x20\n      add\n      0x00\n      keccak256\n      0x00\n        /* \"contract/new_contract.sol\":7923:7950  delete registry[oldAddress] */\n      dup1\n      dup3\n      add\n      0x00\n      swap1\n      sstore\n      0x01\n      dup3\n      add\n      0x00\n      swap1\n      sstore\n      0x02\n      dup3\n      add\n      0x00\n      swap1\n      sstore\n      0x03\n      dup3\n      add\n      0x00\n      swap1\n      sstore\n      0x04\n      dup3\n      add\n      exp(0x0100, 0x00)\n      dup2\n      sload\n      swap1\n      0xff\n      mul\n      not\n      and\n      swap1\n      sstore\n      pop\n      pop\n        /* \"contract/new_contract.sol\":7972:7982  oldAddress */\n      dup2\n        /* \"contract/new_contract.sol\":7962:7983  Recovered(oldAddress) */\n      0xffffffffffffffffffffffffffffffffffffffff\n      and\n      0x5e06a4da1c258ba9bc6142ca9e5b6dfa64e57f7fc4e91a150ba0b3fd301587a0\n      mload(0x40)\n      mload(0x40)\n      dup1\n      swap2\n      sub\n      swap1\n      log2\n        /* \"contract/new_contract.sol\":7233:7987  function recover(address oldAddress, address newAddress) public onlyOwner whenUnpaused {... */\n      pop\n      pop\n      jump\t// out\n        /* \"contract/new_contract.sol\":6914:7229  function askForRecovery(address account) public payable {... */\n    tag_91:\n        /* \"contract/new_contract.sol\":7004:7005  0 */\n      0x00\n        /* \"contract/new_contract.sol\":6985:7006  account != address(0) */\n      0xffffffffffffffffffffffffffffffffffffffff\n      and\n        /* \"contract/new_contract.sol\":6985:6992  account */\n      dup2\n        /* \"contract/new_contract.sol\":6985:7006  account != address(0) */\n      0xffffffffffffffffffffffffffffffffffffffff\n      and\n      sub\n        /* \"contract/new_contract.sol\":6977:7053  require(account != address(0), \"ERC20: approveRecovery to the zero address\") */\n      tag_197\n      jumpi\n      mload(0x40)\n      0x08c379a000000000000000000000000000000000000000000000000000000000\n      dup2\n      mstore\n      0x04\n      add\n      tag_198\n      swap1\n      tag_199\n      jump\t// in\n    tag_198:\n      mload(0x40)\n      dup1\n      swap2\n      sub\n      swap1\n      revert\n    tag_197:\n        /* \"contract/new_contract.sol\":7106:7107  0 */\n      0x00\n        /* \"contract/new_contract.sol\":7068:7107  registry[account].registrationHash != 0 */\n      dup1\n      shl\n        /* \"contract/new_contract.sol\":7068:7076  registry */\n      0x00\n        /* \"contract/new_contract.sol\":7068:7085  registry[account] */\n      dup1\n        /* \"contract/new_contract.sol\":7077:7084  account */\n      dup4\n        /* \"contract/new_contract.sol\":7068:7085  registry[account] */\n      0xffffffffffffffffffffffffffffffffffffffff\n      and\n      0xffffffffffffffffffffffffffffffffffffffff\n      and\n      dup2\n      mstore\n      0x20\n      add\n      swap1\n      dup2\n      mstore\n      0x20\n      add\n      0x00\n      keccak256\n        /* \"contract/new_contract.sol\":7068:7102  registry[account].registrationHash */\n      0x03\n      add\n      sload\n        /* \"contract/new_contract.sol\":7068:7107  registry[account].registrationHash != 0 */\n      sub\n        /* \"contract/new_contract.sol\":7060:7145  require(registry[account].registrationHash != 0, \"ERC20: account must be registered\") */\n      tag_200\n      jumpi\n      mload(0x40)\n      0x08c379a000000000000000000000000000000000000000000000000000000000\n      dup2\n      mstore\n      0x04\n      add\n      tag_201\n      swap1\n      tag_202\n      jump\t// in\n    tag_201:\n      mload(0x40)\n      dup1\n      swap2\n      sub\n      swap1\n      revert\n    tag_200:\n        /* \"contract/new_contract.sol\":7184:7188  true */\n      0x01\n        /* \"contract/new_contract.sol\":7152:7160  registry */\n      0x00\n        /* \"contract/new_contract.sol\":7152:7169  registry[account] */\n      dup1\n        /* \"contract/new_contract.sol\":7161:7168  account */\n      dup4\n        /* \"contract/new_contract.sol\":7152:7169  registry[account] */\n      0xffffffffffffffffffffffffffffffffffffffff\n      and\n      0xffffffffffffffffffffffffffffffffffffffff\n      and\n      dup2\n      mstore\n      0x20\n      add\n      swap1\n      dup2\n      mstore\n      0x20\n      add\n      0x00\n      keccak256\n        /* \"contract/new_contract.sol\":7152:7181  registry[account].recoverable */\n      0x04\n      add\n      0x00\n        /* \"contract/new_contract.sol\":7152:7188  registry[account].recoverable = true */\n      0x0100\n      exp\n      dup2\n      sload\n      dup2\n      0xff\n      mul\n      not\n      and\n      swap1\n      dup4\n      iszero\n      iszero\n      mul\n      or\n      swap1\n      sstore\n      pop\n        /* \"contract/new_contract.sol\":7217:7224  account */\n      dup1\n        /* \"contract/new_contract.sol\":7200:7225  AskedForRecovery(account) */\n      0xffffffffffffffffffffffffffffffffffffffff\n      and\n      0xadf0efce7d511d3bf9054d210d803d5d49cad8479bc76ede63aefcaee73a646f\n      mload(0x40)\n      mload(0x40)\n      dup1\n      swap2\n      sub\n      swap1\n      log2\n        /* \"contract/new_contract.sol\":6914:7229  function askForRecovery(address account) public payable {... */\n      pop\n      jump\t// out\n        /* \"contract/new_contract.sol\":1996:2118  function balanceOf(address account) public view returns (uint256) {... */\n    tag_95:\n        /* \"contract/new_contract.sol\":2053:2060  uint256 */\n      0x00\n        /* \"contract/new_contract.sol\":2080:2088  registry */\n      dup1\n        /* \"contract/new_contract.sol\":2080:2097  registry[account] */\n      0x00\n        /* \"contract/new_contract.sol\":2089:2096  account */\n      dup4\n        /* \"contract/new_contract.sol\":2080:2097  registry[account] */\n      0xffffffffffffffffffffffffffffffffffffffff\n      and\n      0xffffffffffffffffffffffffffffffffffffffff\n      and\n      dup2\n      mstore\n      0x20\n      add\n      swap1\n      dup2\n      mstore\n      0x20\n      add\n      0x00\n      keccak256\n        /* \"contract/new_contract.sol\":2080:2110  registry[account].tokenBalance */\n      0x00\n      add\n      sload\n        /* \"contract/new_contract.sol\":2073:2110  return registry[account].tokenBalance */\n      swap1\n      pop\n        /* \"contract/new_contract.sol\":1996:2118  function balanceOf(address account) public view returns (uint256) {... */\n      swap2\n      swap1\n      pop\n      jump\t// out\n        /* \"contract/new_contract.sol\":1554:1633  function pause() public onlyOwner whenUnpaused {... */\n    tag_99:\n        /* \"contract/new_contract.sol\":1189:1200  corporation */\n      0x06\n      0x00\n      swap1\n      sload\n      swap1\n      0x0100\n      exp\n      swap1\n      div\n      0xffffffffffffffffffffffffffffffffffffffff\n      and\n        /* \"contract/new_contract.sol\":1175:1200  msg.sender == corporation */\n      0xffffffffffffffffffffffffffffffffffffffff\n      and\n        /* \"contract/new_contract.sol\":1175:1185  msg.sender */\n      caller\n        /* \"contract/new_contract.sol\":1175:1200  msg.sender == corporation */\n      0xffffffffffffffffffffffffffffffffffffffff\n      and\n      eq\n        /* \"contract/new_contract.sol\":1167:1251  require(msg.sender == corporation, \"ERC20: only corporation can call this function\") */\n      tag_205\n      jumpi\n      mload(0x40)\n      0x08c379a000000000000000000000000000000000000000000000000000000000\n      dup2\n      mstore\n      0x04\n      add\n      tag_206\n      swap1\n      tag_170\n      jump\t// in\n    tag_206:\n      mload(0x40)\n      dup1\n      swap2\n      sub\n      swap1\n      revert\n    tag_205:\n        /* \"contract/new_contract.sol\":1070:1076  paused */\n      0x03\n      0x00\n      swap1\n      sload\n      swap1\n      0x0100\n      exp\n      swap1\n      div\n      0xff\n      and\n        /* \"contract/new_contract.sol\":1062:1107  require(paused, \"ERC20: token is not paused\") */\n      tag_208\n      jumpi\n      mload(0x40)\n      0x08c379a000000000000000000000000000000000000000000000000000000000\n      dup2\n      mstore\n      0x04\n      add\n      tag_209\n      swap1\n      tag_152\n      jump\t// in\n    tag_209:\n      mload(0x40)\n      dup1\n      swap2\n      sub\n      swap1\n      revert\n    tag_208:\n        /* \"contract/new_contract.sol\":1621:1625  true */\n      0x01\n        /* \"contract/new_contract.sol\":1612:1618  paused */\n      0x03\n      0x00\n        /* \"contract/new_contract.sol\":1612:1625  paused = true */\n      0x0100\n      exp\n      dup2\n      sload\n      dup2\n      0xff\n      mul\n      not\n      and\n      swap1\n      dup4\n      iszero\n      iszero\n      mul\n      or\n      swap1\n      sstore\n      pop\n        /* \"contract/new_contract.sol\":1554:1633  function pause() public onlyOwner whenUnpaused {... */\n      jump\t// out\n        /* \"contract/new_contract.sol\":6772:6910  function registerHash(bytes32 hash) public {... */\n    tag_104:\n        /* \"contract/new_contract.sol\":6862:6866  hash */\n      dup1\n        /* \"contract/new_contract.sol\":6822:6830  registry */\n      0x00\n        /* \"contract/new_contract.sol\":6822:6842  registry[msg.sender] */\n      dup1\n        /* \"contract/new_contract.sol\":6831:6841  msg.sender */\n      caller\n        /* \"contract/new_contract.sol\":6822:6842  registry[msg.sender] */\n      0xffffffffffffffffffffffffffffffffffffffff\n      and\n      0xffffffffffffffffffffffffffffffffffffffff\n      and\n      dup2\n      mstore\n      0x20\n      add\n      swap1\n      dup2\n      mstore\n      0x20\n      add\n      0x00\n      keccak256\n        /* \"contract/new_contract.sol\":6822:6859  registry[msg.sender].registrationHash */\n      0x03\n      add\n        /* \"contract/new_contract.sol\":6822:6866  registry[msg.sender].registrationHash = hash */\n      dup2\n      swap1\n      sstore\n      pop\n        /* \"contract/new_contract.sol\":6889:6899  msg.sender */\n      caller\n        /* \"contract/new_contract.sol\":6878:6906  Registered(msg.sender, hash) */\n      0xffffffffffffffffffffffffffffffffffffffff\n      and\n      0xb8142d42f05d95abf0a6570799774d59276e49ea32a04d9a4ec316ea4a6886bc\n        /* \"contract/new_contract.sol\":6901:6905  hash */\n      dup3\n        /* \"contract/new_contract.sol\":6878:6906  Registered(msg.sender, hash) */\n      mload(0x40)\n      tag_212\n      swap2\n      swap1\n      tag_213\n      jump\t// in\n    tag_212:\n      mload(0x40)\n      dup1\n      swap2\n      sub\n      swap1\n      log2\n        /* \"contract/new_contract.sol\":6772:6910  function registerHash(bytes32 hash) public {... */\n      pop\n      jump\t// out\n        /* \"contract/new_contract.sol\":1718:1805  function symbol() public view returns (string memory) {... */\n    tag_107:\n        /* \"contract/new_contract.sol\":1757:1770  string memory */\n      0x60\n        /* \"contract/new_contract.sol\":1790:1797  _symbol */\n      0x05\n        /* \"contract/new_contract.sol\":1783:1797  return _symbol */\n      dup1\n      sload\n      tag_215\n      swap1\n      tag_140\n      jump\t// in\n    tag_215:\n      dup1\n      0x1f\n      add\n      0x20\n      dup1\n      swap2\n      div\n      mul\n      0x20\n      add\n      mload(0x40)\n      swap1\n      dup2\n      add\n      0x40\n      mstore\n      dup1\n      swap3\n      swap2\n      swap1\n      dup2\n      dup2\n      mstore\n      0x20\n      add\n      dup3\n      dup1\n      sload\n      tag_216\n      swap1\n      tag_140\n      jump\t// in\n    tag_216:\n      dup1\n      iszero\n      tag_217\n      jumpi\n      dup1\n      0x1f\n      lt\n      tag_218\n      jumpi\n      0x0100\n      dup1\n      dup4\n      sload\n      div\n      mul\n      dup4\n      mstore\n      swap2\n      0x20\n      add\n      swap2\n      jump(tag_217)\n    tag_218:\n      dup3\n      add\n      swap2\n      swap1\n      0x00\n      mstore\n      keccak256(0x00, 0x20)\n      swap1\n    tag_219:\n      dup2\n      sload\n      dup2\n      mstore\n      swap1\n      0x01\n      add\n      swap1\n      0x20\n      add\n      dup1\n      dup4\n      gt\n      tag_219\n      jumpi\n      dup3\n      swap1\n      sub\n      0x1f\n      and\n      dup3\n      add\n      swap2\n    tag_217:\n      pop\n      pop\n      pop\n      pop\n      pop\n      swap1\n      pop\n        /* \"contract/new_contract.sol\":1718:1805  function symbol() public view returns (string memory) {... */\n      swap1\n      jump\t// out\n        /* \"contract/new_contract.sol\":4690:5082  function decreaseAllowance(address spender, uint256 subtractedValue) public returns (bool) {... */\n    tag_112:\n        /* \"contract/new_contract.sol\":4775:4779  bool */\n      0x00\n        /* \"contract/new_contract.sol\":4788:4801  address owner */\n      dup1\n        /* \"contract/new_contract.sol\":4804:4814  msg.sender */\n      caller\n        /* \"contract/new_contract.sol\":4788:4814  address owner = msg.sender */\n      swap1\n      pop\n        /* \"contract/new_contract.sol\":4821:4845  uint256 currentAllowance */\n      0x00\n        /* \"contract/new_contract.sol\":4848:4873  allowance(owner, spender) */\n      tag_221\n        /* \"contract/new_contract.sol\":4858:4863  owner */\n      dup3\n        /* \"contract/new_contract.sol\":4865:4872  spender */\n      dup7\n        /* \"contract/new_contract.sol\":4848:4857  allowance */\n      tag_131\n        /* \"contract/new_contract.sol\":4848:4873  allowance(owner, spender) */\n      jump\t// in\n    tag_221:\n        /* \"contract/new_contract.sol\":4821:4873  uint256 currentAllowance = allowance(owner, spender) */\n      swap1\n      pop\n        /* \"contract/new_contract.sol\":4908:4923  subtractedValue */\n      dup4\n        /* \"contract/new_contract.sol\":4888:4904  currentAllowance */\n      dup2\n        /* \"contract/new_contract.sol\":4888:4923  currentAllowance >= subtractedValue */\n      lt\n      iszero\n        /* \"contract/new_contract.sol\":4880:4965  require(currentAllowance >= subtractedValue, \"ERC20: decreased allowance below zero\") */\n      tag_222\n      jumpi\n      mload(0x40)\n      0x08c379a000000000000000000000000000000000000000000000000000000000\n      dup2\n      mstore\n      0x04\n      add\n      tag_223\n      swap1\n      tag_224\n      jump\t// in\n    tag_223:\n      mload(0x40)\n      dup1\n      swap2\n      sub\n      swap1\n      revert\n    tag_222:\n        /* \"contract/new_contract.sol\":4993:5053  _approve(owner, spender, currentAllowance - subtractedValue) */\n      tag_225\n        /* \"contract/new_contract.sol\":5002:5007  owner */\n      dup3\n        /* \"contract/new_contract.sol\":5009:5016  spender */\n      dup7\n        /* \"contract/new_contract.sol\":5037:5052  subtractedValue */\n      dup7\n        /* \"contract/new_contract.sol\":5018:5034  currentAllowance */\n      dup5\n        /* \"contract/new_contract.sol\":5018:5052  currentAllowance - subtractedValue */\n      sub\n        /* \"contract/new_contract.sol\":4993:5001  _approve */\n      tag_147\n        /* \"contract/new_contract.sol\":4993:5053  _approve(owner, spender, currentAllowance - subtractedValue) */\n      jump\t// in\n    tag_225:\n        /* \"contract/new_contract.sol\":5074:5078  true */\n      0x01\n        /* \"contract/new_contract.sol\":5067:5078  return true */\n      swap3\n      pop\n      pop\n      pop\n        /* \"contract/new_contract.sol\":4690:5082  function decreaseAllowance(address spender, uint256 subtractedValue) public returns (bool) {... */\n      swap3\n      swap2\n      pop\n      pop\n      jump\t// out\n        /* \"contract/new_contract.sol\":2437:3747  function transfer(address to, uint256 amount) public whenUnpaused returns (bool) {... */\n    tag_117:\n        /* \"contract/new_contract.sol\":2512:2516  bool */\n      0x00\n        /* \"contract/new_contract.sol\":1070:1076  paused */\n      0x03\n      0x00\n      swap1\n      sload\n      swap1\n      0x0100\n      exp\n      swap1\n      div\n      0xff\n      and\n        /* \"contract/new_contract.sol\":1062:1107  require(paused, \"ERC20: token is not paused\") */\n      tag_227\n      jumpi\n      mload(0x40)\n      0x08c379a000000000000000000000000000000000000000000000000000000000\n      dup2\n      mstore\n      0x04\n      add\n      tag_228\n      swap1\n      tag_152\n      jump\t// in\n    tag_228:\n      mload(0x40)\n      dup1\n      swap2\n      sub\n      swap1\n      revert\n    tag_227:\n        /* \"contract/new_contract.sol\":2547:2555  registry */\n      0x00\n        /* \"contract/new_contract.sol\":2547:2567  registry[msg.sender] */\n      dup1\n        /* \"contract/new_contract.sol\":2556:2566  msg.sender */\n      caller\n        /* \"contract/new_contract.sol\":2547:2567  registry[msg.sender] */\n      0xffffffffffffffffffffffffffffffffffffffff\n      and\n      0xffffffffffffffffffffffffffffffffffffffff\n      and\n      dup2\n      mstore\n      0x20\n      add\n      swap1\n      dup2\n      mstore\n      0x20\n      add\n      0x00\n      keccak256\n        /* \"contract/new_contract.sol\":2547:2580  registry[msg.sender].tokenBalance */\n      0x00\n      add\n      sload\n        /* \"contract/new_contract.sol\":2537:2543  amount */\n      dup3\n        /* \"contract/new_contract.sol\":2537:2580  amount <= registry[msg.sender].tokenBalance */\n      gt\n      iszero\n        /* \"contract/new_contract.sol\":2529:2612  require(amount <= registry[msg.sender].tokenBalance, \"Token balance is not enough\") */\n      tag_230\n      jumpi\n      mload(0x40)\n      0x08c379a000000000000000000000000000000000000000000000000000000000\n      dup2\n      mstore\n      0x04\n      add\n      tag_231\n      swap1\n      tag_232\n      jump\t// in\n    tag_231:\n      mload(0x40)\n      dup1\n      swap2\n      sub\n      swap1\n      revert\n    tag_230:\n        /* \"contract/new_contract.sol\":2623:2637  uint256 shares */\n      0x00\n        /* \"contract/new_contract.sol\":519:526  1 ether */\n      0x0de0b6b3a7640000\n        /* \"contract/new_contract.sol\":2640:2646  amount */\n      dup4\n        /* \"contract/new_contract.sol\":2640:2658  amount / ONE_SHARE */\n      tag_233\n      swap2\n      swap1\n      tag_234\n      jump\t// in\n    tag_233:\n        /* \"contract/new_contract.sol\":2623:2658  uint256 shares = amount / ONE_SHARE */\n      swap1\n      pop\n        /* \"contract/new_contract.sol\":2669:2686  uint256 fractions */\n      0x00\n        /* \"contract/new_contract.sol\":519:526  1 ether */\n      0x0de0b6b3a7640000\n        /* \"contract/new_contract.sol\":2689:2695  amount */\n      dup5\n        /* \"contract/new_contract.sol\":2689:2707  amount % ONE_SHARE */\n      tag_235\n      swap2\n      swap1\n      tag_236\n      jump\t// in\n    tag_235:\n        /* \"contract/new_contract.sol\":2669:2707  uint256 fractions = amount % ONE_SHARE */\n      swap1\n      pop\n        /* \"contract/new_contract.sol\":2736:2744  registry */\n      0x00\n        /* \"contract/new_contract.sol\":2736:2756  registry[msg.sender] */\n      dup1\n        /* \"contract/new_contract.sol\":2745:2755  msg.sender */\n      caller\n        /* \"contract/new_contract.sol\":2736:2756  registry[msg.sender] */\n      0xffffffffffffffffffffffffffffffffffffffff\n      and\n      0xffffffffffffffffffffffffffffffffffffffff\n      and\n      dup2\n      mstore\n      0x20\n      add\n      swap1\n      dup2\n      mstore\n      0x20\n      add\n      0x00\n      keccak256\n        /* \"contract/new_contract.sol\":2736:2785  registry[msg.sender].fractionalPartOfTokenBalance */\n      0x02\n      add\n      sload\n        /* \"contract/new_contract.sol\":2724:2733  fractions */\n      dup2\n        /* \"contract/new_contract.sol\":2724:2785  fractions > registry[msg.sender].fractionalPartOfTokenBalance */\n      gt\n        /* \"contract/new_contract.sol\":2720:3061  if (fractions > registry[msg.sender].fractionalPartOfTokenBalance) {... */\n      iszero\n      tag_237\n      jumpi\n        /* \"contract/new_contract.sol\":2839:2840  1 */\n      0x01\n        /* \"contract/new_contract.sol\":2802:2810  registry */\n      0x00\n        /* \"contract/new_contract.sol\":2802:2822  registry[msg.sender] */\n      dup1\n        /* \"contract/new_contract.sol\":2811:2821  msg.sender */\n      caller\n        /* \"contract/new_contract.sol\":2802:2822  registry[msg.sender] */\n      0xffffffffffffffffffffffffffffffffffffffff\n      and\n      0xffffffffffffffffffffffffffffffffffffffff\n      and\n      dup2\n      mstore\n      0x20\n      add\n      swap1\n      dup2\n      mstore\n      0x20\n      add\n      0x00\n      keccak256\n        /* \"contract/new_contract.sol\":2802:2835  registry[msg.sender].shareBalance */\n      0x01\n      add\n      0x00\n        /* \"contract/new_contract.sol\":2802:2840  registry[msg.sender].shareBalance -= 1 */\n      dup3\n      dup3\n      sload\n      tag_238\n      swap2\n      swap1\n      tag_239\n      jump\t// in\n    tag_238:\n      swap3\n      pop\n      pop\n      dup2\n      swap1\n      sstore\n      pop\n        /* \"contract/new_contract.sol\":2893:2894  1 */\n      0x01\n        /* \"contract/new_contract.sol\":2855:2863  registry */\n      0x00\n        /* \"contract/new_contract.sol\":2855:2876  registry[corporation] */\n      dup1\n        /* \"contract/new_contract.sol\":2864:2875  corporation */\n      0x06\n      0x00\n      swap1\n      sload\n      swap1\n      0x0100\n      exp\n      swap1\n      div\n      0xffffffffffffffffffffffffffffffffffffffff\n      and\n        /* \"contract/new_contract.sol\":2855:2876  registry[corporation] */\n      0xffffffffffffffffffffffffffffffffffffffff\n      and\n      0xffffffffffffffffffffffffffffffffffffffff\n      and\n      dup2\n      mstore\n      0x20\n      add\n      swap1\n      dup2\n      mstore\n      0x20\n      add\n      0x00\n      keccak256\n        /* \"contract/new_contract.sol\":2855:2889  registry[corporation].shareBalance */\n      0x01\n      add\n      0x00\n        /* \"contract/new_contract.sol\":2855:2894  registry[corporation].shareBalance += 1 */\n      dup3\n      dup3\n      sload\n      tag_240\n      swap2\n      swap1\n      tag_166\n      jump\t// in\n    tag_240:\n      swap3\n      pop\n      pop\n      dup2\n      swap1\n      sstore\n      pop\n        /* \"contract/new_contract.sol\":519:526  1 ether */\n      0x0de0b6b3a7640000\n        /* \"contract/new_contract.sol\":2909:2917  registry */\n      0x00\n        /* \"contract/new_contract.sol\":2909:2929  registry[msg.sender] */\n      dup1\n        /* \"contract/new_contract.sol\":2918:2928  msg.sender */\n      caller\n        /* \"contract/new_contract.sol\":2909:2929  registry[msg.sender] */\n      0xffffffffffffffffffffffffffffffffffffffff\n      and\n      0xffffffffffffffffffffffffffffffffffffffff\n      and\n      dup2\n      mstore\n      0x20\n      add\n      swap1\n      dup2\n      mstore\n      0x20\n      add\n      0x00\n      keccak256\n        /* \"contract/new_contract.sol\":2909:2958  registry[msg.sender].fractionalPartOfTokenBalance */\n      0x02\n      add\n      0x00\n        /* \"contract/new_contract.sol\":2909:2971  registry[msg.sender].fractionalPartOfTokenBalance += ONE_SHARE */\n      dup3\n      dup3\n      sload\n      tag_241\n      swap2\n      swap1\n      tag_166\n      jump\t// in\n    tag_241:\n      swap3\n      pop\n      pop\n      dup2\n      swap1\n      sstore\n      pop\n        /* \"contract/new_contract.sol\":519:526  1 ether */\n      0x0de0b6b3a7640000\n        /* \"contract/new_contract.sol\":2986:2994  registry */\n      0x00\n        /* \"contract/new_contract.sol\":2986:3007  registry[corporation] */\n      dup1\n        /* \"contract/new_contract.sol\":2995:3006  corporation */\n      0x06\n      0x00\n      swap1\n      sload\n      swap1\n      0x0100\n      exp\n      swap1\n      div\n      0xffffffffffffffffffffffffffffffffffffffff\n      and\n        /* \"contract/new_contract.sol\":2986:3007  registry[corporation] */\n      0xffffffffffffffffffffffffffffffffffffffff\n      and\n      0xffffffffffffffffffffffffffffffffffffffff\n      and\n      dup2\n      mstore\n      0x20\n      add\n      swap1\n      dup2\n      mstore\n      0x20\n      add\n      0x00\n      keccak256\n        /* \"contract/new_contract.sol\":2986:3036  registry[corporation].fractionalPartOfTokenBalance */\n      0x02\n      add\n      0x00\n        /* \"contract/new_contract.sol\":2986:3049  registry[corporation].fractionalPartOfTokenBalance -= ONE_SHARE */\n      dup3\n      dup3\n      sload\n      tag_242\n      swap2\n      swap1\n      tag_239\n      jump\t// in\n    tag_242:\n      swap3\n      pop\n      pop\n      dup2\n      swap1\n      sstore\n      pop\n        /* \"contract/new_contract.sol\":2720:3061  if (fractions > registry[msg.sender].fractionalPartOfTokenBalance) {... */\n    tag_237:\n        /* \"contract/new_contract.sol\":3108:3114  shares */\n      dup2\n        /* \"contract/new_contract.sol\":3071:3079  registry */\n      0x00\n        /* \"contract/new_contract.sol\":3071:3091  registry[msg.sender] */\n      dup1\n        /* \"contract/new_contract.sol\":3080:3090  msg.sender */\n      caller\n        /* \"contract/new_contract.sol\":3071:3091  registry[msg.sender] */\n      0xffffffffffffffffffffffffffffffffffffffff\n      and\n      0xffffffffffffffffffffffffffffffffffffffff\n      and\n      dup2\n      mstore\n      0x20\n      add\n      swap1\n      dup2\n      mstore\n      0x20\n      add\n      0x00\n      keccak256\n        /* \"contract/new_contract.sol\":3071:3104  registry[msg.sender].shareBalance */\n      0x01\n      add\n      0x00\n        /* \"contract/new_contract.sol\":3071:3114  registry[msg.sender].shareBalance -= shares */\n      dup3\n      dup3\n      sload\n      tag_243\n      swap2\n      swap1\n      tag_239\n      jump\t// in\n    tag_243:\n      swap3\n      pop\n      pop\n      dup2\n      swap1\n      sstore\n      pop\n        /* \"contract/new_contract.sol\":3178:3187  fractions */\n      dup1\n        /* \"contract/new_contract.sol\":3125:3133  registry */\n      0x00\n        /* \"contract/new_contract.sol\":3125:3145  registry[msg.sender] */\n      dup1\n        /* \"contract/new_contract.sol\":3134:3144  msg.sender */\n      caller\n        /* \"contract/new_contract.sol\":3125:3145  registry[msg.sender] */\n      0xffffffffffffffffffffffffffffffffffffffff\n      and\n      0xffffffffffffffffffffffffffffffffffffffff\n      and\n      dup2\n      mstore\n      0x20\n      add\n      swap1\n      dup2\n      mstore\n      0x20\n      add\n      0x00\n      keccak256\n        /* \"contract/new_contract.sol\":3125:3174  registry[msg.sender].fractionalPartOfTokenBalance */\n      0x02\n      add\n      0x00\n        /* \"contract/new_contract.sol\":3125:3187  registry[msg.sender].fractionalPartOfTokenBalance -= fractions */\n      dup3\n      dup3\n      sload\n      tag_244\n      swap2\n      swap1\n      tag_239\n      jump\t// in\n    tag_244:\n      swap3\n      pop\n      pop\n      dup2\n      swap1\n      sstore\n      pop\n        /* \"contract/new_contract.sol\":3235:3241  amount */\n      dup4\n        /* \"contract/new_contract.sol\":3198:3206  registry */\n      0x00\n        /* \"contract/new_contract.sol\":3198:3218  registry[msg.sender] */\n      dup1\n        /* \"contract/new_contract.sol\":3207:3217  msg.sender */\n      caller\n        /* \"contract/new_contract.sol\":3198:3218  registry[msg.sender] */\n      0xffffffffffffffffffffffffffffffffffffffff\n      and\n      0xffffffffffffffffffffffffffffffffffffffff\n      and\n      dup2\n      mstore\n      0x20\n      add\n      swap1\n      dup2\n      mstore\n      0x20\n      add\n      0x00\n      keccak256\n        /* \"contract/new_contract.sol\":3198:3231  registry[msg.sender].tokenBalance */\n      0x00\n      add\n      0x00\n        /* \"contract/new_contract.sol\":3198:3241  registry[msg.sender].tokenBalance -= amount */\n      dup3\n      dup3\n      sload\n      tag_245\n      swap2\n      swap1\n      tag_239\n      jump\t// in\n    tag_245:\n      swap3\n      pop\n      pop\n      dup2\n      swap1\n      sstore\n      pop\n        /* \"contract/new_contract.sol\":3270:3278  registry */\n      0x00\n        /* \"contract/new_contract.sol\":3270:3282  registry[to] */\n      dup1\n        /* \"contract/new_contract.sol\":3279:3281  to */\n      dup7\n        /* \"contract/new_contract.sol\":3270:3282  registry[to] */\n      0xffffffffffffffffffffffffffffffffffffffff\n      and\n      0xffffffffffffffffffffffffffffffffffffffff\n      and\n      dup2\n      mstore\n      0x20\n      add\n      swap1\n      dup2\n      mstore\n      0x20\n      add\n      0x00\n      keccak256\n        /* \"contract/new_contract.sol\":3270:3311  registry[to].fractionalPartOfTokenBalance */\n      0x02\n      add\n      sload\n        /* \"contract/new_contract.sol\":3258:3267  fractions */\n      dup2\n        /* \"contract/new_contract.sol\":3258:3311  fractions < registry[to].fractionalPartOfTokenBalance */\n      lt\n        /* \"contract/new_contract.sol\":3254:3567  if (fractions < registry[to].fractionalPartOfTokenBalance) {... */\n      iszero\n      tag_246\n      jumpi\n        /* \"contract/new_contract.sol\":3357:3358  1 */\n      0x01\n        /* \"contract/new_contract.sol\":3328:3336  registry */\n      0x00\n        /* \"contract/new_contract.sol\":3328:3340  registry[to] */\n      dup1\n        /* \"contract/new_contract.sol\":3337:3339  to */\n      dup8\n        /* \"contract/new_contract.sol\":3328:3340  registry[to] */\n      0xffffffffffffffffffffffffffffffffffffffff\n      and\n      0xffffffffffffffffffffffffffffffffffffffff\n      and\n      dup2\n      mstore\n      0x20\n      add\n      swap1\n      dup2\n      mstore\n      0x20\n      add\n      0x00\n      keccak256\n        /* \"contract/new_contract.sol\":3328:3353  registry[to].shareBalance */\n      0x01\n      add\n      0x00\n        /* \"contract/new_contract.sol\":3328:3358  registry[to].shareBalance += 1 */\n      dup3\n      dup3\n      sload\n      tag_247\n      swap2\n      swap1\n      tag_166\n      jump\t// in\n    tag_247:\n      swap3\n      pop\n      pop\n      dup2\n      swap1\n      sstore\n      pop\n        /* \"contract/new_contract.sol\":3411:3412  1 */\n      0x01\n        /* \"contract/new_contract.sol\":3373:3381  registry */\n      0x00\n        /* \"contract/new_contract.sol\":3373:3394  registry[corporation] */\n      dup1\n        /* \"contract/new_contract.sol\":3382:3393  corporation */\n      0x06\n      0x00\n      swap1\n      sload\n      swap1\n      0x0100\n      exp\n      swap1\n      div\n      0xffffffffffffffffffffffffffffffffffffffff\n      and\n        /* \"contract/new_contract.sol\":3373:3394  registry[corporation] */\n      0xffffffffffffffffffffffffffffffffffffffff\n      and\n      0xffffffffffffffffffffffffffffffffffffffff\n      and\n      dup2\n      mstore\n      0x20\n      add\n      swap1\n      dup2\n      mstore\n      0x20\n      add\n      0x00\n      keccak256\n        /* \"contract/new_contract.sol\":3373:3407  registry[corporation].shareBalance */\n      0x01\n      add\n      0x00\n        /* \"contract/new_contract.sol\":3373:3412  registry[corporation].shareBalance -= 1 */\n      dup3\n      dup3\n      sload\n      tag_248\n      swap2\n      swap1\n      tag_239\n      jump\t// in\n    tag_248:\n      swap3\n      pop\n      pop\n      dup2\n      swap1\n      sstore\n      pop\n        /* \"contract/new_contract.sol\":519:526  1 ether */\n      0x0de0b6b3a7640000\n        /* \"contract/new_contract.sol\":3427:3435  registry */\n      0x00\n        /* \"contract/new_contract.sol\":3427:3439  registry[to] */\n      dup1\n        /* \"contract/new_contract.sol\":3436:3438  to */\n      dup8\n        /* \"contract/new_contract.sol\":3427:3439  registry[to] */\n      0xffffffffffffffffffffffffffffffffffffffff\n      and\n      0xffffffffffffffffffffffffffffffffffffffff\n      and\n      dup2\n      mstore\n      0x20\n      add\n      swap1\n      dup2\n      mstore\n      0x20\n      add\n      0x00\n      keccak256\n        /* \"contract/new_contract.sol\":3427:3468  registry[to].fractionalPartOfTokenBalance */\n      0x02\n      add\n      0x00\n        /* \"contract/new_contract.sol\":3427:3481  registry[to].fractionalPartOfTokenBalance -= ONE_SHARE */\n      dup3\n      dup3\n      sload\n      tag_249\n      swap2\n      swap1\n      tag_239\n      jump\t// in\n    tag_249:\n      swap3\n      pop\n      pop\n      dup2\n      swap1\n      sstore\n      pop\n        /* \"contract/new_contract.sol\":519:526  1 ether */\n      0x0de0b6b3a7640000\n        /* \"contract/new_contract.sol\":3496:3504  registry */\n      0x00\n        /* \"contract/new_contract.sol\":3496:3517  registry[corporation] */\n      dup1\n        /* \"contract/new_contract.sol\":3505:3516  corporation */\n      0x06\n      0x00\n      swap1\n      sload\n      swap1\n      0x0100\n      exp\n      swap1\n      div\n      0xffffffffffffffffffffffffffffffffffffffff\n      and\n        /* \"contract/new_contract.sol\":3496:3517  registry[corporation] */\n      0xffffffffffffffffffffffffffffffffffffffff\n      and\n      0xffffffffffffffffffffffffffffffffffffffff\n      and\n      dup2\n      mstore\n      0x20\n      add\n      swap1\n      dup2\n      mstore\n      0x20\n      add\n      0x00\n      keccak256\n        /* \"contract/new_contract.sol\":3496:3546  registry[corporation].fractionalPartOfTokenBalance */\n      0x02\n      add\n      0x00\n        /* \"contract/new_contract.sol\":3496:3559  registry[corporation].fractionalPartOfTokenBalance += ONE_SHARE */\n      dup3\n      dup3\n      sload\n      tag_250\n      swap2\n      swap1\n      tag_166\n      jump\t// in\n    tag_250:\n      swap3\n      pop\n      pop\n      dup2\n      swap1\n      sstore\n      pop\n        /* \"contract/new_contract.sol\":3254:3567  if (fractions < registry[to].fractionalPartOfTokenBalance) {... */\n    tag_246:\n        /* \"contract/new_contract.sol\":3606:3612  shares */\n      dup2\n        /* \"contract/new_contract.sol\":3577:3585  registry */\n      0x00\n        /* \"contract/new_contract.sol\":3577:3589  registry[to] */\n      dup1\n        /* \"contract/new_contract.sol\":3586:3588  to */\n      dup8\n        /* \"contract/new_contract.sol\":3577:3589  registry[to] */\n      0xffffffffffffffffffffffffffffffffffffffff\n      and\n      0xffffffffffffffffffffffffffffffffffffffff\n      and\n      dup2\n      mstore\n      0x20\n      add\n      swap1\n      dup2\n      mstore\n      0x20\n      add\n      0x00\n      keccak256\n        /* \"contract/new_contract.sol\":3577:3602  registry[to].shareBalance */\n      0x01\n      add\n      0x00\n        /* \"contract/new_contract.sol\":3577:3612  registry[to].shareBalance += shares */\n      dup3\n      dup3\n      sload\n      tag_251\n      swap2\n      swap1\n      tag_166\n      jump\t// in\n    tag_251:\n      swap3\n      pop\n      pop\n      dup2\n      swap1\n      sstore\n      pop\n        /* \"contract/new_contract.sol\":3668:3677  fractions */\n      dup1\n        /* \"contract/new_contract.sol\":3623:3631  registry */\n      0x00\n        /* \"contract/new_contract.sol\":3623:3635  registry[to] */\n      dup1\n        /* \"contract/new_contract.sol\":3632:3634  to */\n      dup8\n        /* \"contract/new_contract.sol\":3623:3635  registry[to] */\n      0xffffffffffffffffffffffffffffffffffffffff\n      and\n      0xffffffffffffffffffffffffffffffffffffffff\n      and\n      dup2\n      mstore\n      0x20\n      add\n      swap1\n      dup2\n      mstore\n      0x20\n      add\n      0x00\n      keccak256\n        /* \"contract/new_contract.sol\":3623:3664  registry[to].fractionalPartOfTokenBalance */\n      0x02\n      add\n      0x00\n        /* \"contract/new_contract.sol\":3623:3677  registry[to].fractionalPartOfTokenBalance += fractions */\n      dup3\n      dup3\n      sload\n      tag_252\n      swap2\n      swap1\n      tag_166\n      jump\t// in\n    tag_252:\n      swap3\n      pop\n      pop\n      dup2\n      swap1\n      sstore\n      pop\n        /* \"contract/new_contract.sol\":3717:3723  amount */\n      dup4\n        /* \"contract/new_contract.sol\":3688:3696  registry */\n      0x00\n        /* \"contract/new_contract.sol\":3688:3700  registry[to] */\n      dup1\n        /* \"contract/new_contract.sol\":3697:3699  to */\n      dup8\n        /* \"contract/new_contract.sol\":3688:3700  registry[to] */\n      0xffffffffffffffffffffffffffffffffffffffff\n      and\n      0xffffffffffffffffffffffffffffffffffffffff\n      and\n      dup2\n      mstore\n      0x20\n      add\n      swap1\n      dup2\n      mstore\n      0x20\n      add\n      0x00\n      keccak256\n        /* \"contract/new_contract.sol\":3688:3713  registry[to].tokenBalance */\n      0x00\n      add\n      0x00\n        /* \"contract/new_contract.sol\":3688:3723  registry[to].tokenBalance += amount */\n      dup3\n      dup3\n      sload\n      tag_253\n      swap2\n      swap1\n      tag_166\n      jump\t// in\n    tag_253:\n      swap3\n      pop\n      pop\n      dup2\n      swap1\n      sstore\n      pop\n        /* \"contract/new_contract.sol\":3739:3743  true */\n      0x01\n        /* \"contract/new_contract.sol\":3732:3743  return true */\n      swap3\n      pop\n      pop\n      pop\n        /* \"contract/new_contract.sol\":2437:3747  function transfer(address to, uint256 amount) public whenUnpaused returns (bool) {... */\n      swap3\n      swap2\n      pop\n      pop\n      jump\t// out\n        /* \"contract/new_contract.sol\":483:526  uint256 public constant ONE_SHARE = 1 ether */\n    tag_121:\n        /* \"contract/new_contract.sol\":519:526  1 ether */\n      0x0de0b6b3a7640000\n        /* \"contract/new_contract.sol\":483:526  uint256 public constant ONE_SHARE = 1 ether */\n      dup2\n      jump\t// out\n        /* \"contract/new_contract.sol\":2261:2429  function fractionalShareBalanceOf(address account) public view virtual returns (uint256) {... */\n    tag_126:\n        /* \"contract/new_contract.sol\":2341:2348  uint256 */\n      0x00\n        /* \"contract/new_contract.sol\":2368:2376  registry */\n      dup1\n        /* \"contract/new_contract.sol\":2368:2385  registry[account] */\n      0x00\n        /* \"contract/new_contract.sol\":2377:2384  account */\n      dup4\n        /* \"contract/new_contract.sol\":2368:2385  registry[account] */\n      0xffffffffffffffffffffffffffffffffffffffff\n      and\n      0xffffffffffffffffffffffffffffffffffffffff\n      and\n      dup2\n      mstore\n      0x20\n      add\n      swap1\n      dup2\n      mstore\n      0x20\n      add\n      0x00\n      keccak256\n        /* \"contract/new_contract.sol\":2368:2414  registry[account].fractionalPartOfTokenBalance */\n      0x02\n      add\n      sload\n        /* \"contract/new_contract.sol\":2361:2414  return registry[account].fractionalPartOfTokenBalance */\n      swap1\n      pop\n        /* \"contract/new_contract.sol\":2261:2429  function fractionalShareBalanceOf(address account) public view virtual returns (uint256) {... */\n      swap2\n      swap1\n      pop\n      jump\t// out\n        /* \"contract/new_contract.sol\":3751:3877  function allowance(address owner, address spender) public view returns (uint256) {... */\n    tag_131:\n        /* \"contract/new_contract.sol\":3823:3830  uint256 */\n      0x00\n        /* \"contract/new_contract.sol\":3846:3857  _allowances */\n      0x01\n        /* \"contract/new_contract.sol\":3846:3864  _allowances[owner] */\n      0x00\n        /* \"contract/new_contract.sol\":3858:3863  owner */\n      dup5\n        /* \"contract/new_contract.sol\":3846:3864  _allowances[owner] */\n      0xffffffffffffffffffffffffffffffffffffffff\n      and\n      0xffffffffffffffffffffffffffffffffffffffff\n      and\n      dup2\n      mstore\n      0x20\n      add\n      swap1\n      dup2\n      mstore\n      0x20\n      add\n      0x00\n      keccak256\n        /* \"contract/new_contract.sol\":3846:3873  _allowances[owner][spender] */\n      0x00\n        /* \"contract/new_contract.sol\":3865:3872  spender */\n      dup4\n        /* \"contract/new_contract.sol\":3846:3873  _allowances[owner][spender] */\n      0xffffffffffffffffffffffffffffffffffffffff\n      and\n      0xffffffffffffffffffffffffffffffffffffffff\n      and\n      dup2\n      mstore\n      0x20\n      add\n      swap1\n      dup2\n      mstore\n      0x20\n      add\n      0x00\n      keccak256\n      sload\n        /* \"contract/new_contract.sol\":3839:3873  return _allowances[owner][spender] */\n      swap1\n      pop\n        /* \"contract/new_contract.sol\":3751:3877  function allowance(address owner, address spender) public view returns (uint256) {... */\n      swap3\n      swap2\n      pop\n      pop\n      jump\t// out\n        /* \"contract/new_contract.sol\":645:671  address public corporation */\n    tag_135:\n      0x06\n      0x00\n      swap1\n      sload\n      swap1\n      0x0100\n      exp\n      swap1\n      div\n      0xffffffffffffffffffffffffffffffffffffffff\n      and\n      dup2\n      jump\t// out\n        /* \"contract/new_contract.sol\":5987:6313  function _approve(address owner, address spender, uint256 amount) internal virtual {... */\n    tag_147:\n        /* \"contract/new_contract.sol\":6102:6103  0 */\n      0x00\n        /* \"contract/new_contract.sol\":6085:6104  owner != address(0) */\n      0xffffffffffffffffffffffffffffffffffffffff\n      and\n        /* \"contract/new_contract.sol\":6085:6090  owner */\n      dup4\n        /* \"contract/new_contract.sol\":6085:6104  owner != address(0) */\n      0xffffffffffffffffffffffffffffffffffffffff\n      and\n      sub\n        /* \"contract/new_contract.sol\":6077:6145  require(owner != address(0), \"ERC20: approve from the zero address\") */\n      tag_257\n      jumpi\n      mload(0x40)\n      0x08c379a000000000000000000000000000000000000000000000000000000000\n      dup2\n      mstore\n      0x04\n      add\n      tag_258\n      swap1\n      tag_259\n      jump\t// in\n    tag_258:\n      mload(0x40)\n      dup1\n      swap2\n      sub\n      swap1\n      revert\n    tag_257:\n        /* \"contract/new_contract.sol\":6179:6180  0 */\n      0x00\n        /* \"contract/new_contract.sol\":6160:6181  spender != address(0) */\n      0xffffffffffffffffffffffffffffffffffffffff\n      and\n        /* \"contract/new_contract.sol\":6160:6167  spender */\n      dup3\n        /* \"contract/new_contract.sol\":6160:6181  spender != address(0) */\n      0xffffffffffffffffffffffffffffffffffffffff\n      and\n      sub\n        /* \"contract/new_contract.sol\":6152:6220  require(spender != address(0), \"ERC20: approve to the zero address\") */\n      tag_260\n      jumpi\n      mload(0x40)\n      0x08c379a000000000000000000000000000000000000000000000000000000000\n      dup2\n      mstore\n      0x04\n      add\n      tag_261\n      swap1\n      tag_262\n      jump\t// in\n    tag_261:\n      mload(0x40)\n      dup1\n      swap2\n      sub\n      swap1\n      revert\n    tag_260:\n        /* \"contract/new_contract.sol\":6259:6265  amount */\n      dup1\n        /* \"contract/new_contract.sol\":6229:6240  _allowances */\n      0x01\n        /* \"contract/new_contract.sol\":6229:6247  _allowances[owner] */\n      0x00\n        /* \"contract/new_contract.sol\":6241:6246  owner */\n      dup6\n        /* \"contract/new_contract.sol\":6229:6247  _allowances[owner] */\n      0xffffffffffffffffffffffffffffffffffffffff\n      and\n      0xffffffffffffffffffffffffffffffffffffffff\n      and\n      dup2\n      mstore\n      0x20\n      add\n      swap1\n      dup2\n      mstore\n      0x20\n      add\n      0x00\n      keccak256\n        /* \"contract/new_contract.sol\":6229:6256  _allowances[owner][spender] */\n      0x00\n        /* \"contract/new_contract.sol\":6248:6255  spender */\n      dup5\n        /* \"contract/new_contract.sol\":6229:6256  _allowances[owner][spender] */\n      0xffffffffffffffffffffffffffffffffffffffff\n      and\n      0xffffffffffffffffffffffffffffffffffffffff\n      and\n      dup2\n      mstore\n      0x20\n      add\n      swap1\n      dup2\n      mstore\n      0x20\n      add\n      0x00\n      keccak256\n        /* \"contract/new_contract.sol\":6229:6265  _allowances[owner][spender] = amount */\n      dup2\n      swap1\n      sstore\n      pop\n        /* \"contract/new_contract.sol\":6293:6300  spender */\n      dup2\n        /* \"contract/new_contract.sol\":6277:6309  Approval(owner, spender, amount) */\n      0xffffffffffffffffffffffffffffffffffffffff\n      and\n        /* \"contract/new_contract.sol\":6286:6291  owner */\n      dup4\n        /* \"contract/new_contract.sol\":6277:6309  Approval(owner, spender, amount) */\n      0xffffffffffffffffffffffffffffffffffffffff\n      and\n      0x8c5be1e5ebec7d5bd14f71427d1e84f3dd0314c0f7b2291e5b200ac8c7c3b925\n        /* \"contract/new_contract.sol\":6302:6308  amount */\n      dup4\n        /* \"contract/new_contract.sol\":6277:6309  Approval(owner, spender, amount) */\n      mload(0x40)\n      tag_263\n      swap2\n      swap1\n      tag_51\n      jump\t// in\n    tag_263:\n      mload(0x40)\n      dup1\n      swap2\n      sub\n      swap1\n      log3\n        /* \"contract/new_contract.sol\":5987:6313  function _approve(address owner, address spender, uint256 amount) internal virtual {... */\n      pop\n      pop\n      pop\n      jump\t// out\n        /* \"contract/new_contract.sol\":6317:6768  function _transfer(address from, address to, uint256 amount) internal virtual {... */\n    tag_160:\n        /* \"contract/new_contract.sol\":6426:6427  0 */\n      0x00\n        /* \"contract/new_contract.sol\":6410:6428  from != address(0) */\n      0xffffffffffffffffffffffffffffffffffffffff\n      and\n        /* \"contract/new_contract.sol\":6410:6414  from */\n      dup4\n        /* \"contract/new_contract.sol\":6410:6428  from != address(0) */\n      0xffffffffffffffffffffffffffffffffffffffff\n      and\n      sub\n        /* \"contract/new_contract.sol\":6402:6470  require(from != address(0), \"ERC20: transfer from the zero address\") */\n      tag_265\n      jumpi\n      mload(0x40)\n      0x08c379a000000000000000000000000000000000000000000000000000000000\n      dup2\n      mstore\n      0x04\n      add\n      tag_266\n      swap1\n      tag_267\n      jump\t// in\n    tag_266:\n      mload(0x40)\n      dup1\n      swap2\n      sub\n      swap1\n      revert\n    tag_265:\n        /* \"contract/new_contract.sol\":6499:6500  0 */\n      0x00\n        /* \"contract/new_contract.sol\":6485:6501  to != address(0) */\n      0xffffffffffffffffffffffffffffffffffffffff\n      and\n        /* \"contract/new_contract.sol\":6485:6487  to */\n      dup3\n        /* \"contract/new_contract.sol\":6485:6501  to != address(0) */\n      0xffffffffffffffffffffffffffffffffffffffff\n      and\n      sub\n        /* \"contract/new_contract.sol\":6477:6541  require(to != address(0), \"ERC20: transfer to the zero address\") */\n      tag_268\n      jumpi\n      mload(0x40)\n      0x08c379a000000000000000000000000000000000000000000000000000000000\n      dup2\n      mstore\n      0x04\n      add\n      tag_269\n      swap1\n      tag_270\n      jump\t// in\n    tag_269:\n      mload(0x40)\n      dup1\n      swap2\n      sub\n      swap1\n      revert\n    tag_268:\n        /* \"contract/new_contract.sol\":6566:6574  registry */\n      0x00\n        /* \"contract/new_contract.sol\":6566:6580  registry[from] */\n      dup1\n        /* \"contract/new_contract.sol\":6575:6579  from */\n      dup5\n        /* \"contract/new_contract.sol\":6566:6580  registry[from] */\n      0xffffffffffffffffffffffffffffffffffffffff\n      and\n      0xffffffffffffffffffffffffffffffffffffffff\n      and\n      dup2\n      mstore\n      0x20\n      add\n      swap1\n      dup2\n      mstore\n      0x20\n      add\n      0x00\n      keccak256\n        /* \"contract/new_contract.sol\":6566:6593  registry[from].tokenBalance */\n      0x00\n      add\n      sload\n        /* \"contract/new_contract.sol\":6556:6562  amount */\n      dup2\n        /* \"contract/new_contract.sol\":6556:6593  amount <= registry[from].tokenBalance */\n      gt\n      iszero\n        /* \"contract/new_contract.sol\":6548:6636  require(amount <= registry[from].tokenBalance, \"ERC20: transfer amount exceeds balance\") */\n      tag_271\n      jumpi\n      mload(0x40)\n      0x08c379a000000000000000000000000000000000000000000000000000000000\n      dup2\n      mstore\n      0x04\n      add\n      tag_272\n      swap1\n      tag_273\n      jump\t// in\n    tag_272:\n      mload(0x40)\n      dup1\n      swap2\n      sub\n      swap1\n      revert\n    tag_271:\n        /* \"contract/new_contract.sol\":6676:6682  amount */\n      dup1\n        /* \"contract/new_contract.sol\":6645:6653  registry */\n      0x00\n        /* \"contract/new_contract.sol\":6645:6659  registry[from] */\n      dup1\n        /* \"contract/new_contract.sol\":6654:6658  from */\n      dup6\n        /* \"contract/new_contract.sol\":6645:6659  registry[from] */\n      0xffffffffffffffffffffffffffffffffffffffff\n      and\n      0xffffffffffffffffffffffffffffffffffffffff\n      and\n      dup2\n      mstore\n      0x20\n      add\n      swap1\n      dup2\n      mstore\n      0x20\n      add\n      0x00\n      keccak256\n        /* \"contract/new_contract.sol\":6645:6672  registry[from].tokenBalance */\n      0x00\n      add\n      0x00\n        /* \"contract/new_contract.sol\":6645:6682  registry[from].tokenBalance -= amount */\n      dup3\n      dup3\n      sload\n      tag_274\n      swap2\n      swap1\n      tag_239\n      jump\t// in\n    tag_274:\n      swap3\n      pop\n      pop\n      dup2\n      swap1\n      sstore\n      pop\n        /* \"contract/new_contract.sol\":6718:6724  amount */\n      dup1\n        /* \"contract/new_contract.sol\":6689:6697  registry */\n      0x00\n        /* \"contract/new_contract.sol\":6689:6701  registry[to] */\n      dup1\n        /* \"contract/new_contract.sol\":6698:6700  to */\n      dup5\n        /* \"contract/new_contract.sol\":6689:6701  registry[to] */\n      0xffffffffffffffffffffffffffffffffffffffff\n      and\n      0xffffffffffffffffffffffffffffffffffffffff\n      and\n      dup2\n      mstore\n      0x20\n      add\n      swap1\n      dup2\n      mstore\n      0x20\n      add\n      0x00\n      keccak256\n        /* \"contract/new_contract.sol\":6689:6714  registry[to].tokenBalance */\n      0x00\n      add\n      0x00\n        /* \"contract/new_contract.sol\":6689:6724  registry[to].tokenBalance += amount */\n      dup3\n      dup3\n      sload\n      tag_275\n      swap2\n      swap1\n      tag_166\n      jump\t// in\n    tag_275:\n      swap3\n      pop\n      pop\n      dup2\n      swap1\n      sstore\n      pop\n        /* \"contract/new_contract.sol\":6753:6755  to */\n      dup2\n        /* \"contract/new_contract.sol\":6738:6764  Transfer(from, to, amount) */\n      0xffffffffffffffffffffffffffffffffffffffff\n      and\n        /* \"contract/new_contract.sol\":6747:6751  from */\n      dup4\n        /* \"contract/new_contract.sol\":6738:6764  Transfer(from, to, amount) */\n      0xffffffffffffffffffffffffffffffffffffffff\n      and\n      0xddf252ad1be2c89b69c2b068fc378daa952ba7f163c4a11628f55a4df523b3ef\n        /* \"contract/new_contract.sol\":6757:6763  amount */\n      dup4\n        /* \"contract/new_contract.sol\":6738:6764  Transfer(from, to, amount) */\n      mload(0x40)\n      tag_276\n      swap2\n      swap1\n      tag_51\n      jump\t// in\n    tag_276:\n      mload(0x40)\n      dup1\n      swap2\n      sub\n      swap1\n      log3\n        /* \"contract/new_contract.sol\":6317:6768  function _transfer(address from, address to, uint256 amount) internal virtual {... */\n      pop\n      pop\n      pop\n      jump\t// out\n        /* \"#utility.yul\":88:205   */\n    tag_278:\n        /* \"#utility.yul\":197:198   */\n      0x00\n        /* \"#utility.yul\":194:195   */\n      dup1\n        /* \"#utility.yul\":187:199   */\n      revert\n        /* \"#utility.yul\":334:460   */\n    tag_280:\n        /* \"#utility.yul\":371:378   */\n      0x00\n        /* \"#utility.yul\":411:453   */\n      0xffffffffffffffffffffffffffffffffffffffff\n        /* \"#utility.yul\":404:409   */\n      dup3\n        /* \"#utility.yul\":400:454   */\n      and\n        /* \"#utility.yul\":389:454   */\n      swap1\n      pop\n        /* \"#utility.yul\":334:460   */\n      swap2\n      swap1\n      pop\n      jump\t// out\n        /* \"#utility.yul\":466:562   */\n    tag_281:\n        /* \"#utility.yul\":503:510   */\n      0x00\n        /* \"#utility.yul\":532:556   */\n      tag_343\n        /* \"#utility.yul\":550:555   */\n      dup3\n        /* \"#utility.yul\":532:556   */\n      tag_280\n      jump\t// in\n    tag_343:\n        /* \"#utility.yul\":521:556   */\n      swap1\n      pop\n        /* \"#utility.yul\":466:562   */\n      swap2\n      swap1\n      pop\n      jump\t// out\n        /* \"#utility.yul\":568:690   */\n    tag_282:\n        /* \"#utility.yul\":641:665   */\n      tag_345\n        /* \"#utility.yul\":659:664   */\n      dup2\n        /* \"#utility.yul\":641:665   */\n      tag_281\n      jump\t// in\n    tag_345:\n        /* \"#utility.yul\":634:639   */\n      dup2\n        /* \"#utility.yul\":631:666   */\n      eq\n        /* \"#utility.yul\":621:684   */\n      tag_346\n      jumpi\n        /* \"#utility.yul\":680:681   */\n      0x00\n        /* \"#utility.yul\":677:678   */\n      dup1\n        /* \"#utility.yul\":670:682   */\n      revert\n        /* \"#utility.yul\":621:684   */\n    tag_346:\n        /* \"#utility.yul\":568:690   */\n      pop\n      jump\t// out\n        /* \"#utility.yul\":696:835   */\n    tag_283:\n        /* \"#utility.yul\":742:747   */\n      0x00\n        /* \"#utility.yul\":780:786   */\n      dup2\n        /* \"#utility.yul\":767:787   */\n      calldataload\n        /* \"#utility.yul\":758:787   */\n      swap1\n      pop\n        /* \"#utility.yul\":796:829   */\n      tag_348\n        /* \"#utility.yul\":823:828   */\n      dup2\n        /* \"#utility.yul\":796:829   */\n      tag_282\n      jump\t// in\n    tag_348:\n        /* \"#utility.yul\":696:835   */\n      swap3\n      swap2\n      pop\n      pop\n      jump\t// out\n        /* \"#utility.yul\":841:1170   */\n    tag_31:\n        /* \"#utility.yul\":900:906   */\n      0x00\n        /* \"#utility.yul\":949:951   */\n      0x20\n        /* \"#utility.yul\":937:946   */\n      dup3\n        /* \"#utility.yul\":928:935   */\n      dup5\n        /* \"#utility.yul\":924:947   */\n      sub\n        /* \"#utility.yul\":920:952   */\n      slt\n        /* \"#utility.yul\":917:1036   */\n      iszero\n      tag_350\n      jumpi\n        /* \"#utility.yul\":955:1034   */\n      tag_351\n      tag_278\n      jump\t// in\n    tag_351:\n        /* \"#utility.yul\":917:1036   */\n    tag_350:\n        /* \"#utility.yul\":1075:1076   */\n      0x00\n        /* \"#utility.yul\":1100:1153   */\n      tag_352\n        /* \"#utility.yul\":1145:1152   */\n      dup5\n        /* \"#utility.yul\":1136:1142   */\n      dup3\n        /* \"#utility.yul\":1125:1134   */\n      dup6\n        /* \"#utility.yul\":1121:1143   */\n      add\n        /* \"#utility.yul\":1100:1153   */\n      tag_283\n      jump\t// in\n    tag_352:\n        /* \"#utility.yul\":1090:1153   */\n      swap2\n      pop\n        /* \"#utility.yul\":1046:1163   */\n      pop\n        /* \"#utility.yul\":841:1170   */\n      swap3\n      swap2\n      pop\n      pop\n      jump\t// out\n        /* \"#utility.yul\":1176:1253   */\n    tag_284:\n        /* \"#utility.yul\":1213:1220   */\n      0x00\n        /* \"#utility.yul\":1242:1247   */\n      dup2\n        /* \"#utility.yul\":1231:1247   */\n      swap1\n      pop\n        /* \"#utility.yul\":1176:1253   */\n      swap2\n      swap1\n      pop\n      jump\t// out\n        /* \"#utility.yul\":1259:1377   */\n    tag_285:\n        /* \"#utility.yul\":1346:1370   */\n      tag_355\n        /* \"#utility.yul\":1364:1369   */\n      dup2\n        /* \"#utility.yul\":1346:1370   */\n      tag_284\n      jump\t// in\n    tag_355:\n        /* \"#utility.yul\":1341:1344   */\n      dup3\n        /* \"#utility.yul\":1334:1371   */\n      mstore\n        /* \"#utility.yul\":1259:1377   */\n      pop\n      pop\n      jump\t// out\n        /* \"#utility.yul\":1383:1460   */\n    tag_286:\n        /* \"#utility.yul\":1420:1427   */\n      0x00\n        /* \"#utility.yul\":1449:1454   */\n      dup2\n        /* \"#utility.yul\":1438:1454   */\n      swap1\n      pop\n        /* \"#utility.yul\":1383:1460   */\n      swap2\n      swap1\n      pop\n      jump\t// out\n        /* \"#utility.yul\":1466:1584   */\n    tag_287:\n        /* \"#utility.yul\":1553:1577   */\n      tag_358\n        /* \"#utility.yul\":1571:1576   */\n      dup2\n        /* \"#utility.yul\":1553:1577   */\n      tag_286\n      jump\t// in\n    tag_358:\n        /* \"#utility.yul\":1548:1551   */\n      dup3\n        /* \"#utility.yul\":1541:1578   */\n      mstore\n        /* \"#utility.yul\":1466:1584   */\n      pop\n      pop\n      jump\t// out\n        /* \"#utility.yul\":1590:1680   */\n    tag_288:\n        /* \"#utility.yul\":1624:1631   */\n      0x00\n        /* \"#utility.yul\":1667:1672   */\n      dup2\n        /* \"#utility.yul\":1660:1673   */\n      iszero\n        /* \"#utility.yul\":1653:1674   */\n      iszero\n        /* \"#utility.yul\":1642:1674   */\n      swap1\n      pop\n        /* \"#utility.yul\":1590:1680   */\n      swap2\n      swap1\n      pop\n      jump\t// out\n        /* \"#utility.yul\":1686:1795   */\n    tag_289:\n        /* \"#utility.yul\":1767:1788   */\n      tag_361\n        /* \"#utility.yul\":1782:1787   */\n      dup2\n        /* \"#utility.yul\":1767:1788   */\n      tag_288\n      jump\t// in\n    tag_361:\n        /* \"#utility.yul\":1762:1765   */\n      dup3\n        /* \"#utility.yul\":1755:1789   */\n      mstore\n        /* \"#utility.yul\":1686:1795   */\n      pop\n      pop\n      jump\t// out\n        /* \"#utility.yul\":1801:2453   */\n    tag_34:\n        /* \"#utility.yul\":2000:2004   */\n      0x00\n        /* \"#utility.yul\":2038:2041   */\n      0xa0\n        /* \"#utility.yul\":2027:2036   */\n      dup3\n        /* \"#utility.yul\":2023:2042   */\n      add\n        /* \"#utility.yul\":2015:2042   */\n      swap1\n      pop\n        /* \"#utility.yul\":2052:2123   */\n      tag_363\n        /* \"#utility.yul\":2120:2121   */\n      0x00\n        /* \"#utility.yul\":2109:2118   */\n      dup4\n        /* \"#utility.yul\":2105:2122   */\n      add\n        /* \"#utility.yul\":2096:2102   */\n      dup9\n        /* \"#utility.yul\":2052:2123   */\n      tag_285\n      jump\t// in\n    tag_363:\n        /* \"#utility.yul\":2133:2205   */\n      tag_364\n        /* \"#utility.yul\":2201:2203   */\n      0x20\n        /* \"#utility.yul\":2190:2199   */\n      dup4\n        /* \"#utility.yul\":2186:2204   */\n      add\n        /* \"#utility.yul\":2177:2183   */\n      dup8\n        /* \"#utility.yul\":2133:2205   */\n      tag_285\n      jump\t// in\n    tag_364:\n        /* \"#utility.yul\":2215:2287   */\n      tag_365\n        /* \"#utility.yul\":2283:2285   */\n      0x40\n        /* \"#utility.yul\":2272:2281   */\n      dup4\n        /* \"#utility.yul\":2268:2286   */\n      add\n        /* \"#utility.yul\":2259:2265   */\n      dup7\n        /* \"#utility.yul\":2215:2287   */\n      tag_285\n      jump\t// in\n    tag_365:\n        /* \"#utility.yul\":2297:2369   */\n      tag_366\n        /* \"#utility.yul\":2365:2367   */\n      0x60\n        /* \"#utility.yul\":2354:2363   */\n      dup4\n        /* \"#utility.yul\":2350:2368   */\n      add\n        /* \"#utility.yul\":2341:2347   */\n      dup6\n        /* \"#utility.yul\":2297:2369   */\n      tag_287\n      jump\t// in\n    tag_366:\n        /* \"#utility.yul\":2379:2446   */\n      tag_367\n        /* \"#utility.yul\":2441:2444   */\n      0x80\n        /* \"#utility.yul\":2430:2439   */\n      dup4\n        /* \"#utility.yul\":2426:2445   */\n      add\n        /* \"#utility.yul\":2417:2423   */\n      dup5\n        /* \"#utility.yul\":2379:2446   */\n      tag_289\n      jump\t// in\n    tag_367:\n        /* \"#utility.yul\":1801:2453   */\n      swap7\n      swap6\n      pop\n      pop\n      pop\n      pop\n      pop\n      pop\n      jump\t// out\n        /* \"#utility.yul\":2459:2558   */\n    tag_290:\n        /* \"#utility.yul\":2511:2517   */\n      0x00\n        /* \"#utility.yul\":2545:2550   */\n      dup2\n        /* \"#utility.yul\":2539:2551   */\n      mload\n        /* \"#utility.yul\":2529:2551   */\n      swap1\n      pop\n        /* \"#utility.yul\":2459:2558   */\n      swap2\n      swap1\n      pop\n      jump\t// out\n        /* \"#utility.yul\":2564:2733   */\n    tag_291:\n        /* \"#utility.yul\":2648:2659   */\n      0x00\n        /* \"#utility.yul\":2682:2688   */\n      dup3\n        /* \"#utility.yul\":2677:2680   */\n      dup3\n        /* \"#utility.yul\":2670:2689   */\n      mstore\n        /* \"#utility.yul\":2722:2726   */\n      0x20\n        /* \"#utility.yul\":2717:2720   */\n      dup3\n        /* \"#utility.yul\":2713:2727   */\n      add\n        /* \"#utility.yul\":2698:2727   */\n      swap1\n      pop\n        /* \"#utility.yul\":2564:2733   */\n      swap3\n      swap2\n      pop\n      pop\n      jump\t// out\n        /* \"#utility.yul\":2739:2985   */\n    tag_292:\n        /* \"#utility.yul\":2820:2821   */\n      0x00\n        /* \"#utility.yul\":2830:2943   */\n    tag_371:\n        /* \"#utility.yul\":2844:2850   */\n      dup4\n        /* \"#utility.yul\":2841:2842   */\n      dup2\n        /* \"#utility.yul\":2838:2851   */\n      lt\n        /* \"#utility.yul\":2830:2943   */\n      iszero\n      tag_373\n      jumpi\n        /* \"#utility.yul\":2929:2930   */\n      dup1\n        /* \"#utility.yul\":2924:2927   */\n      dup3\n        /* \"#utility.yul\":2920:2931   */\n      add\n        /* \"#utility.yul\":2914:2932   */\n      mload\n        /* \"#utility.yul\":2910:2911   */\n      dup2\n        /* \"#utility.yul\":2905:2908   */\n      dup5\n        /* \"#utility.yul\":2901:2912   */\n      add\n        /* \"#utility.yul\":2894:2933   */\n      mstore\n        /* \"#utility.yul\":2866:2868   */\n      0x20\n        /* \"#utility.yul\":2863:2864   */\n      dup2\n        /* \"#utility.yul\":2859:2869   */\n      add\n        /* \"#utility.yul\":2854:2869   */\n      swap1\n      pop\n        /* \"#utility.yul\":2830:2943   */\n      jump(tag_371)\n    tag_373:\n        /* \"#utility.yul\":2977:2978   */\n      0x00\n        /* \"#utility.yul\":2968:2974   */\n      dup5\n        /* \"#utility.yul\":2963:2966   */\n      dup5\n        /* \"#utility.yul\":2959:2975   */\n      add\n        /* \"#utility.yul\":2952:2979   */\n      mstore\n        /* \"#utility.yul\":2801:2985   */\n      pop\n        /* \"#utility.yul\":2739:2985   */\n      pop\n      pop\n      pop\n      jump\t// out\n        /* \"#utility.yul\":2991:3093   */\n    tag_293:\n        /* \"#utility.yul\":3032:3038   */\n      0x00\n        /* \"#utility.yul\":3083:3085   */\n      0x1f\n        /* \"#utility.yul\":3079:3086   */\n      not\n        /* \"#utility.yul\":3074:3076   */\n      0x1f\n        /* \"#utility.yul\":3067:3072   */\n      dup4\n        /* \"#utility.yul\":3063:3077   */\n      add\n        /* \"#utility.yul\":3059:3087   */\n      and\n        /* \"#utility.yul\":3049:3087   */\n      swap1\n      pop\n        /* \"#utility.yul\":2991:3093   */\n      swap2\n      swap1\n      pop\n      jump\t// out\n        /* \"#utility.yul\":3099:3476   */\n    tag_294:\n        /* \"#utility.yul\":3187:3190   */\n      0x00\n        /* \"#utility.yul\":3215:3254   */\n      tag_376\n        /* \"#utility.yul\":3248:3253   */\n      dup3\n        /* \"#utility.yul\":3215:3254   */\n      tag_290\n      jump\t// in\n    tag_376:\n        /* \"#utility.yul\":3270:3341   */\n      tag_377\n        /* \"#utility.yul\":3334:3340   */\n      dup2\n        /* \"#utility.yul\":3329:3332   */\n      dup6\n        /* \"#utility.yul\":3270:3341   */\n      tag_291\n      jump\t// in\n    tag_377:\n        /* \"#utility.yul\":3263:3341   */\n      swap4\n      pop\n        /* \"#utility.yul\":3350:3415   */\n      tag_378\n        /* \"#utility.yul\":3408:3414   */\n      dup2\n        /* \"#utility.yul\":3403:3406   */\n      dup6\n        /* \"#utility.yul\":3396:3400   */\n      0x20\n        /* \"#utility.yul\":3389:3394   */\n      dup7\n        /* \"#utility.yul\":3385:3401   */\n      add\n        /* \"#utility.yul\":3350:3415   */\n      tag_292\n      jump\t// in\n    tag_378:\n        /* \"#utility.yul\":3440:3469   */\n      tag_379\n        /* \"#utility.yul\":3462:3468   */\n      dup2\n        /* \"#utility.yul\":3440:3469   */\n      tag_293\n      jump\t// in\n    tag_379:\n        /* \"#utility.yul\":3435:3438   */\n      dup5\n        /* \"#utility.yul\":3431:3470   */\n      add\n        /* \"#utility.yul\":3424:3470   */\n      swap2\n      pop\n        /* \"#utility.yul\":3191:3476   */\n      pop\n        /* \"#utility.yul\":3099:3476   */\n      swap3\n      swap2\n      pop\n      pop\n      jump\t// out\n        /* \"#utility.yul\":3482:3795   */\n    tag_39:\n        /* \"#utility.yul\":3595:3599   */\n      0x00\n        /* \"#utility.yul\":3633:3635   */\n      0x20\n        /* \"#utility.yul\":3622:3631   */\n      dup3\n        /* \"#utility.yul\":3618:3636   */\n      add\n        /* \"#utility.yul\":3610:3636   */\n      swap1\n      pop\n        /* \"#utility.yul\":3682:3691   */\n      dup2\n        /* \"#utility.yul\":3676:3680   */\n      dup2\n        /* \"#utility.yul\":3672:3692   */\n      sub\n        /* \"#utility.yul\":3668:3669   */\n      0x00\n        /* \"#utility.yul\":3657:3666   */\n      dup4\n        /* \"#utility.yul\":3653:3670   */\n      add\n        /* \"#utility.yul\":3646:3693   */\n      mstore\n        /* \"#utility.yul\":3710:3788   */\n      tag_381\n        /* \"#utility.yul\":3783:3787   */\n      dup2\n        /* \"#utility.yul\":3774:3780   */\n      dup5\n        /* \"#utility.yul\":3710:3788   */\n      tag_294\n      jump\t// in\n    tag_381:\n        /* \"#utility.yul\":3702:3788   */\n      swap1\n      pop\n        /* \"#utility.yul\":3482:3795   */\n      swap3\n      swap2\n      pop\n      pop\n      jump\t// out\n        /* \"#utility.yul\":3801:3923   */\n    tag_295:\n        /* \"#utility.yul\":3874:3898   */\n      tag_383\n        /* \"#utility.yul\":3892:3897   */\n      dup2\n        /* \"#utility.yul\":3874:3898   */\n      tag_284\n      jump\t// in\n    tag_383:\n        /* \"#utility.yul\":3867:3872   */\n      dup2\n        /* \"#utility.yul\":3864:3899   */\n      eq\n        /* \"#utility.yul\":3854:3917   */\n      tag_384\n      jumpi\n        /* \"#utility.yul\":3913:3914   */\n      0x00\n        /* \"#utility.yul\":3910:3911   */\n      dup1\n        /* \"#utility.yul\":3903:3915   */\n      revert\n        /* \"#utility.yul\":3854:3917   */\n    tag_384:\n        /* \"#utility.yul\":3801:3923   */\n      pop\n      jump\t// out\n        /* \"#utility.yul\":3929:4068   */\n    tag_296:\n        /* \"#utility.yul\":3975:3980   */\n      0x00\n        /* \"#utility.yul\":4013:4019   */\n      dup2\n        /* \"#utility.yul\":4000:4020   */\n      calldataload\n        /* \"#utility.yul\":3991:4020   */\n      swap1\n      pop\n        /* \"#utility.yul\":4029:4062   */\n      tag_386\n        /* \"#utility.yul\":4056:4061   */\n      dup2\n        /* \"#utility.yul\":4029:4062   */\n      tag_295\n      jump\t// in\n    tag_386:\n        /* \"#utility.yul\":3929:4068   */\n      swap3\n      swap2\n      pop\n      pop\n      jump\t// out\n        /* \"#utility.yul\":4074:4548   */\n    tag_43:\n        /* \"#utility.yul\":4142:4148   */\n      0x00\n        /* \"#utility.yul\":4150:4156   */\n      dup1\n        /* \"#utility.yul\":4199:4201   */\n      0x40\n        /* \"#utility.yul\":4187:4196   */\n      dup4\n        /* \"#utility.yul\":4178:4185   */\n      dup6\n        /* \"#utility.yul\":4174:4197   */\n      sub\n        /* \"#utility.yul\":4170:4202   */\n      slt\n        /* \"#utility.yul\":4167:4286   */\n      iszero\n      tag_388\n      jumpi\n        /* \"#utility.yul\":4205:4284   */\n      tag_389\n      tag_278\n      jump\t// in\n    tag_389:\n        /* \"#utility.yul\":4167:4286   */\n    tag_388:\n        /* \"#utility.yul\":4325:4326   */\n      0x00\n        /* \"#utility.yul\":4350:4403   */\n      tag_390\n        /* \"#utility.yul\":4395:4402   */\n      dup6\n        /* \"#utility.yul\":4386:4392   */\n      dup3\n        /* \"#utility.yul\":4375:4384   */\n      dup7\n        /* \"#utility.yul\":4371:4393   */\n      add\n        /* \"#utility.yul\":4350:4403   */\n      tag_283\n      jump\t// in\n    tag_390:\n        /* \"#utility.yul\":4340:4403   */\n      swap3\n      pop\n        /* \"#utility.yul\":4296:4413   */\n      pop\n        /* \"#utility.yul\":4452:4454   */\n      0x20\n        /* \"#utility.yul\":4478:4531   */\n      tag_391\n        /* \"#utility.yul\":4523:4530   */\n      dup6\n        /* \"#utility.yul\":4514:4520   */\n      dup3\n        /* \"#utility.yul\":4503:4512   */\n      dup7\n        /* \"#utility.yul\":4499:4521   */\n      add\n        /* \"#utility.yul\":4478:4531   */\n      tag_296\n      jump\t// in\n    tag_391:\n        /* \"#utility.yul\":4468:4531   */\n      swap2\n      pop\n        /* \"#utility.yul\":4423:4541   */\n      pop\n        /* \"#utility.yul\":4074:4548   */\n      swap3\n      pop\n      swap3\n      swap1\n      pop\n      jump\t// out\n        /* \"#utility.yul\":4554:4764   */\n    tag_46:\n        /* \"#utility.yul\":4641:4645   */\n      0x00\n        /* \"#utility.yul\":4679:4681   */\n      0x20\n        /* \"#utility.yul\":4668:4677   */\n      dup3\n        /* \"#utility.yul\":4664:4682   */\n      add\n        /* \"#utility.yul\":4656:4682   */\n      swap1\n      pop\n        /* \"#utility.yul\":4692:4757   */\n      tag_393\n        /* \"#utility.yul\":4754:4755   */\n      0x00\n        /* \"#utility.yul\":4743:4752   */\n      dup4\n        /* \"#utility.yul\":4739:4756   */\n      add\n        /* \"#utility.yul\":4730:4736   */\n      dup5\n        /* \"#utility.yul\":4692:4757   */\n      tag_289\n      jump\t// in\n    tag_393:\n        /* \"#utility.yul\":4554:4764   */\n      swap3\n      swap2\n      pop\n      pop\n      jump\t// out\n        /* \"#utility.yul\":4770:4992   */\n    tag_51:\n        /* \"#utility.yul\":4863:4867   */\n      0x00\n        /* \"#utility.yul\":4901:4903   */\n      0x20\n        /* \"#utility.yul\":4890:4899   */\n      dup3\n        /* \"#utility.yul\":4886:4904   */\n      add\n        /* \"#utility.yul\":4878:4904   */\n      swap1\n      pop\n        /* \"#utility.yul\":4914:4985   */\n      tag_395\n        /* \"#utility.yul\":4982:4983   */\n      0x00\n        /* \"#utility.yul\":4971:4980   */\n      dup4\n        /* \"#utility.yul\":4967:4984   */\n      add\n        /* \"#utility.yul\":4958:4964   */\n      dup5\n        /* \"#utility.yul\":4914:4985   */\n      tag_285\n      jump\t// in\n    tag_395:\n        /* \"#utility.yul\":4770:4992   */\n      swap3\n      swap2\n      pop\n      pop\n      jump\t// out\n        /* \"#utility.yul\":4998:5617   */\n    tag_55:\n        /* \"#utility.yul\":5075:5081   */\n      0x00\n        /* \"#utility.yul\":5083:5089   */\n      dup1\n        /* \"#utility.yul\":5091:5097   */\n      0x00\n        /* \"#utility.yul\":5140:5142   */\n      0x60\n        /* \"#utility.yul\":5128:5137   */\n      dup5\n        /* \"#utility.yul\":5119:5126   */\n      dup7\n        /* \"#utility.yul\":5115:5138   */\n      sub\n        /* \"#utility.yul\":5111:5143   */\n      slt\n        /* \"#utility.yul\":5108:5227   */\n      iszero\n      tag_397\n      jumpi\n        /* \"#utility.yul\":5146:5225   */\n      tag_398\n      tag_278\n      jump\t// in\n    tag_398:\n        /* \"#utility.yul\":5108:5227   */\n    tag_397:\n        /* \"#utility.yul\":5266:5267   */\n      0x00\n        /* \"#utility.yul\":5291:5344   */\n      tag_399\n        /* \"#utility.yul\":5336:5343   */\n      dup7\n        /* \"#utility.yul\":5327:5333   */\n      dup3\n        /* \"#utility.yul\":5316:5325   */\n      dup8\n        /* \"#utility.yul\":5312:5334   */\n      add\n        /* \"#utility.yul\":5291:5344   */\n      tag_283\n      jump\t// in\n    tag_399:\n        /* \"#utility.yul\":5281:5344   */\n      swap4\n      pop\n        /* \"#utility.yul\":5237:5354   */\n      pop\n        /* \"#utility.yul\":5393:5395   */\n      0x20\n        /* \"#utility.yul\":5419:5472   */\n      tag_400\n        /* \"#utility.yul\":5464:5471   */\n      dup7\n        /* \"#utility.yul\":5455:5461   */\n      dup3\n        /* \"#utility.yul\":5444:5453   */\n      dup8\n        /* \"#utility.yul\":5440:5462   */\n      add\n        /* \"#utility.yul\":5419:5472   */\n      tag_283\n      jump\t// in\n    tag_400:\n        /* \"#utility.yul\":5409:5472   */\n      swap3\n      pop\n        /* \"#utility.yul\":5364:5482   */\n      pop\n        /* \"#utility.yul\":5521:5523   */\n      0x40\n        /* \"#utility.yul\":5547:5600   */\n      tag_401\n        /* \"#utility.yul\":5592:5599   */\n      dup7\n        /* \"#utility.yul\":5583:5589   */\n      dup3\n        /* \"#utility.yul\":5572:5581   */\n      dup8\n        /* \"#utility.yul\":5568:5590   */\n      add\n        /* \"#utility.yul\":5547:5600   */\n      tag_296\n      jump\t// in\n    tag_401:\n        /* \"#utility.yul\":5537:5600   */\n      swap2\n      pop\n        /* \"#utility.yul\":5492:5610   */\n      pop\n        /* \"#utility.yul\":4998:5617   */\n      swap3\n      pop\n      swap3\n      pop\n      swap3\n      jump\t// out\n        /* \"#utility.yul\":5623:5709   */\n    tag_297:\n        /* \"#utility.yul\":5658:5665   */\n      0x00\n        /* \"#utility.yul\":5698:5702   */\n      0xff\n        /* \"#utility.yul\":5691:5696   */\n      dup3\n        /* \"#utility.yul\":5687:5703   */\n      and\n        /* \"#utility.yul\":5676:5703   */\n      swap1\n      pop\n        /* \"#utility.yul\":5623:5709   */\n      swap2\n      swap1\n      pop\n      jump\t// out\n        /* \"#utility.yul\":5715:5827   */\n    tag_298:\n        /* \"#utility.yul\":5798:5820   */\n      tag_404\n        /* \"#utility.yul\":5814:5819   */\n      dup2\n        /* \"#utility.yul\":5798:5820   */\n      tag_297\n      jump\t// in\n    tag_404:\n        /* \"#utility.yul\":5793:5796   */\n      dup3\n        /* \"#utility.yul\":5786:5821   */\n      mstore\n        /* \"#utility.yul\":5715:5827   */\n      pop\n      pop\n      jump\t// out\n        /* \"#utility.yul\":5833:6047   */\n    tag_62:\n        /* \"#utility.yul\":5922:5926   */\n      0x00\n        /* \"#utility.yul\":5960:5962   */\n      0x20\n        /* \"#utility.yul\":5949:5958   */\n      dup3\n        /* \"#utility.yul\":5945:5963   */\n      add\n        /* \"#utility.yul\":5937:5963   */\n      swap1\n      pop\n        /* \"#utility.yul\":5973:6040   */\n      tag_406\n        /* \"#utility.yul\":6037:6038   */\n      0x00\n        /* \"#utility.yul\":6026:6035   */\n      dup4\n        /* \"#utility.yul\":6022:6039   */\n      add\n        /* \"#utility.yul\":6013:6019   */\n      dup5\n        /* \"#utility.yul\":5973:6040   */\n      tag_298\n      jump\t// in\n    tag_406:\n        /* \"#utility.yul\":5833:6047   */\n      swap3\n      swap2\n      pop\n      pop\n      jump\t// out\n        /* \"#utility.yul\":6053:6527   */\n    tag_87:\n        /* \"#utility.yul\":6121:6127   */\n      0x00\n        /* \"#utility.yul\":6129:6135   */\n      dup1\n        /* \"#utility.yul\":6178:6180   */\n      0x40\n        /* \"#utility.yul\":6166:6175   */\n      dup4\n        /* \"#utility.yul\":6157:6164   */\n      dup6\n        /* \"#utility.yul\":6153:6176   */\n      sub\n        /* \"#utility.yul\":6149:6181   */\n      slt\n        /* \"#utility.yul\":6146:6265   */\n      iszero\n      tag_408\n      jumpi\n        /* \"#utility.yul\":6184:6263   */\n      tag_409\n      tag_278\n      jump\t// in\n    tag_409:\n        /* \"#utility.yul\":6146:6265   */\n    tag_408:\n        /* \"#utility.yul\":6304:6305   */\n      0x00\n        /* \"#utility.yul\":6329:6382   */\n      tag_410\n        /* \"#utility.yul\":6374:6381   */\n      dup6\n        /* \"#utility.yul\":6365:6371   */\n      dup3\n        /* \"#utility.yul\":6354:6363   */\n      dup7\n        /* \"#utility.yul\":6350:6372   */\n      add\n        /* \"#utility.yul\":6329:6382   */\n      tag_283\n      jump\t// in\n    tag_410:\n        /* \"#utility.yul\":6319:6382   */\n      swap3\n      pop\n        /* \"#utility.yul\":6275:6392   */\n      pop\n        /* \"#utility.yul\":6431:6433   */\n      0x20\n        /* \"#utility.yul\":6457:6510   */\n      tag_411\n        /* \"#utility.yul\":6502:6509   */\n      dup6\n        /* \"#utility.yul\":6493:6499   */\n      dup3\n        /* \"#utility.yul\":6482:6491   */\n      dup7\n        /* \"#utility.yul\":6478:6500   */\n      add\n        /* \"#utility.yul\":6457:6510   */\n      tag_283\n      jump\t// in\n    tag_411:\n        /* \"#utility.yul\":6447:6510   */\n      swap2\n      pop\n        /* \"#utility.yul\":6402:6520   */\n      pop\n        /* \"#utility.yul\":6053:6527   */\n      swap3\n      pop\n      swap3\n      swap1\n      pop\n      jump\t// out\n        /* \"#utility.yul\":6533:6655   */\n    tag_299:\n        /* \"#utility.yul\":6606:6630   */\n      tag_413\n        /* \"#utility.yul\":6624:6629   */\n      dup2\n        /* \"#utility.yul\":6606:6630   */\n      tag_286\n      jump\t// in\n    tag_413:\n        /* \"#utility.yul\":6599:6604   */\n      dup2\n        /* \"#utility.yul\":6596:6631   */\n      eq\n        /* \"#utility.yul\":6586:6649   */\n      tag_414\n      jumpi\n        /* \"#utility.yul\":6645:6646   */\n      0x00\n        /* \"#utility.yul\":6642:6643   */\n      dup1\n        /* \"#utility.yul\":6635:6647   */\n      revert\n        /* \"#utility.yul\":6586:6649   */\n    tag_414:\n        /* \"#utility.yul\":6533:6655   */\n      pop\n      jump\t// out\n        /* \"#utility.yul\":6661:6800   */\n    tag_300:\n        /* \"#utility.yul\":6707:6712   */\n      0x00\n        /* \"#utility.yul\":6745:6751   */\n      dup2\n        /* \"#utility.yul\":6732:6752   */\n      calldataload\n        /* \"#utility.yul\":6723:6752   */\n      swap1\n      pop\n        /* \"#utility.yul\":6761:6794   */\n      tag_416\n        /* \"#utility.yul\":6788:6793   */\n      dup2\n        /* \"#utility.yul\":6761:6794   */\n      tag_299\n      jump\t// in\n    tag_416:\n        /* \"#utility.yul\":6661:6800   */\n      swap3\n      swap2\n      pop\n      pop\n      jump\t// out\n        /* \"#utility.yul\":6806:7135   */\n    tag_103:\n        /* \"#utility.yul\":6865:6871   */\n      0x00\n        /* \"#utility.yul\":6914:6916   */\n      0x20\n        /* \"#utility.yul\":6902:6911   */\n      dup3\n        /* \"#utility.yul\":6893:6900   */\n      dup5\n        /* \"#utility.yul\":6889:6912   */\n      sub\n        /* \"#utility.yul\":6885:6917   */\n      slt\n        /* \"#utility.yul\":6882:7001   */\n      iszero\n      tag_418\n      jumpi\n        /* \"#utility.yul\":6920:6999   */\n      tag_419\n      tag_278\n      jump\t// in\n    tag_419:\n        /* \"#utility.yul\":6882:7001   */\n    tag_418:\n        /* \"#utility.yul\":7040:7041   */\n      0x00\n        /* \"#utility.yul\":7065:7118   */\n      tag_420\n        /* \"#utility.yul\":7110:7117   */\n      dup5\n        /* \"#utility.yul\":7101:7107   */\n      dup3\n        /* \"#utility.yul\":7090:7099   */\n      dup6\n        /* \"#utility.yul\":7086:7108   */\n      add\n        /* \"#utility.yul\":7065:7118   */\n      tag_300\n      jump\t// in\n    tag_420:\n        /* \"#utility.yul\":7055:7118   */\n      swap2\n      pop\n        /* \"#utility.yul\":7011:7128   */\n      pop\n        /* \"#utility.yul\":6806:7135   */\n      swap3\n      swap2\n      pop\n      pop\n      jump\t// out\n        /* \"#utility.yul\":7141:7259   */\n    tag_301:\n        /* \"#utility.yul\":7228:7252   */\n      tag_422\n        /* \"#utility.yul\":7246:7251   */\n      dup2\n        /* \"#utility.yul\":7228:7252   */\n      tag_281\n      jump\t// in\n    tag_422:\n        /* \"#utility.yul\":7223:7226   */\n      dup3\n        /* \"#utility.yul\":7216:7253   */\n      mstore\n        /* \"#utility.yul\":7141:7259   */\n      pop\n      pop\n      jump\t// out\n        /* \"#utility.yul\":7265:7487   */\n    tag_137:\n        /* \"#utility.yul\":7358:7362   */\n      0x00\n        /* \"#utility.yul\":7396:7398   */\n      0x20\n        /* \"#utility.yul\":7385:7394   */\n      dup3\n        /* \"#utility.yul\":7381:7399   */\n      add\n        /* \"#utility.yul\":7373:7399   */\n      swap1\n      pop\n        /* \"#utility.yul\":7409:7480   */\n      tag_424\n        /* \"#utility.yul\":7477:7478   */\n      0x00\n        /* \"#utility.yul\":7466:7475   */\n      dup4\n        /* \"#utility.yul\":7462:7479   */\n      add\n        /* \"#utility.yul\":7453:7459   */\n      dup5\n        /* \"#utility.yul\":7409:7480   */\n      tag_301\n      jump\t// in\n    tag_424:\n        /* \"#utility.yul\":7265:7487   */\n      swap3\n      swap2\n      pop\n      pop\n      jump\t// out\n        /* \"#utility.yul\":7493:7673   */\n    tag_302:\n        /* \"#utility.yul\":7541:7618   */\n      0x4e487b7100000000000000000000000000000000000000000000000000000000\n        /* \"#utility.yul\":7538:7539   */\n      0x00\n        /* \"#utility.yul\":7531:7619   */\n      mstore\n        /* \"#utility.yul\":7638:7642   */\n      0x22\n        /* \"#utility.yul\":7635:7636   */\n      0x04\n        /* \"#utility.yul\":7628:7643   */\n      mstore\n        /* \"#utility.yul\":7662:7666   */\n      0x24\n        /* \"#utility.yul\":7659:7660   */\n      0x00\n        /* \"#utility.yul\":7652:7667   */\n      revert\n        /* \"#utility.yul\":7679:7999   */\n    tag_140:\n        /* \"#utility.yul\":7723:7729   */\n      0x00\n        /* \"#utility.yul\":7760:7761   */\n      0x02\n        /* \"#utility.yul\":7754:7758   */\n      dup3\n        /* \"#utility.yul\":7750:7762   */\n      div\n        /* \"#utility.yul\":7740:7762   */\n      swap1\n      pop\n        /* \"#utility.yul\":7807:7808   */\n      0x01\n        /* \"#utility.yul\":7801:7805   */\n      dup3\n        /* \"#utility.yul\":7797:7809   */\n      and\n        /* \"#utility.yul\":7828:7846   */\n      dup1\n        /* \"#utility.yul\":7818:7899   */\n      tag_427\n      jumpi\n        /* \"#utility.yul\":7884:7888   */\n      0x7f\n        /* \"#utility.yul\":7876:7882   */\n      dup3\n        /* \"#utility.yul\":7872:7889   */\n      and\n        /* \"#utility.yul\":7862:7889   */\n      swap2\n      pop\n        /* \"#utility.yul\":7818:7899   */\n    tag_427:\n        /* \"#utility.yul\":7946:7948   */\n      0x20\n        /* \"#utility.yul\":7938:7944   */\n      dup3\n        /* \"#utility.yul\":7935:7949   */\n      lt\n        /* \"#utility.yul\":7915:7933   */\n      dup2\n        /* \"#utility.yul\":7912:7950   */\n      sub\n        /* \"#utility.yul\":7909:7993   */\n      tag_428\n      jumpi\n        /* \"#utility.yul\":7965:7983   */\n      tag_429\n      tag_302\n      jump\t// in\n    tag_429:\n        /* \"#utility.yul\":7909:7993   */\n    tag_428:\n        /* \"#utility.yul\":7730:7999   */\n      pop\n        /* \"#utility.yul\":7679:7999   */\n      swap2\n      swap1\n      pop\n      jump\t// out\n        /* \"#utility.yul\":8005:8181   */\n    tag_303:\n        /* \"#utility.yul\":8145:8173   */\n      0x45524332303a20746f6b656e206973206e6f7420706175736564000000000000\n        /* \"#utility.yul\":8141:8142   */\n      0x00\n        /* \"#utility.yul\":8133:8139   */\n      dup3\n        /* \"#utility.yul\":8129:8143   */\n      add\n        /* \"#utility.yul\":8122:8174   */\n      mstore\n        /* \"#utility.yul\":8005:8181   */\n      pop\n      jump\t// out\n        /* \"#utility.yul\":8187:8553   */\n    tag_304:\n        /* \"#utility.yul\":8329:8332   */\n      0x00\n        /* \"#utility.yul\":8350:8417   */\n      tag_432\n        /* \"#utility.yul\":8414:8416   */\n      0x1a\n        /* \"#utility.yul\":8409:8412   */\n      dup4\n        /* \"#utility.yul\":8350:8417   */\n      tag_291\n      jump\t// in\n    tag_432:\n        /* \"#utility.yul\":8343:8417   */\n      swap2\n      pop\n        /* \"#utility.yul\":8426:8519   */\n      tag_433\n        /* \"#utility.yul\":8515:8518   */\n      dup3\n        /* \"#utility.yul\":8426:8519   */\n      tag_303\n      jump\t// in\n    tag_433:\n        /* \"#utility.yul\":8544:8546   */\n      0x20\n        /* \"#utility.yul\":8539:8542   */\n      dup3\n        /* \"#utility.yul\":8535:8547   */\n      add\n        /* \"#utility.yul\":8528:8547   */\n      swap1\n      pop\n        /* \"#utility.yul\":8187:8553   */\n      swap2\n      swap1\n      pop\n      jump\t// out\n        /* \"#utility.yul\":8559:8978   */\n    tag_152:\n        /* \"#utility.yul\":8725:8729   */\n      0x00\n        /* \"#utility.yul\":8763:8765   */\n      0x20\n        /* \"#utility.yul\":8752:8761   */\n      dup3\n        /* \"#utility.yul\":8748:8766   */\n      add\n        /* \"#utility.yul\":8740:8766   */\n      swap1\n      pop\n        /* \"#utility.yul\":8812:8821   */\n      dup2\n        /* \"#utility.yul\":8806:8810   */\n      dup2\n        /* \"#utility.yul\":8802:8822   */\n      sub\n        /* \"#utility.yul\":8798:8799   */\n      0x00\n        /* \"#utility.yul\":8787:8796   */\n      dup4\n        /* \"#utility.yul\":8783:8800   */\n      add\n        /* \"#utility.yul\":8776:8823   */\n      mstore\n        /* \"#utility.yul\":8840:8971   */\n      tag_435\n        /* \"#utility.yul\":8966:8970   */\n      dup2\n        /* \"#utility.yul\":8840:8971   */\n      tag_304\n      jump\t// in\n    tag_435:\n        /* \"#utility.yul\":8832:8971   */\n      swap1\n      pop\n        /* \"#utility.yul\":8559:8978   */\n      swap2\n      swap1\n      pop\n      jump\t// out\n        /* \"#utility.yul\":8984:9211   */\n    tag_305:\n        /* \"#utility.yul\":9124:9158   */\n      0x45524332303a207472616e7366657220616d6f756e7420657863656564732061\n        /* \"#utility.yul\":9120:9121   */\n      0x00\n        /* \"#utility.yul\":9112:9118   */\n      dup3\n        /* \"#utility.yul\":9108:9122   */\n      add\n        /* \"#utility.yul\":9101:9159   */\n      mstore\n        /* \"#utility.yul\":9193:9203   */\n      0x6c6c6f77616e6365000000000000000000000000000000000000000000000000\n        /* \"#utility.yul\":9188:9190   */\n      0x20\n        /* \"#utility.yul\":9180:9186   */\n      dup3\n        /* \"#utility.yul\":9176:9191   */\n      add\n        /* \"#utility.yul\":9169:9204   */\n      mstore\n        /* \"#utility.yul\":8984:9211   */\n      pop\n      jump\t// out\n        /* \"#utility.yul\":9217:9583   */\n    tag_306:\n        /* \"#utility.yul\":9359:9362   */\n      0x00\n        /* \"#utility.yul\":9380:9447   */\n      tag_438\n        /* \"#utility.yul\":9444:9446   */\n      0x28\n        /* \"#utility.yul\":9439:9442   */\n      dup4\n        /* \"#utility.yul\":9380:9447   */\n      tag_291\n      jump\t// in\n    tag_438:\n        /* \"#utility.yul\":9373:9447   */\n      swap2\n      pop\n        /* \"#utility.yul\":9456:9549   */\n      tag_439\n        /* \"#utility.yul\":9545:9548   */\n      dup3\n        /* \"#utility.yul\":9456:9549   */\n      tag_305\n      jump\t// in\n    tag_439:\n        /* \"#utility.yul\":9574:9576   */\n      0x40\n        /* \"#utility.yul\":9569:9572   */\n      dup3\n        /* \"#utility.yul\":9565:9577   */\n      add\n        /* \"#utility.yul\":9558:9577   */\n      swap1\n      pop\n        /* \"#utility.yul\":9217:9583   */\n      swap2\n      swap1\n      pop\n      jump\t// out\n        /* \"#utility.yul\":9589:10008   */\n    tag_157:\n        /* \"#utility.yul\":9755:9759   */\n      0x00\n        /* \"#utility.yul\":9793:9795   */\n      0x20\n        /* \"#utility.yul\":9782:9791   */\n      dup3\n        /* \"#utility.yul\":9778:9796   */\n      add\n        /* \"#utility.yul\":9770:9796   */\n      swap1\n      pop\n        /* \"#utility.yul\":9842:9851   */\n      dup2\n        /* \"#utility.yul\":9836:9840   */\n      dup2\n        /* \"#utility.yul\":9832:9852   */\n      sub\n        /* \"#utility.yul\":9828:9829   */\n      0x00\n        /* \"#utility.yul\":9817:9826   */\n      dup4\n        /* \"#utility.yul\":9813:9830   */\n      add\n        /* \"#utility.yul\":9806:9853   */\n      mstore\n        /* \"#utility.yul\":9870:10001   */\n      tag_441\n        /* \"#utility.yul\":9996:10000   */\n      dup2\n        /* \"#utility.yul\":9870:10001   */\n      tag_306\n      jump\t// in\n    tag_441:\n        /* \"#utility.yul\":9862:10001   */\n      swap1\n      pop\n        /* \"#utility.yul\":9589:10008   */\n      swap2\n      swap1\n      pop\n      jump\t// out\n        /* \"#utility.yul\":10014:10194   */\n    tag_307:\n        /* \"#utility.yul\":10062:10139   */\n      0x4e487b7100000000000000000000000000000000000000000000000000000000\n        /* \"#utility.yul\":10059:10060   */\n      0x00\n        /* \"#utility.yul\":10052:10140   */\n      mstore\n        /* \"#utility.yul\":10159:10163   */\n      0x11\n        /* \"#utility.yul\":10156:10157   */\n      0x04\n        /* \"#utility.yul\":10149:10164   */\n      mstore\n        /* \"#utility.yul\":10183:10187   */\n      0x24\n        /* \"#utility.yul\":10180:10181   */\n      0x00\n        /* \"#utility.yul\":10173:10188   */\n      revert\n        /* \"#utility.yul\":10200:10391   */\n    tag_166:\n        /* \"#utility.yul\":10240:10243   */\n      0x00\n        /* \"#utility.yul\":10259:10279   */\n      tag_444\n        /* \"#utility.yul\":10277:10278   */\n      dup3\n        /* \"#utility.yul\":10259:10279   */\n      tag_284\n      jump\t// in\n    tag_444:\n        /* \"#utility.yul\":10254:10279   */\n      swap2\n      pop\n        /* \"#utility.yul\":10293:10313   */\n      tag_445\n        /* \"#utility.yul\":10311:10312   */\n      dup4\n        /* \"#utility.yul\":10293:10313   */\n      tag_284\n      jump\t// in\n    tag_445:\n        /* \"#utility.yul\":10288:10313   */\n      swap3\n      pop\n        /* \"#utility.yul\":10336:10337   */\n      dup3\n        /* \"#utility.yul\":10333:10334   */\n      dup3\n        /* \"#utility.yul\":10329:10338   */\n      add\n        /* \"#utility.yul\":10322:10338   */\n      swap1\n      pop\n        /* \"#utility.yul\":10357:10360   */\n      dup1\n        /* \"#utility.yul\":10354:10355   */\n      dup3\n        /* \"#utility.yul\":10351:10361   */\n      gt\n        /* \"#utility.yul\":10348:10384   */\n      iszero\n      tag_446\n      jumpi\n        /* \"#utility.yul\":10364:10382   */\n      tag_447\n      tag_307\n      jump\t// in\n    tag_447:\n        /* \"#utility.yul\":10348:10384   */\n    tag_446:\n        /* \"#utility.yul\":10200:10391   */\n      swap3\n      swap2\n      pop\n      pop\n      jump\t// out\n        /* \"#utility.yul\":10397:10630   */\n    tag_308:\n        /* \"#utility.yul\":10537:10571   */\n      0x45524332303a206f6e6c7920636f72706f726174696f6e2063616e2063616c6c\n        /* \"#utility.yul\":10533:10534   */\n      0x00\n        /* \"#utility.yul\":10525:10531   */\n      dup3\n        /* \"#utility.yul\":10521:10535   */\n      add\n        /* \"#utility.yul\":10514:10572   */\n      mstore\n        /* \"#utility.yul\":10606:10622   */\n      0x20746869732066756e6374696f6e000000000000000000000000000000000000\n        /* \"#utility.yul\":10601:10603   */\n      0x20\n        /* \"#utility.yul\":10593:10599   */\n      dup3\n        /* \"#utility.yul\":10589:10604   */\n      add\n        /* \"#utility.yul\":10582:10623   */\n      mstore\n        /* \"#utility.yul\":10397:10630   */\n      pop\n      jump\t// out\n        /* \"#utility.yul\":10636:11002   */\n    tag_309:\n        /* \"#utility.yul\":10778:10781   */\n      0x00\n        /* \"#utility.yul\":10799:10866   */\n      tag_450\n        /* \"#utility.yul\":10863:10865   */\n      0x2e\n        /* \"#utility.yul\":10858:10861   */\n      dup4\n        /* \"#utility.yul\":10799:10866   */\n      tag_291\n      jump\t// in\n    tag_450:\n        /* \"#utility.yul\":10792:10866   */\n      swap2\n      pop\n        /* \"#utility.yul\":10875:10968   */\n      tag_451\n        /* \"#utility.yul\":10964:10967   */\n      dup3\n        /* \"#utility.yul\":10875:10968   */\n      tag_308\n      jump\t// in\n    tag_451:\n        /* \"#utility.yul\":10993:10995   */\n      0x40\n        /* \"#utility.yul\":10988:10991   */\n      dup3\n        /* \"#utility.yul\":10984:10996   */\n      add\n        /* \"#utility.yul\":10977:10996   */\n      swap1\n      pop\n        /* \"#utility.yul\":10636:11002   */\n      swap2\n      swap1\n      pop\n      jump\t// out\n        /* \"#utility.yul\":11008:11427   */\n    tag_170:\n        /* \"#utility.yul\":11174:11178   */\n      0x00\n        /* \"#utility.yul\":11212:11214   */\n      0x20\n        /* \"#utility.yul\":11201:11210   */\n      dup3\n        /* \"#utility.yul\":11197:11215   */\n      add\n        /* \"#utility.yul\":11189:11215   */\n      swap1\n      pop\n        /* \"#utility.yul\":11261:11270   */\n      dup2\n        /* \"#utility.yul\":11255:11259   */\n      dup2\n        /* \"#utility.yul\":11251:11271   */\n      sub\n        /* \"#utility.yul\":11247:11248   */\n      0x00\n        /* \"#utility.yul\":11236:11245   */\n      dup4\n        /* \"#utility.yul\":11232:11249   */\n      add\n        /* \"#utility.yul\":11225:11272   */\n      mstore\n        /* \"#utility.yul\":11289:11420   */\n      tag_453\n        /* \"#utility.yul\":11415:11419   */\n      dup2\n        /* \"#utility.yul\":11289:11420   */\n      tag_309\n      jump\t// in\n    tag_453:\n        /* \"#utility.yul\":11281:11420   */\n      swap1\n      pop\n        /* \"#utility.yul\":11008:11427   */\n      swap2\n      swap1\n      pop\n      jump\t// out\n        /* \"#utility.yul\":11433:11666   */\n    tag_310:\n        /* \"#utility.yul\":11573:11607   */\n      0x4c6f737420616464726573732063616e6e6f74206265207468652073616d6520\n        /* \"#utility.yul\":11569:11570   */\n      0x00\n        /* \"#utility.yul\":11561:11567   */\n      dup3\n        /* \"#utility.yul\":11557:11571   */\n      add\n        /* \"#utility.yul\":11550:11608   */\n      mstore\n        /* \"#utility.yul\":11642:11658   */\n      0x6173206e65772061646472657373000000000000000000000000000000000000\n        /* \"#utility.yul\":11637:11639   */\n      0x20\n        /* \"#utility.yul\":11629:11635   */\n      dup3\n        /* \"#utility.yul\":11625:11640   */\n      add\n        /* \"#utility.yul\":11618:11659   */\n      mstore\n        /* \"#utility.yul\":11433:11666   */\n      pop\n      jump\t// out\n        /* \"#utility.yul\":11672:12038   */\n    tag_311:\n        /* \"#utility.yul\":11814:11817   */\n      0x00\n        /* \"#utility.yul\":11835:11902   */\n      tag_456\n        /* \"#utility.yul\":11899:11901   */\n      0x2e\n        /* \"#utility.yul\":11894:11897   */\n      dup4\n        /* \"#utility.yul\":11835:11902   */\n      tag_291\n      jump\t// in\n    tag_456:\n        /* \"#utility.yul\":11828:11902   */\n      swap2\n      pop\n        /* \"#utility.yul\":11911:12004   */\n      tag_457\n        /* \"#utility.yul\":12000:12003   */\n      dup3\n        /* \"#utility.yul\":11911:12004   */\n      tag_310\n      jump\t// in\n    tag_457:\n        /* \"#utility.yul\":12029:12031   */\n      0x40\n        /* \"#utility.yul\":12024:12027   */\n      dup3\n        /* \"#utility.yul\":12020:12032   */\n      add\n        /* \"#utility.yul\":12013:12032   */\n      swap1\n      pop\n        /* \"#utility.yul\":11672:12038   */\n      swap2\n      swap1\n      pop\n      jump\t// out\n        /* \"#utility.yul\":12044:12463   */\n    tag_182:\n        /* \"#utility.yul\":12210:12214   */\n      0x00\n        /* \"#utility.yul\":12248:12250   */\n      0x20\n        /* \"#utility.yul\":12237:12246   */\n      dup3\n        /* \"#utility.yul\":12233:12251   */\n      add\n        /* \"#utility.yul\":12225:12251   */\n      swap1\n      pop\n        /* \"#utility.yul\":12297:12306   */\n      dup2\n        /* \"#utility.yul\":12291:12295   */\n      dup2\n        /* \"#utility.yul\":12287:12307   */\n      sub\n        /* \"#utility.yul\":12283:12284   */\n      0x00\n        /* \"#utility.yul\":12272:12281   */\n      dup4\n        /* \"#utility.yul\":12268:12285   */\n      add\n        /* \"#utility.yul\":12261:12308   */\n      mstore\n        /* \"#utility.yul\":12325:12456   */\n      tag_459\n        /* \"#utility.yul\":12451:12455   */\n      dup2\n        /* \"#utility.yul\":12325:12456   */\n      tag_311\n      jump\t// in\n    tag_459:\n        /* \"#utility.yul\":12317:12456   */\n      swap1\n      pop\n        /* \"#utility.yul\":12044:12463   */\n      swap2\n      swap1\n      pop\n      jump\t// out\n        /* \"#utility.yul\":12469:12650   */\n    tag_312:\n        /* \"#utility.yul\":12609:12642   */\n      0x4c6f73742061646472657373206d757374206265207265676973746572656400\n        /* \"#utility.yul\":12605:12606   */\n      0x00\n        /* \"#utility.yul\":12597:12603   */\n      dup3\n        /* \"#utility.yul\":12593:12607   */\n      add\n        /* \"#utility.yul\":12586:12643   */\n      mstore\n        /* \"#utility.yul\":12469:12650   */\n      pop\n      jump\t// out\n        /* \"#utility.yul\":12656:13022   */\n    tag_313:\n        /* \"#utility.yul\":12798:12801   */\n      0x00\n        /* \"#utility.yul\":12819:12886   */\n      tag_462\n        /* \"#utility.yul\":12883:12885   */\n      0x1f\n        /* \"#utility.yul\":12878:12881   */\n      dup4\n        /* \"#utility.yul\":12819:12886   */\n      tag_291\n      jump\t// in\n    tag_462:\n        /* \"#utility.yul\":12812:12886   */\n      swap2\n      pop\n        /* \"#utility.yul\":12895:12988   */\n      tag_463\n        /* \"#utility.yul\":12984:12987   */\n      dup3\n        /* \"#utility.yul\":12895:12988   */\n      tag_312\n      jump\t// in\n    tag_463:\n        /* \"#utility.yul\":13013:13015   */\n      0x20\n        /* \"#utility.yul\":13008:13011   */\n      dup3\n        /* \"#utility.yul\":13004:13016   */\n      add\n        /* \"#utility.yul\":12997:13016   */\n      swap1\n      pop\n        /* \"#utility.yul\":12656:13022   */\n      swap2\n      swap1\n      pop\n      jump\t// out\n        /* \"#utility.yul\":13028:13447   */\n    tag_185:\n        /* \"#utility.yul\":13194:13198   */\n      0x00\n        /* \"#utility.yul\":13232:13234   */\n      0x20\n        /* \"#utility.yul\":13221:13230   */\n      dup3\n        /* \"#utility.yul\":13217:13235   */\n      add\n        /* \"#utility.yul\":13209:13235   */\n      swap1\n      pop\n        /* \"#utility.yul\":13281:13290   */\n      dup2\n        /* \"#utility.yul\":13275:13279   */\n      dup2\n        /* \"#utility.yul\":13271:13291   */\n      sub\n        /* \"#utility.yul\":13267:13268   */\n      0x00\n        /* \"#utility.yul\":13256:13265   */\n      dup4\n        /* \"#utility.yul\":13252:13269   */\n      add\n        /* \"#utility.yul\":13245:13292   */\n      mstore\n        /* \"#utility.yul\":13309:13440   */\n      tag_465\n        /* \"#utility.yul\":13435:13439   */\n      dup2\n        /* \"#utility.yul\":13309:13440   */\n      tag_313\n      jump\t// in\n    tag_465:\n        /* \"#utility.yul\":13301:13440   */\n      swap1\n      pop\n        /* \"#utility.yul\":13028:13447   */\n      swap2\n      swap1\n      pop\n      jump\t// out\n        /* \"#utility.yul\":13453:13633   */\n    tag_314:\n        /* \"#utility.yul\":13593:13625   */\n      0x4e65772061646472657373206d75737420626520726567697374657265640000\n        /* \"#utility.yul\":13589:13590   */\n      0x00\n        /* \"#utility.yul\":13581:13587   */\n      dup3\n        /* \"#utility.yul\":13577:13591   */\n      add\n        /* \"#utility.yul\":13570:13626   */\n      mstore\n        /* \"#utility.yul\":13453:13633   */\n      pop\n      jump\t// out\n        /* \"#utility.yul\":13639:14005   */\n    tag_315:\n        /* \"#utility.yul\":13781:13784   */\n      0x00\n        /* \"#utility.yul\":13802:13869   */\n      tag_468\n        /* \"#utility.yul\":13866:13868   */\n      0x1e\n        /* \"#utility.yul\":13861:13864   */\n      dup4\n        /* \"#utility.yul\":13802:13869   */\n      tag_291\n      jump\t// in\n    tag_468:\n        /* \"#utility.yul\":13795:13869   */\n      swap2\n      pop\n        /* \"#utility.yul\":13878:13971   */\n      tag_469\n        /* \"#utility.yul\":13967:13970   */\n      dup3\n        /* \"#utility.yul\":13878:13971   */\n      tag_314\n      jump\t// in\n    tag_469:\n        /* \"#utility.yul\":13996:13998   */\n      0x20\n        /* \"#utility.yul\":13991:13994   */\n      dup3\n        /* \"#utility.yul\":13987:13999   */\n      add\n        /* \"#utility.yul\":13980:13999   */\n      swap1\n      pop\n        /* \"#utility.yul\":13639:14005   */\n      swap2\n      swap1\n      pop\n      jump\t// out\n        /* \"#utility.yul\":14011:14430   */\n    tag_188:\n        /* \"#utility.yul\":14177:14181   */\n      0x00\n        /* \"#utility.yul\":14215:14217   */\n      0x20\n        /* \"#utility.yul\":14204:14213   */\n      dup3\n        /* \"#utility.yul\":14200:14218   */\n      add\n        /* \"#utility.yul\":14192:14218   */\n      swap1\n      pop\n        /* \"#utility.yul\":14264:14273   */\n      dup2\n        /* \"#utility.yul\":14258:14262   */\n      dup2\n        /* \"#utility.yul\":14254:14274   */\n      sub\n        /* \"#utility.yul\":14250:14251   */\n      0x00\n        /* \"#utility.yul\":14239:14248   */\n      dup4\n        /* \"#utility.yul\":14235:14252   */\n      add\n        /* \"#utility.yul\":14228:14275   */\n      mstore\n        /* \"#utility.yul\":14292:14423   */\n      tag_471\n        /* \"#utility.yul\":14418:14422   */\n      dup2\n        /* \"#utility.yul\":14292:14423   */\n      tag_315\n      jump\t// in\n    tag_471:\n        /* \"#utility.yul\":14284:14423   */\n      swap1\n      pop\n        /* \"#utility.yul\":14011:14430   */\n      swap2\n      swap1\n      pop\n      jump\t// out\n        /* \"#utility.yul\":14436:14617   */\n    tag_316:\n        /* \"#utility.yul\":14576:14609   */\n      0x41646472657373206e6f74206d61726b656420666f72207265636f7665727900\n        /* \"#utility.yul\":14572:14573   */\n      0x00\n        /* \"#utility.yul\":14564:14570   */\n      dup3\n        /* \"#utility.yul\":14560:14574   */\n      add\n        /* \"#utility.yul\":14553:14610   */\n      mstore\n        /* \"#utility.yul\":14436:14617   */\n      pop\n      jump\t// out\n        /* \"#utility.yul\":14623:14989   */\n    tag_317:\n        /* \"#utility.yul\":14765:14768   */\n      0x00\n        /* \"#utility.yul\":14786:14853   */\n      tag_474\n        /* \"#utility.yul\":14850:14852   */\n      0x1f\n        /* \"#utility.yul\":14845:14848   */\n      dup4\n        /* \"#utility.yul\":14786:14853   */\n      tag_291\n      jump\t// in\n    tag_474:\n        /* \"#utility.yul\":14779:14853   */\n      swap2\n      pop\n        /* \"#utility.yul\":14862:14955   */\n      tag_475\n        /* \"#utility.yul\":14951:14954   */\n      dup3\n        /* \"#utility.yul\":14862:14955   */\n      tag_316\n      jump\t// in\n    tag_475:\n        /* \"#utility.yul\":14980:14982   */\n      0x20\n        /* \"#utility.yul\":14975:14978   */\n      dup3\n        /* \"#utility.yul\":14971:14983   */\n      add\n        /* \"#utility.yul\":14964:14983   */\n      swap1\n      pop\n        /* \"#utility.yul\":14623:14989   */\n      swap2\n      swap1\n      pop\n      jump\t// out\n        /* \"#utility.yul\":14995:15414   */\n    tag_195:\n        /* \"#utility.yul\":15161:15165   */\n      0x00\n        /* \"#utility.yul\":15199:15201   */\n      0x20\n        /* \"#utility.yul\":15188:15197   */\n      dup3\n        /* \"#utility.yul\":15184:15202   */\n      add\n        /* \"#utility.yul\":15176:15202   */\n      swap1\n      pop\n        /* \"#utility.yul\":15248:15257   */\n      dup2\n        /* \"#utility.yul\":15242:15246   */\n      dup2\n        /* \"#utility.yul\":15238:15258   */\n      sub\n        /* \"#utility.yul\":15234:15235   */\n      0x00\n        /* \"#utility.yul\":15223:15232   */\n      dup4\n        /* \"#utility.yul\":15219:15236   */\n      add\n        /* \"#utility.yul\":15212:15259   */\n      mstore\n        /* \"#utility.yul\":15276:15407   */\n      tag_477\n        /* \"#utility.yul\":15402:15406   */\n      dup2\n        /* \"#utility.yul\":15276:15407   */\n      tag_317\n      jump\t// in\n    tag_477:\n        /* \"#utility.yul\":15268:15407   */\n      swap1\n      pop\n        /* \"#utility.yul\":14995:15414   */\n      swap2\n      swap1\n      pop\n      jump\t// out\n        /* \"#utility.yul\":15420:15649   */\n    tag_318:\n        /* \"#utility.yul\":15560:15594   */\n      0x45524332303a20617070726f76655265636f7665727920746f20746865207a65\n        /* \"#utility.yul\":15556:15557   */\n      0x00\n        /* \"#utility.yul\":15548:15554   */\n      dup3\n        /* \"#utility.yul\":15544:15558   */\n      add\n        /* \"#utility.yul\":15537:15595   */\n      mstore\n        /* \"#utility.yul\":15629:15641   */\n      0x726f206164647265737300000000000000000000000000000000000000000000\n        /* \"#utility.yul\":15624:15626   */\n      0x20\n        /* \"#utility.yul\":15616:15622   */\n      dup3\n        /* \"#utility.yul\":15612:15627   */\n      add\n        /* \"#utility.yul\":15605:15642   */\n      mstore\n        /* \"#utility.yul\":15420:15649   */\n      pop\n      jump\t// out\n        /* \"#utility.yul\":15655:16021   */\n    tag_319:\n        /* \"#utility.yul\":15797:15800   */\n      0x00\n        /* \"#utility.yul\":15818:15885   */\n      tag_480\n        /* \"#utility.yul\":15882:15884   */\n      0x2a\n        /* \"#utility.yul\":15877:15880   */\n      dup4\n        /* \"#utility.yul\":15818:15885   */\n      tag_291\n      jump\t// in\n    tag_480:\n        /* \"#utility.yul\":15811:15885   */\n      swap2\n      pop\n        /* \"#utility.yul\":15894:15987   */\n      tag_481\n        /* \"#utility.yul\":15983:15986   */\n      dup3\n        /* \"#utility.yul\":15894:15987   */\n      tag_318\n      jump\t// in\n    tag_481:\n        /* \"#utility.yul\":16012:16014   */\n      0x40\n        /* \"#utility.yul\":16007:16010   */\n      dup3\n        /* \"#utility.yul\":16003:16015   */\n      add\n        /* \"#utility.yul\":15996:16015   */\n      swap1\n      pop\n        /* \"#utility.yul\":15655:16021   */\n      swap2\n      swap1\n      pop\n      jump\t// out\n        /* \"#utility.yul\":16027:16446   */\n    tag_199:\n        /* \"#utility.yul\":16193:16197   */\n      0x00\n        /* \"#utility.yul\":16231:16233   */\n      0x20\n        /* \"#utility.yul\":16220:16229   */\n      dup3\n        /* \"#utility.yul\":16216:16234   */\n      add\n        /* \"#utility.yul\":16208:16234   */\n      swap1\n      pop\n        /* \"#utility.yul\":16280:16289   */\n      dup2\n        /* \"#utility.yul\":16274:16278   */\n      dup2\n        /* \"#utility.yul\":16270:16290   */\n      sub\n        /* \"#utility.yul\":16266:16267   */\n      0x00\n        /* \"#utility.yul\":16255:16264   */\n      dup4\n        /* \"#utility.yul\":16251:16268   */\n      add\n        /* \"#utility.yul\":16244:16291   */\n      mstore\n        /* \"#utility.yul\":16308:16439   */\n      tag_483\n        /* \"#utility.yul\":16434:16438   */\n      dup2\n        /* \"#utility.yul\":16308:16439   */\n      tag_319\n      jump\t// in\n    tag_483:\n        /* \"#utility.yul\":16300:16439   */\n      swap1\n      pop\n        /* \"#utility.yul\":16027:16446   */\n      swap2\n      swap1\n      pop\n      jump\t// out\n        /* \"#utility.yul\":16452:16672   */\n    tag_320:\n        /* \"#utility.yul\":16592:16626   */\n      0x45524332303a206163636f756e74206d75737420626520726567697374657265\n        /* \"#utility.yul\":16588:16589   */\n      0x00\n        /* \"#utility.yul\":16580:16586   */\n      dup3\n        /* \"#utility.yul\":16576:16590   */\n      add\n        /* \"#utility.yul\":16569:16627   */\n      mstore\n        /* \"#utility.yul\":16661:16664   */\n      0x6400000000000000000000000000000000000000000000000000000000000000\n        /* \"#utility.yul\":16656:16658   */\n      0x20\n        /* \"#utility.yul\":16648:16654   */\n      dup3\n        /* \"#utility.yul\":16644:16659   */\n      add\n        /* \"#utility.yul\":16637:16665   */\n      mstore\n        /* \"#utility.yul\":16452:16672   */\n      pop\n      jump\t// out\n        /* \"#utility.yul\":16678:17044   */\n    tag_321:\n        /* \"#utility.yul\":16820:16823   */\n      0x00\n        /* \"#utility.yul\":16841:16908   */\n      tag_486\n        /* \"#utility.yul\":16905:16907   */\n      0x21\n        /* \"#utility.yul\":16900:16903   */\n      dup4\n        /* \"#utility.yul\":16841:16908   */\n      tag_291\n      jump\t// in\n    tag_486:\n        /* \"#utility.yul\":16834:16908   */\n      swap2\n      pop\n        /* \"#utility.yul\":16917:17010   */\n      tag_487\n        /* \"#utility.yul\":17006:17009   */\n      dup3\n        /* \"#utility.yul\":16917:17010   */\n      tag_320\n      jump\t// in\n    tag_487:\n        /* \"#utility.yul\":17035:17037   */\n      0x40\n        /* \"#utility.yul\":17030:17033   */\n      dup3\n        /* \"#utility.yul\":17026:17038   */\n      add\n        /* \"#utility.yul\":17019:17038   */\n      swap1\n      pop\n        /* \"#utility.yul\":16678:17044   */\n      swap2\n      swap1\n      pop\n      jump\t// out\n        /* \"#utility.yul\":17050:17469   */\n    tag_202:\n        /* \"#utility.yul\":17216:17220   */\n      0x00\n        /* \"#utility.yul\":17254:17256   */\n      0x20\n        /* \"#utility.yul\":17243:17252   */\n      dup3\n        /* \"#utility.yul\":17239:17257   */\n      add\n        /* \"#utility.yul\":17231:17257   */\n      swap1\n      pop\n        /* \"#utility.yul\":17303:17312   */\n      dup2\n        /* \"#utility.yul\":17297:17301   */\n      dup2\n        /* \"#utility.yul\":17293:17313   */\n      sub\n        /* \"#utility.yul\":17289:17290   */\n      0x00\n        /* \"#utility.yul\":17278:17287   */\n      dup4\n        /* \"#utility.yul\":17274:17291   */\n      add\n        /* \"#utility.yul\":17267:17314   */\n      mstore\n        /* \"#utility.yul\":17331:17462   */\n      tag_489\n        /* \"#utility.yul\":17457:17461   */\n      dup2\n        /* \"#utility.yul\":17331:17462   */\n      tag_321\n      jump\t// in\n    tag_489:\n        /* \"#utility.yul\":17323:17462   */\n      swap1\n      pop\n        /* \"#utility.yul\":17050:17469   */\n      swap2\n      swap1\n      pop\n      jump\t// out\n        /* \"#utility.yul\":17475:17697   */\n    tag_213:\n        /* \"#utility.yul\":17568:17572   */\n      0x00\n        /* \"#utility.yul\":17606:17608   */\n      0x20\n        /* \"#utility.yul\":17595:17604   */\n      dup3\n        /* \"#utility.yul\":17591:17609   */\n      add\n        /* \"#utility.yul\":17583:17609   */\n      swap1\n      pop\n        /* \"#utility.yul\":17619:17690   */\n      tag_491\n        /* \"#utility.yul\":17687:17688   */\n      0x00\n        /* \"#utility.yul\":17676:17685   */\n      dup4\n        /* \"#utility.yul\":17672:17689   */\n      add\n        /* \"#utility.yul\":17663:17669   */\n      dup5\n        /* \"#utility.yul\":17619:17690   */\n      tag_287\n      jump\t// in\n    tag_491:\n        /* \"#utility.yul\":17475:17697   */\n      swap3\n      swap2\n      pop\n      pop\n      jump\t// out\n        /* \"#utility.yul\":17703:17927   */\n    tag_322:\n        /* \"#utility.yul\":17843:17877   */\n      0x45524332303a2064656372656173656420616c6c6f77616e63652062656c6f77\n        /* \"#utility.yul\":17839:17840   */\n      0x00\n        /* \"#utility.yul\":17831:17837   */\n      dup3\n        /* \"#utility.yul\":17827:17841   */\n      add\n        /* \"#utility.yul\":17820:17878   */\n      mstore\n        /* \"#utility.yul\":17912:17919   */\n      0x207a65726f000000000000000000000000000000000000000000000000000000\n        /* \"#utility.yul\":17907:17909   */\n      0x20\n        /* \"#utility.yul\":17899:17905   */\n      dup3\n        /* \"#utility.yul\":17895:17910   */\n      add\n        /* \"#utility.yul\":17888:17920   */\n      mstore\n        /* \"#utility.yul\":17703:17927   */\n      pop\n      jump\t// out\n        /* \"#utility.yul\":17933:18299   */\n    tag_323:\n        /* \"#utility.yul\":18075:18078   */\n      0x00\n        /* \"#utility.yul\":18096:18163   */\n      tag_494\n        /* \"#utility.yul\":18160:18162   */\n      0x25\n        /* \"#utility.yul\":18155:18158   */\n      dup4\n        /* \"#utility.yul\":18096:18163   */\n      tag_291\n      jump\t// in\n    tag_494:\n        /* \"#utility.yul\":18089:18163   */\n      swap2\n      pop\n        /* \"#utility.yul\":18172:18265   */\n      tag_495\n        /* \"#utility.yul\":18261:18264   */\n      dup3\n        /* \"#utility.yul\":18172:18265   */\n      tag_322\n      jump\t// in\n    tag_495:\n        /* \"#utility.yul\":18290:18292   */\n      0x40\n        /* \"#utility.yul\":18285:18288   */\n      dup3\n        /* \"#utility.yul\":18281:18293   */\n      add\n        /* \"#utility.yul\":18274:18293   */\n      swap1\n      pop\n        /* \"#utility.yul\":17933:18299   */\n      swap2\n      swap1\n      pop\n      jump\t// out\n        /* \"#utility.yul\":18305:18724   */\n    tag_224:\n        /* \"#utility.yul\":18471:18475   */\n      0x00\n        /* \"#utility.yul\":18509:18511   */\n      0x20\n        /* \"#utility.yul\":18498:18507   */\n      dup3\n        /* \"#utility.yul\":18494:18512   */\n      add\n        /* \"#utility.yul\":18486:18512   */\n      swap1\n      pop\n        /* \"#utility.yul\":18558:18567   */\n      dup2\n        /* \"#utility.yul\":18552:18556   */\n      dup2\n        /* \"#utility.yul\":18548:18568   */\n      sub\n        /* \"#utility.yul\":18544:18545   */\n      0x00\n        /* \"#utility.yul\":18533:18542   */\n      dup4\n        /* \"#utility.yul\":18529:18546   */\n      add\n        /* \"#utility.yul\":18522:18569   */\n      mstore\n        /* \"#utility.yul\":18586:18717   */\n      tag_497\n        /* \"#utility.yul\":18712:18716   */\n      dup2\n        /* \"#utility.yul\":18586:18717   */\n      tag_323\n      jump\t// in\n    tag_497:\n        /* \"#utility.yul\":18578:18717   */\n      swap1\n      pop\n        /* \"#utility.yul\":18305:18724   */\n      swap2\n      swap1\n      pop\n      jump\t// out\n        /* \"#utility.yul\":18730:18907   */\n    tag_324:\n        /* \"#utility.yul\":18870:18899   */\n      0x546f6b656e2062616c616e6365206973206e6f7420656e6f7567680000000000\n        /* \"#utility.yul\":18866:18867   */\n      0x00\n        /* \"#utility.yul\":18858:18864   */\n      dup3\n        /* \"#utility.yul\":18854:18868   */\n      add\n        /* \"#utility.yul\":18847:18900   */\n      mstore\n        /* \"#utility.yul\":18730:18907   */\n      pop\n      jump\t// out\n        /* \"#utility.yul\":18913:19279   */\n    tag_325:\n        /* \"#utility.yul\":19055:19058   */\n      0x00\n        /* \"#utility.yul\":19076:19143   */\n      tag_500\n        /* \"#utility.yul\":19140:19142   */\n      0x1b\n        /* \"#utility.yul\":19135:19138   */\n      dup4\n        /* \"#utility.yul\":19076:19143   */\n      tag_291\n      jump\t// in\n    tag_500:\n        /* \"#utility.yul\":19069:19143   */\n      swap2\n      pop\n        /* \"#utility.yul\":19152:19245   */\n      tag_501\n        /* \"#utility.yul\":19241:19244   */\n      dup3\n        /* \"#utility.yul\":19152:19245   */\n      tag_324\n      jump\t// in\n    tag_501:\n        /* \"#utility.yul\":19270:19272   */\n      0x20\n        /* \"#utility.yul\":19265:19268   */\n      dup3\n        /* \"#utility.yul\":19261:19273   */\n      add\n        /* \"#utility.yul\":19254:19273   */\n      swap1\n      pop\n        /* \"#utility.yul\":18913:19279   */\n      swap2\n      swap1\n      pop\n      jump\t// out\n        /* \"#utility.yul\":19285:19704   */\n    tag_232:\n        /* \"#utility.yul\":19451:19455   */\n      0x00\n        /* \"#utility.yul\":19489:19491   */\n      0x20\n        /* \"#utility.yul\":19478:19487   */\n      dup3\n        /* \"#utility.yul\":19474:19492   */\n      add\n        /* \"#utility.yul\":19466:19492   */\n      swap1\n      pop\n        /* \"#utility.yul\":19538:19547   */\n      dup2\n        /* \"#utility.yul\":19532:19536   */\n      dup2\n        /* \"#utility.yul\":19528:19548   */\n      sub\n        /* \"#utility.yul\":19524:19525   */\n      0x00\n        /* \"#utility.yul\":19513:19522   */\n      dup4\n        /* \"#utility.yul\":19509:19526   */\n      add\n        /* \"#utility.yul\":19502:19549   */\n      mstore\n        /* \"#utility.yul\":19566:19697   */\n      tag_503\n        /* \"#utility.yul\":19692:19696   */\n      dup2\n        /* \"#utility.yul\":19566:19697   */\n      tag_325\n      jump\t// in\n    tag_503:\n        /* \"#utility.yul\":19558:19697   */\n      swap1\n      pop\n        /* \"#utility.yul\":19285:19704   */\n      swap2\n      swap1\n      pop\n      jump\t// out\n        /* \"#utility.yul\":19710:19890   */\n    tag_326:\n        /* \"#utility.yul\":19758:19835   */\n      0x4e487b7100000000000000000000000000000000000000000000000000000000\n        /* \"#utility.yul\":19755:19756   */\n      0x00\n        /* \"#utility.yul\":19748:19836   */\n      mstore\n        /* \"#utility.yul\":19855:19859   */\n      0x12\n        /* \"#utility.yul\":19852:19853   */\n      0x04\n        /* \"#utility.yul\":19845:19860   */\n      mstore\n        /* \"#utility.yul\":19879:19883   */\n      0x24\n        /* \"#utility.yul\":19876:19877   */\n      0x00\n        /* \"#utility.yul\":19869:19884   */\n      revert\n        /* \"#utility.yul\":19896:20081   */\n    tag_234:\n        /* \"#utility.yul\":19936:19937   */\n      0x00\n        /* \"#utility.yul\":19953:19973   */\n      tag_506\n        /* \"#utility.yul\":19971:19972   */\n      dup3\n        /* \"#utility.yul\":19953:19973   */\n      tag_284\n      jump\t// in\n    tag_506:\n        /* \"#utility.yul\":19948:19973   */\n      swap2\n      pop\n        /* \"#utility.yul\":19987:20007   */\n      tag_507\n        /* \"#utility.yul\":20005:20006   */\n      dup4\n        /* \"#utility.yul\":19987:20007   */\n      tag_284\n      jump\t// in\n    tag_507:\n        /* \"#utility.yul\":19982:20007   */\n      swap3\n      pop\n        /* \"#utility.yul\":20026:20027   */\n      dup3\n        /* \"#utility.yul\":20016:20051   */\n      tag_508\n      jumpi\n        /* \"#utility.yul\":20031:20049   */\n      tag_509\n      tag_326\n      jump\t// in\n    tag_509:\n        /* \"#utility.yul\":20016:20051   */\n    tag_508:\n        /* \"#utility.yul\":20073:20074   */\n      dup3\n        /* \"#utility.yul\":20070:20071   */\n      dup3\n        /* \"#utility.yul\":20066:20075   */\n      div\n        /* \"#utility.yul\":20061:20075   */\n      swap1\n      pop\n        /* \"#utility.yul\":19896:20081   */\n      swap3\n      swap2\n      pop\n      pop\n      jump\t// out\n        /* \"#utility.yul\":20087:20263   */\n    tag_236:\n        /* \"#utility.yul\":20119:20120   */\n      0x00\n        /* \"#utility.yul\":20136:20156   */\n      tag_511\n        /* \"#utility.yul\":20154:20155   */\n      dup3\n        /* \"#utility.yul\":20136:20156   */\n      tag_284\n      jump\t// in\n    tag_511:\n        /* \"#utility.yul\":20131:20156   */\n      swap2\n      pop\n        /* \"#utility.yul\":20170:20190   */\n      tag_512\n        /* \"#utility.yul\":20188:20189   */\n      dup4\n        /* \"#utility.yul\":20170:20190   */\n      tag_284\n      jump\t// in\n    tag_512:\n        /* \"#utility.yul\":20165:20190   */\n      swap3\n      pop\n        /* \"#utility.yul\":20209:20210   */\n      dup3\n        /* \"#utility.yul\":20199:20234   */\n      tag_513\n      jumpi\n        /* \"#utility.yul\":20214:20232   */\n      tag_514\n      tag_326\n      jump\t// in\n    tag_514:\n        /* \"#utility.yul\":20199:20234   */\n    tag_513:\n        /* \"#utility.yul\":20255:20256   */\n      dup3\n        /* \"#utility.yul\":20252:20253   */\n      dup3\n        /* \"#utility.yul\":20248:20257   */\n      mod\n        /* \"#utility.yul\":20243:20257   */\n      swap1\n      pop\n        /* \"#utility.yul\":20087:20263   */\n      swap3\n      swap2\n      pop\n      pop\n      jump\t// out\n        /* \"#utility.yul\":20269:20463   */\n    tag_239:\n        /* \"#utility.yul\":20309:20313   */\n      0x00\n        /* \"#utility.yul\":20329:20349   */\n      tag_516\n        /* \"#utility.yul\":20347:20348   */\n      dup3\n        /* \"#utility.yul\":20329:20349   */\n      tag_284\n      jump\t// in\n    tag_516:\n        /* \"#utility.yul\":20324:20349   */\n      swap2\n      pop\n        /* \"#utility.yul\":20363:20383   */\n      tag_517\n        /* \"#utility.yul\":20381:20382   */\n      dup4\n        /* \"#utility.yul\":20363:20383   */\n      tag_284\n      jump\t// in\n    tag_517:\n        /* \"#utility.yul\":20358:20383   */\n      swap3\n      pop\n        /* \"#utility.yul\":20407:20408   */\n      dup3\n        /* \"#utility.yul\":20404:20405   */\n      dup3\n        /* \"#utility.yul\":20400:20409   */\n      sub\n        /* \"#utility.yul\":20392:20409   */\n      swap1\n      pop\n        /* \"#utility.yul\":20431:20432   */\n      dup2\n        /* \"#utility.yul\":20425:20429   */\n      dup2\n        /* \"#utility.yul\":20422:20433   */\n      gt\n        /* \"#utility.yul\":20419:20456   */\n      iszero\n      tag_518\n      jumpi\n        /* \"#utility.yul\":20436:20454   */\n      tag_519\n      tag_307\n      jump\t// in\n    tag_519:\n        /* \"#utility.yul\":20419:20456   */\n    tag_518:\n        /* \"#utility.yul\":20269:20463   */\n      swap3\n      swap2\n      pop\n      pop\n      jump\t// out\n        /* \"#utility.yul\":20469:20692   */\n    tag_327:\n        /* \"#utility.yul\":20609:20643   */\n      0x45524332303a20617070726f76652066726f6d20746865207a65726f20616464\n        /* \"#utility.yul\":20605:20606   */\n      0x00\n        /* \"#utility.yul\":20597:20603   */\n      dup3\n        /* \"#utility.yul\":20593:20607   */\n      add\n        /* \"#utility.yul\":20586:20644   */\n      mstore\n        /* \"#utility.yul\":20678:20684   */\n      0x7265737300000000000000000000000000000000000000000000000000000000\n        /* \"#utility.yul\":20673:20675   */\n      0x20\n        /* \"#utility.yul\":20665:20671   */\n      dup3\n        /* \"#utility.yul\":20661:20676   */\n      add\n        /* \"#utility.yul\":20654:20685   */\n      mstore\n        /* \"#utility.yul\":20469:20692   */\n      pop\n      jump\t// out\n        /* \"#utility.yul\":20698:21064   */\n    tag_328:\n        /* \"#utility.yul\":20840:20843   */\n      0x00\n        /* \"#utility.yul\":20861:20928   */\n      tag_522\n        /* \"#utility.yul\":20925:20927   */\n      0x24\n        /* \"#utility.yul\":20920:20923   */\n      dup4\n        /* \"#utility.yul\":20861:20928   */\n      tag_291\n      jump\t// in\n    tag_522:\n        /* \"#utility.yul\":20854:20928   */\n      swap2\n      pop\n        /* \"#utility.yul\":20937:21030   */\n      tag_523\n        /* \"#utility.yul\":21026:21029   */\n      dup3\n        /* \"#utility.yul\":20937:21030   */\n      tag_327\n      jump\t// in\n    tag_523:\n        /* \"#utility.yul\":21055:21057   */\n      0x40\n        /* \"#utility.yul\":21050:21053   */\n      dup3\n        /* \"#utility.yul\":21046:21058   */\n      add\n        /* \"#utility.yul\":21039:21058   */\n      swap1\n      pop\n        /* \"#utility.yul\":20698:21064   */\n      swap2\n      swap1\n      pop\n      jump\t// out\n        /* \"#utility.yul\":21070:21489   */\n    tag_259:\n        /* \"#utility.yul\":21236:21240   */\n      0x00\n        /* \"#utility.yul\":21274:21276   */\n      0x20\n        /* \"#utility.yul\":21263:21272   */\n      dup3\n        /* \"#utility.yul\":21259:21277   */\n      add\n        /* \"#utility.yul\":21251:21277   */\n      swap1\n      pop\n        /* \"#utility.yul\":21323:21332   */\n      dup2\n        /* \"#utility.yul\":21317:21321   */\n      dup2\n        /* \"#utility.yul\":21313:21333   */\n      sub\n        /* \"#utility.yul\":21309:21310   */\n      0x00\n        /* \"#utility.yul\":21298:21307   */\n      dup4\n        /* \"#utility.yul\":21294:21311   */\n      add\n        /* \"#utility.yul\":21287:21334   */\n      mstore\n        /* \"#utility.yul\":21351:21482   */\n      tag_525\n        /* \"#utility.yul\":21477:21481   */\n      dup2\n        /* \"#utility.yul\":21351:21482   */\n      tag_328\n      jump\t// in\n    tag_525:\n        /* \"#utility.yul\":21343:21482   */\n      swap1\n      pop\n        /* \"#utility.yul\":21070:21489   */\n      swap2\n      swap1\n      pop\n      jump\t// out\n        /* \"#utility.yul\":21495:21716   */\n    tag_329:\n        /* \"#utility.yul\":21635:21669   */\n      0x45524332303a20617070726f766520746f20746865207a65726f206164647265\n        /* \"#utility.yul\":21631:21632   */\n      0x00\n        /* \"#utility.yul\":21623:21629   */\n      dup3\n        /* \"#utility.yul\":21619:21633   */\n      add\n        /* \"#utility.yul\":21612:21670   */\n      mstore\n        /* \"#utility.yul\":21704:21708   */\n      0x7373000000000000000000000000000000000000000000000000000000000000\n        /* \"#utility.yul\":21699:21701   */\n      0x20\n        /* \"#utility.yul\":21691:21697   */\n      dup3\n        /* \"#utility.yul\":21687:21702   */\n      add\n        /* \"#utility.yul\":21680:21709   */\n      mstore\n        /* \"#utility.yul\":21495:21716   */\n      pop\n      jump\t// out\n        /* \"#utility.yul\":21722:22088   */\n    tag_330:\n        /* \"#utility.yul\":21864:21867   */\n      0x00\n        /* \"#utility.yul\":21885:21952   */\n      tag_528\n        /* \"#utility.yul\":21949:21951   */\n      0x22\n        /* \"#utility.yul\":21944:21947   */\n      dup4\n        /* \"#utility.yul\":21885:21952   */\n      tag_291\n      jump\t// in\n    tag_528:\n        /* \"#utility.yul\":21878:21952   */\n      swap2\n      pop\n        /* \"#utility.yul\":21961:22054   */\n      tag_529\n        /* \"#utility.yul\":22050:22053   */\n      dup3\n        /* \"#utility.yul\":21961:22054   */\n      tag_329\n      jump\t// in\n    tag_529:\n        /* \"#utility.yul\":22079:22081   */\n      0x40\n        /* \"#utility.yul\":22074:22077   */\n      dup3\n        /* \"#utility.yul\":22070:22082   */\n      add\n        /* \"#utility.yul\":22063:22082   */\n      swap1\n      pop\n        /* \"#utility.yul\":21722:22088   */\n      swap2\n      swap1\n      pop\n      jump\t// out\n        /* \"#utility.yul\":22094:22513   */\n    tag_262:\n        /* \"#utility.yul\":22260:22264   */\n      0x00\n        /* \"#utility.yul\":22298:22300   */\n      0x20\n        /* \"#utility.yul\":22287:22296   */\n      dup3\n        /* \"#utility.yul\":22283:22301   */\n      add\n        /* \"#utility.yul\":22275:22301   */\n      swap1\n      pop\n        /* \"#utility.yul\":22347:22356   */\n      dup2\n        /* \"#utility.yul\":22341:22345   */\n      dup2\n        /* \"#utility.yul\":22337:22357   */\n      sub\n        /* \"#utility.yul\":22333:22334   */\n      0x00\n        /* \"#utility.yul\":22322:22331   */\n      dup4\n        /* \"#utility.yul\":22318:22335   */\n      add\n        /* \"#utility.yul\":22311:22358   */\n      mstore\n        /* \"#utility.yul\":22375:22506   */\n      tag_531\n        /* \"#utility.yul\":22501:22505   */\n      dup2\n        /* \"#utility.yul\":22375:22506   */\n      tag_330\n      jump\t// in\n    tag_531:\n        /* \"#utility.yul\":22367:22506   */\n      swap1\n      pop\n        /* \"#utility.yul\":22094:22513   */\n      swap2\n      swap1\n      pop\n      jump\t// out\n        /* \"#utility.yul\":22519:22743   */\n    tag_331:\n        /* \"#utility.yul\":22659:22693   */\n      0x45524332303a207472616e736665722066726f6d20746865207a65726f206164\n        /* \"#utility.yul\":22655:22656   */\n      0x00\n        /* \"#utility.yul\":22647:22653   */\n      dup3\n        /* \"#utility.yul\":22643:22657   */\n      add\n        /* \"#utility.yul\":22636:22694   */\n      mstore\n        /* \"#utility.yul\":22728:22735   */\n      0x6472657373000000000000000000000000000000000000000000000000000000\n        /* \"#utility.yul\":22723:22725   */\n      0x20\n        /* \"#utility.yul\":22715:22721   */\n      dup3\n        /* \"#utility.yul\":22711:22726   */\n      add\n        /* \"#utility.yul\":22704:22736   */\n      mstore\n        /* \"#utility.yul\":22519:22743   */\n      pop\n      jump\t// out\n        /* \"#utility.yul\":22749:23115   */\n    tag_332:\n        /* \"#utility.yul\":22891:22894   */\n      0x00\n        /* \"#utility.yul\":22912:22979   */\n      tag_534\n        /* \"#utility.yul\":22976:22978   */\n      0x25\n        /* \"#utility.yul\":22971:22974   */\n      dup4\n        /* \"#utility.yul\":22912:22979   */\n      tag_291\n      jump\t// in\n    tag_534:\n        /* \"#utility.yul\":22905:22979   */\n      swap2\n      pop\n        /* \"#utility.yul\":22988:23081   */\n      tag_535\n        /* \"#utility.yul\":23077:23080   */\n      dup3\n        /* \"#utility.yul\":22988:23081   */\n      tag_331\n      jump\t// in\n    tag_535:\n        /* \"#utility.yul\":23106:23108   */\n      0x40\n        /* \"#utility.yul\":23101:23104   */\n      dup3\n        /* \"#utility.yul\":23097:23109   */\n      add\n        /* \"#utility.yul\":23090:23109   */\n      swap1\n      pop\n        /* \"#utility.yul\":22749:23115   */\n      swap2\n      swap1\n      pop\n      jump\t// out\n        /* \"#utility.yul\":23121:23540   */\n    tag_267:\n        /* \"#utility.yul\":23287:23291   */\n      0x00\n        /* \"#utility.yul\":23325:23327   */\n      0x20\n        /* \"#utility.yul\":23314:23323   */\n      dup3\n        /* \"#utility.yul\":23310:23328   */\n      add\n        /* \"#utility.yul\":23302:23328   */\n      swap1\n      pop\n        /* \"#utility.yul\":23374:23383   */\n      dup2\n        /* \"#utility.yul\":23368:23372   */\n      dup2\n        /* \"#utility.yul\":23364:23384   */\n      sub\n        /* \"#utility.yul\":23360:23361   */\n      0x00\n        /* \"#utility.yul\":23349:23358   */\n      dup4\n        /* \"#utility.yul\":23345:23362   */\n      add\n        /* \"#utility.yul\":23338:23385   */\n      mstore\n        /* \"#utility.yul\":23402:23533   */\n      tag_537\n        /* \"#utility.yul\":23528:23532   */\n      dup2\n        /* \"#utility.yul\":23402:23533   */\n      tag_332\n      jump\t// in\n    tag_537:\n        /* \"#utility.yul\":23394:23533   */\n      swap1\n      pop\n        /* \"#utility.yul\":23121:23540   */\n      swap2\n      swap1\n      pop\n      jump\t// out\n        /* \"#utility.yul\":23546:23768   */\n    tag_333:\n        /* \"#utility.yul\":23686:23720   */\n      0x45524332303a207472616e7366657220746f20746865207a65726f2061646472\n        /* \"#utility.yul\":23682:23683   */\n      0x00\n        /* \"#utility.yul\":23674:23680   */\n      dup3\n        /* \"#utility.yul\":23670:23684   */\n      add\n        /* \"#utility.yul\":23663:23721   */\n      mstore\n        /* \"#utility.yul\":23755:23760   */\n      0x6573730000000000000000000000000000000000000000000000000000000000\n        /* \"#utility.yul\":23750:23752   */\n      0x20\n        /* \"#utility.yul\":23742:23748   */\n      dup3\n        /* \"#utility.yul\":23738:23753   */\n      add\n        /* \"#utility.yul\":23731:23761   */\n      mstore\n        /* \"#utility.yul\":23546:23768   */\n      pop\n      jump\t// out\n        /* \"#utility.yul\":23774:24140   */\n    tag_334:\n        /* \"#utility.yul\":23916:23919   */\n      0x00\n        /* \"#utility.yul\":23937:24004   */\n      tag_540\n        /* \"#utility.yul\":24001:24003   */\n      0x23\n        /* \"#utility.yul\":23996:23999   */\n      dup4\n        /* \"#utility.yul\":23937:24004   */\n      tag_291\n      jump\t// in\n    tag_540:\n        /* \"#utility.yul\":23930:24004   */\n      swap2\n      pop\n        /* \"#utility.yul\":24013:24106   */\n      tag_541\n        /* \"#utility.yul\":24102:24105   */\n      dup3\n        /* \"#utility.yul\":24013:24106   */\n      tag_333\n      jump\t// in\n    tag_541:\n        /* \"#utility.yul\":24131:24133   */\n      0x40\n        /* \"#utility.yul\":24126:24129   */\n      dup3\n        /* \"#utility.yul\":24122:24134   */\n      add\n        /* \"#utility.yul\":24115:24134   */\n      swap1\n      pop\n        /* \"#utility.yul\":23774:24140   */\n      swap2\n      swap1\n      pop\n      jump\t// out\n        /* \"#utility.yul\":24146:24565   */\n    tag_270:\n        /* \"#utility.yul\":24312:24316   */\n      0x00\n        /* \"#utility.yul\":24350:24352   */\n      0x20\n        /* \"#utility.yul\":24339:24348   */\n      dup3\n        /* \"#utility.yul\":24335:24353   */\n      add\n        /* \"#utility.yul\":24327:24353   */\n      swap1\n      pop\n        /* \"#utility.yul\":24399:24408   */\n      dup2\n        /* \"#utility.yul\":24393:24397   */\n      dup2\n        /* \"#utility.yul\":24389:24409   */\n      sub\n        /* \"#utility.yul\":24385:24386   */\n      0x00\n        /* \"#utility.yul\":24374:24383   */\n      dup4\n        /* \"#utility.yul\":24370:24387   */\n      add\n        /* \"#utility.yul\":24363:24410   */\n      mstore\n        /* \"#utility.yul\":24427:24558   */\n      tag_543\n        /* \"#utility.yul\":24553:24557   */\n      dup2\n        /* \"#utility.yul\":24427:24558   */\n      tag_334\n      jump\t// in\n    tag_543:\n        /* \"#utility.yul\":24419:24558   */\n      swap1\n      pop\n        /* \"#utility.yul\":24146:24565   */\n      swap2\n      swap1\n      pop\n      jump\t// out\n        /* \"#utility.yul\":24571:24796   */\n    tag_335:\n        /* \"#utility.yul\":24711:24745   */\n      0x45524332303a207472616e7366657220616d6f756e7420657863656564732062\n        /* \"#utility.yul\":24707:24708   */\n      0x00\n        /* \"#utility.yul\":24699:24705   */\n      dup3\n        /* \"#utility.yul\":24695:24709   */\n      add\n        /* \"#utility.yul\":24688:24746   */\n      mstore\n        /* \"#utility.yul\":24780:24788   */\n      0x616c616e63650000000000000000000000000000000000000000000000000000\n        /* \"#utility.yul\":24775:24777   */\n      0x20\n        /* \"#utility.yul\":24767:24773   */\n      dup3\n        /* \"#utility.yul\":24763:24778   */\n      add\n        /* \"#utility.yul\":24756:24789   */\n      mstore\n        /* \"#utility.yul\":24571:24796   */\n      pop\n      jump\t// out\n        /* \"#utility.yul\":24802:25168   */\n    tag_336:\n        /* \"#utility.yul\":24944:24947   */\n      0x00\n        /* \"#utility.yul\":24965:25032   */\n      tag_546\n        /* \"#utility.yul\":25029:25031   */\n      0x26\n        /* \"#utility.yul\":25024:25027   */\n      dup4\n        /* \"#utility.yul\":24965:25032   */\n      tag_291\n      jump\t// in\n    tag_546:\n        /* \"#utility.yul\":24958:25032   */\n      swap2\n      pop\n        /* \"#utility.yul\":25041:25134   */\n      tag_547\n        /* \"#utility.yul\":25130:25133   */\n      dup3\n        /* \"#utility.yul\":25041:25134   */\n      tag_335\n      jump\t// in\n    tag_547:\n        /* \"#utility.yul\":25159:25161   */\n      0x40\n        /* \"#utility.yul\":25154:25157   */\n      dup3\n        /* \"#utility.yul\":25150:25162   */\n      add\n        /* \"#utility.yul\":25143:25162   */\n      swap1\n      pop\n        /* \"#utility.yul\":24802:25168   */\n      swap2\n      swap1\n      pop\n      jump\t// out\n        /* \"#utility.yul\":25174:25593   */\n    tag_273:\n        /* \"#utility.yul\":25340:25344   */\n      0x00\n        /* \"#utility.yul\":25378:25380   */\n      0x20\n        /* \"#utility.yul\":25367:25376   */\n      dup3\n        /* \"#utility.yul\":25363:25381   */\n      add\n        /* \"#utility.yul\":25355:25381   */\n      swap1\n      pop\n        /* \"#utility.yul\":25427:25436   */\n      dup2\n        /* \"#utility.yul\":25421:25425   */\n      dup2\n        /* \"#utility.yul\":25417:25437   */\n      sub\n        /* \"#utility.yul\":25413:25414   */\n      0x00\n        /* \"#utility.yul\":25402:25411   */\n      dup4\n        /* \"#utility.yul\":25398:25415   */\n      add\n        /* \"#utility.yul\":25391:25438   */\n      mstore\n        /* \"#utility.yul\":25455:25586   */\n      tag_549\n        /* \"#utility.yul\":25581:25585   */\n      dup2\n        /* \"#utility.yul\":25455:25586   */\n      tag_336\n      jump\t// in\n    tag_549:\n        /* \"#utility.yul\":25447:25586   */\n      swap1\n      pop\n        /* \"#utility.yul\":25174:25593   */\n      swap2\n      swap1\n      pop\n      jump\t// out\n\n    auxdata: 0xa26469706673582212202a0a48e633ebf1f3bf7205bda14438f611f64a5f9f67ec0b53d131587bd697df64736f6c63430008120033\n}\n",
				"bytecode": {
					"linkReferences": {},
					"object": "60806040523480156200001157600080fd5b506040516200333138038062003331833981810160405281019062000037919062000252565b816004908162000048919062000522565b5080600590816200005a919062000522565b5033600660006101000a81548173ffffffffffffffffffffffffffffffffffffffff021916908373ffffffffffffffffffffffffffffffffffffffff1602179055506000600360006101000a81548160ff021916908315150217905550505062000609565b6000604051905090565b600080fd5b600080fd5b600080fd5b600080fd5b6000601f19601f8301169050919050565b7f4e487b7100000000000000000000000000000000000000000000000000000000600052604160045260246000fd5b6200012882620000dd565b810181811067ffffffffffffffff821117156200014a5762000149620000ee565b5b80604052505050565b60006200015f620000bf565b90506200016d82826200011d565b919050565b600067ffffffffffffffff82111562000190576200018f620000ee565b5b6200019b82620000dd565b9050602081019050919050565b60005b83811015620001c8578082015181840152602081019050620001ab565b60008484015250505050565b6000620001eb620001e58462000172565b62000153565b9050828152602081018484840111156200020a5762000209620000d8565b5b62000217848285620001a8565b509392505050565b600082601f830112620002375762000236620000d3565b5b815162000249848260208601620001d4565b91505092915050565b600080604083850312156200026c576200026b620000c9565b5b600083015167ffffffffffffffff8111156200028d576200028c620000ce565b5b6200029b858286016200021f565b925050602083015167ffffffffffffffff811115620002bf57620002be620000ce565b5b620002cd858286016200021f565b9150509250929050565b600081519050919050565b7f4e487b7100000000000000000000000000000000000000000000000000000000600052602260045260246000fd5b600060028204905060018216806200032a57607f821691505b60208210810362000340576200033f620002e2565b5b50919050565b60008190508160005260206000209050919050565b60006020601f8301049050919050565b600082821b905092915050565b600060088302620003aa7fffffffffffffffffffffffffffffffffffffffffffffffffffffffffffffffff826200036b565b620003b686836200036b565b95508019841693508086168417925050509392505050565b6000819050919050565b6000819050919050565b600062000403620003fd620003f784620003ce565b620003d8565b620003ce565b9050919050565b6000819050919050565b6200041f83620003e2565b620004376200042e826200040a565b84845462000378565b825550505050565b600090565b6200044e6200043f565b6200045b81848462000414565b505050565b5b8181101562000483576200047760008262000444565b60018101905062000461565b5050565b601f821115620004d2576200049c8162000346565b620004a7846200035b565b81016020851015620004b7578190505b620004cf620004c6856200035b565b83018262000460565b50505b505050565b600082821c905092915050565b6000620004f760001984600802620004d7565b1980831691505092915050565b6000620005128383620004e4565b9150826002028217905092915050565b6200052d82620002d7565b67ffffffffffffffff811115620005495762000548620000ee565b5b62000555825462000311565b6200056282828562000487565b600060209050601f8311600181146200059a576000841562000585578287015190505b62000591858262000504565b86555062000601565b601f198416620005aa8662000346565b60005b82811015620005d457848901518255600182019150602085019450602081019050620005ad565b86831015620005f45784890151620005f0601f891682620004e4565b8355505b6001600288020188555050505b505050505050565b612d1880620006196000396000f3fe6080604052600436106101405760003560e01c8063648bf774116100b6578063a457c2d71161006f578063a457c2d714610455578063a9059cbb14610492578063b7d122b5146104cf578063bd6f529e146104fa578063dd62ed3e14610537578063e25c4cf51461057457610140565b8063648bf774146103685780636e6ce65f1461039157806370a08231146103ad5780638456cb59146103ea5780638f1de16e1461040157806395d89b411461042a57610140565b8063313ce56711610108578063313ce5671461025657806339509351146102815780633eaaf86b146102be5780633f4ba83a146102e95780634473ad52146103005780635c975abb1461033d57610140565b8063038defd71461014557806306fdde0314610186578063095ea7b3146101b157806318160ddd146101ee57806323b872dd14610219575b600080fd5b34801561015157600080fd5b5061016c60048036038101906101679190611f6f565b61059f565b60405161017d959493929190611fe9565b60405180910390f35b34801561019257600080fd5b5061019b6105e2565b6040516101a891906120cc565b60405180910390f35b3480156101bd57600080fd5b506101d860048036038101906101d3919061211a565b610674565b6040516101e5919061215a565b60405180910390f35b3480156101fa57600080fd5b50610203610690565b6040516102109190612175565b60405180910390f35b34801561022557600080fd5b50610240600480360381019061023b9190612190565b61069a565b60405161024d919061215a565b60405180910390f35b34801561026257600080fd5b5061026b610766565b60405161027891906121ff565b60405180910390f35b34801561028d57600080fd5b506102a860048036038101906102a3919061211a565b61076f565b6040516102b5919061215a565b60405180910390f35b3480156102ca57600080fd5b506102d361079f565b6040516102e09190612175565b60405180910390f35b3480156102f557600080fd5b506102fe6107a5565b005b34801561030c57600080fd5b5061032760048036038101906103229190611f6f565b610852565b6040516103349190612175565b60405180910390f35b34801561034957600080fd5b5061035261089d565b60405161035f919061215a565b60405180910390f35b34801561037457600080fd5b5061038f600480360381019061038a919061221a565b6108b0565b005b6103ab60048036038101906103a69190611f6f565b610e2d565b005b3480156103b957600080fd5b506103d460048036038101906103cf9190611f6f565b610fc2565b6040516103e19190612175565b60405180910390f35b3480156103f657600080fd5b506103ff61100d565b005b34801561040d57600080fd5b5061042860048036038101906104239190612286565b611109565b005b34801561043657600080fd5b5061043f6111a0565b60405161044c91906120cc565b60405180910390f35b34801561046157600080fd5b5061047c6004803603810190610477919061211a565b611232565b604051610489919061215a565b60405180910390f35b34801561049e57600080fd5b506104b960048036038101906104b4919061211a565b6112a2565b6040516104c6919061215a565b60405180910390f35b3480156104db57600080fd5b506104e46119c3565b6040516104f19190612175565b60405180910390f35b34801561050657600080fd5b50610521600480360381019061051c9190611f6f565b6119cf565b60405161052e9190612175565b60405180910390f35b34801561054357600080fd5b5061055e6004803603810190610559919061221a565b611a1a565b60405161056b9190612175565b60405180910390f35b34801561058057600080fd5b50610589611aa1565b60405161059691906122c2565b60405180910390f35b60006020528060005260406000206000915090508060000154908060010154908060020154908060030154908060040160009054906101000a900460ff16905085565b6060600480546105f19061230c565b80601f016020809104026020016040519081016040528092919081815260200182805461061d9061230c565b801561066a5780601f1061063f5761010080835404028352916020019161066a565b820191906000526020600020905b81548152906001019060200180831161064d57829003601f168201915b5050505050905090565b600080339050610685818585611ac7565b600191505092915050565b6000600254905090565b6000600360009054906101000a900460ff166106eb576040517f08c379a00000000000000000000000000000000000000000000000000000000081526004016106e290612389565b60405180910390fd5b600033905060006106fc8683611a1a565b905083811015610741576040517f08c379a00000000000000000000000000000000000000000000000000000000081526004016107389061241b565b60405180910390fd5b61074e8683868403611ac7565b610759868686611c90565b6001925050509392505050565b60006012905090565b6000803390506107948185856107858589611a1a565b61078f919061246a565b611ac7565b600191505092915050565b60025481565b600660009054906101000a900473ffffffffffffffffffffffffffffffffffffffff1673ffffffffffffffffffffffffffffffffffffffff163373ffffffffffffffffffffffffffffffffffffffff1614610835576040517f08c379a000000000000000000000000000000000000000000000000000000000815260040161082c90612510565b60405180910390fd5b6000600360006101000a81548160ff021916908315150217905550565b60008060008373ffffffffffffffffffffffffffffffffffffffff1673ffffffffffffffffffffffffffffffffffffffff168152602001908152602001600020600101549050919050565b600360009054906101000a900460ff1681565b600660009054906101000a900473ffffffffffffffffffffffffffffffffffffffff1673ffffffffffffffffffffffffffffffffffffffff163373ffffffffffffffffffffffffffffffffffffffff1614610940576040517f08c379a000000000000000000000000000000000000000000000000000000000815260040161093790612510565b60405180910390fd5b600360009054906101000a900460ff1661098f576040517f08c379a000000000000000000000000000000000000000000000000000000000815260040161098690612389565b60405180910390fd5b8073ffffffffffffffffffffffffffffffffffffffff168273ffffffffffffffffffffffffffffffffffffffff16036109fd576040517f08c379a00000000000000000000000000000000000000000000000000000000081526004016109f4906125a2565b60405180910390fd5b6000801b6000808473ffffffffffffffffffffffffffffffffffffffff1673ffffffffffffffffffffffffffffffffffffffff1681526020019081526020016000206003015403610a83576040517f08c379a0000000000000000000000000000000000000000000000000000000008152600401610a7a9061260e565b60405180910390fd5b60008060008373ffffffffffffffffffffffffffffffffffffffff1673ffffffffffffffffffffffffffffffffffffffff1681526020019081526020016000206000015414610b07576040517f08c379a0000000000000000000000000000000000000000000000000000000008152600401610afe9061267a565b60405180910390fd5b60008060008373ffffffffffffffffffffffffffffffffffffffff1673ffffffffffffffffffffffffffffffffffffffff1681526020019081526020016000206001015414610b8b576040517f08c379a0000000000000000000000000000000000000000000000000000000008152600401610b829061267a565b60405180910390fd5b60008060008373ffffffffffffffffffffffffffffffffffffffff1673ffffffffffffffffffffffffffffffffffffffff1681526020019081526020016000206002015414610c0f576040517f08c379a0000000000000000000000000000000000000000000000000000000008152600401610c069061267a565b60405180910390fd5b6000808373ffffffffffffffffffffffffffffffffffffffff1673ffffffffffffffffffffffffffffffffffffffff16815260200190815260200160002060040160009054906101000a900460ff16610c9d576040517f08c379a0000000000000000000000000000000000000000000000000000000008152600401610c94906126e6565b60405180910390fd5b6000808373ffffffffffffffffffffffffffffffffffffffff1673ffffffffffffffffffffffffffffffffffffffff1681526020019081526020016000206000808373ffffffffffffffffffffffffffffffffffffffff1673ffffffffffffffffffffffffffffffffffffffff168152602001908152602001600020600082015481600001556001820154816001015560028201548160020155600382015481600301556004820160009054906101000a900460ff168160040160006101000a81548160ff0219169083151502179055509050506000808373ffffffffffffffffffffffffffffffffffffffff1673ffffffffffffffffffffffffffffffffffffffff1681526020019081526020016000206000808201600090556001820160009055600282016000905560038201600090556004820160006101000a81549060ff021916905550508173ffffffffffffffffffffffffffffffffffffffff167f5e06a4da1c258ba9bc6142ca9e5b6dfa64e57f7fc4e91a150ba0b3fd301587a060405160405180910390a25050565b600073ffffffffffffffffffffffffffffffffffffffff168173ffffffffffffffffffffffffffffffffffffffff1603610e9c576040517f08c379a0000000000000000000000000000000000000000000000000000000008152600401610e9390612778565b60405180910390fd5b6000801b6000808373ffffffffffffffffffffffffffffffffffffffff1673ffffffffffffffffffffffffffffffffffffffff1681526020019081526020016000206003015403610f22576040517f08c379a0000000000000000000000000000000000000000000000000000000008152600401610f199061280a565b60405180910390fd5b60016000808373ffffffffffffffffffffffffffffffffffffffff1673ffffffffffffffffffffffffffffffffffffffff16815260200190815260200160002060040160006101000a81548160ff0219169083151502179055508073ffffffffffffffffffffffffffffffffffffffff167fadf0efce7d511d3bf9054d210d803d5d49cad8479bc76ede63aefcaee73a646f60405160405180910390a250565b60008060008373ffffffffffffffffffffffffffffffffffffffff1673ffffffffffffffffffffffffffffffffffffffff168152602001908152602001600020600001549050919050565b600660009054906101000a900473ffffffffffffffffffffffffffffffffffffffff1673ffffffffffffffffffffffffffffffffffffffff163373ffffffffffffffffffffffffffffffffffffffff161461109d576040517f08c379a000000000000000000000000000000000000000000000000000000000815260040161109490612510565b60405180910390fd5b600360009054906101000a900460ff166110ec576040517f08c379a00000000000000000000000000000000000000000000000000000000081526004016110e390612389565b60405180910390fd5b6001600360006101000a81548160ff021916908315150217905550565b806000803373ffffffffffffffffffffffffffffffffffffffff1673ffffffffffffffffffffffffffffffffffffffff168152602001908152602001600020600301819055503373ffffffffffffffffffffffffffffffffffffffff167fb8142d42f05d95abf0a6570799774d59276e49ea32a04d9a4ec316ea4a6886bc82604051611195919061282a565b60405180910390a250565b6060600580546111af9061230c565b80601f01602080910402602001604051908101604052809291908181526020018280546111db9061230c565b80156112285780601f106111fd57610100808354040283529160200191611228565b820191906000526020600020905b81548152906001019060200180831161120b57829003601f168201915b5050505050905090565b60008033905060006112448286611a1a565b905083811015611289576040517f08c379a0000000000000000000000000000000000000000000000000000000008152600401611280906128b7565b60405180910390fd5b6112968286868403611ac7565b60019250505092915050565b6000600360009054906101000a900460ff166112f3576040517f08c379a00000000000000000000000000000000000000000000000000000000081526004016112ea90612389565b60405180910390fd5b6000803373ffffffffffffffffffffffffffffffffffffffff1673ffffffffffffffffffffffffffffffffffffffff16815260200190815260200160002060000154821115611377576040517f08c379a000000000000000000000000000000000000000000000000000000000815260040161136e90612923565b60405180910390fd5b6000670de0b6b3a76400008361138d9190612972565b90506000670de0b6b3a7640000846113a591906129a3565b90506000803373ffffffffffffffffffffffffffffffffffffffff1673ffffffffffffffffffffffffffffffffffffffff168152602001908152602001600020600201548111156115a75760016000803373ffffffffffffffffffffffffffffffffffffffff1673ffffffffffffffffffffffffffffffffffffffff168152602001908152602001600020600101600082825461144291906129d4565b925050819055506001600080600660009054906101000a900473ffffffffffffffffffffffffffffffffffffffff1673ffffffffffffffffffffffffffffffffffffffff1673ffffffffffffffffffffffffffffffffffffffff16815260200190815260200160002060010160008282546114bd919061246a565b92505081905550670de0b6b3a76400006000803373ffffffffffffffffffffffffffffffffffffffff1673ffffffffffffffffffffffffffffffffffffffff168152602001908152602001600020600201600082825461151d919061246a565b92505081905550670de0b6b3a7640000600080600660009054906101000a900473ffffffffffffffffffffffffffffffffffffffff1673ffffffffffffffffffffffffffffffffffffffff1673ffffffffffffffffffffffffffffffffffffffff168152602001908152602001600020600201600082825461159f91906129d4565b925050819055505b816000803373ffffffffffffffffffffffffffffffffffffffff1673ffffffffffffffffffffffffffffffffffffffff16815260200190815260200160002060010160008282546115f891906129d4565b92505081905550806000803373ffffffffffffffffffffffffffffffffffffffff1673ffffffffffffffffffffffffffffffffffffffff168152602001908152602001600020600201600082825461165091906129d4565b92505081905550836000803373ffffffffffffffffffffffffffffffffffffffff1673ffffffffffffffffffffffffffffffffffffffff16815260200190815260200160002060000160008282546116a891906129d4565b925050819055506000808673ffffffffffffffffffffffffffffffffffffffff1673ffffffffffffffffffffffffffffffffffffffff168152602001908152602001600020600201548110156118af5760016000808773ffffffffffffffffffffffffffffffffffffffff1673ffffffffffffffffffffffffffffffffffffffff168152602001908152602001600020600101600082825461174a919061246a565b925050819055506001600080600660009054906101000a900473ffffffffffffffffffffffffffffffffffffffff1673ffffffffffffffffffffffffffffffffffffffff1673ffffffffffffffffffffffffffffffffffffffff16815260200190815260200160002060010160008282546117c591906129d4565b92505081905550670de0b6b3a76400006000808773ffffffffffffffffffffffffffffffffffffffff1673ffffffffffffffffffffffffffffffffffffffff168152602001908152602001600020600201600082825461182591906129d4565b92505081905550670de0b6b3a7640000600080600660009054906101000a900473ffffffffffffffffffffffffffffffffffffffff1673ffffffffffffffffffffffffffffffffffffffff1673ffffffffffffffffffffffffffffffffffffffff16815260200190815260200160002060020160008282546118a7919061246a565b925050819055505b816000808773ffffffffffffffffffffffffffffffffffffffff1673ffffffffffffffffffffffffffffffffffffffff1681526020019081526020016000206001016000828254611900919061246a565b92505081905550806000808773ffffffffffffffffffffffffffffffffffffffff1673ffffffffffffffffffffffffffffffffffffffff1681526020019081526020016000206002016000828254611958919061246a565b92505081905550836000808773ffffffffffffffffffffffffffffffffffffffff1673ffffffffffffffffffffffffffffffffffffffff16815260200190815260200160002060000160008282546119b0919061246a565b9250508190555060019250505092915050565b670de0b6b3a764000081565b60008060008373ffffffffffffffffffffffffffffffffffffffff1673ffffffffffffffffffffffffffffffffffffffff168152602001908152602001600020600201549050919050565b6000600160008473ffffffffffffffffffffffffffffffffffffffff1673ffffffffffffffffffffffffffffffffffffffff16815260200190815260200160002060008373ffffffffffffffffffffffffffffffffffffffff1673ffffffffffffffffffffffffffffffffffffffff16815260200190815260200160002054905092915050565b600660009054906101000a900473ffffffffffffffffffffffffffffffffffffffff1681565b600073ffffffffffffffffffffffffffffffffffffffff168373ffffffffffffffffffffffffffffffffffffffff1603611b36576040517f08c379a0000000000000000000000000000000000000000000000000000000008152600401611b2d90612a7a565b60405180910390fd5b600073ffffffffffffffffffffffffffffffffffffffff168273ffffffffffffffffffffffffffffffffffffffff1603611ba5576040517f08c379a0000000000000000000000000000000000000000000000000000000008152600401611b9c90612b0c565b60405180910390fd5b80600160008573ffffffffffffffffffffffffffffffffffffffff1673ffffffffffffffffffffffffffffffffffffffff16815260200190815260200160002060008473ffffffffffffffffffffffffffffffffffffffff1673ffffffffffffffffffffffffffffffffffffffff168152602001908152602001600020819055508173ffffffffffffffffffffffffffffffffffffffff168373ffffffffffffffffffffffffffffffffffffffff167f8c5be1e5ebec7d5bd14f71427d1e84f3dd0314c0f7b2291e5b200ac8c7c3b92583604051611c839190612175565b60405180910390a3505050565b600073ffffffffffffffffffffffffffffffffffffffff168373ffffffffffffffffffffffffffffffffffffffff1603611cff576040517f08c379a0000000000000000000000000000000000000000000000000000000008152600401611cf690612b9e565b60405180910390fd5b600073ffffffffffffffffffffffffffffffffffffffff168273ffffffffffffffffffffffffffffffffffffffff1603611d6e576040517f08c379a0000000000000000000000000000000000000000000000000000000008152600401611d6590612c30565b60405180910390fd5b6000808473ffffffffffffffffffffffffffffffffffffffff1673ffffffffffffffffffffffffffffffffffffffff16815260200190815260200160002060000154811115611df2576040517f08c379a0000000000000000000000000000000000000000000000000000000008152600401611de990612cc2565b60405180910390fd5b806000808573ffffffffffffffffffffffffffffffffffffffff1673ffffffffffffffffffffffffffffffffffffffff1681526020019081526020016000206000016000828254611e4391906129d4565b92505081905550806000808473ffffffffffffffffffffffffffffffffffffffff1673ffffffffffffffffffffffffffffffffffffffff1681526020019081526020016000206000016000828254611e9b919061246a565b925050819055508173ffffffffffffffffffffffffffffffffffffffff168373ffffffffffffffffffffffffffffffffffffffff167fddf252ad1be2c89b69c2b068fc378daa952ba7f163c4a11628f55a4df523b3ef83604051611eff9190612175565b60405180910390a3505050565b600080fd5b600073ffffffffffffffffffffffffffffffffffffffff82169050919050565b6000611f3c82611f11565b9050919050565b611f4c81611f31565b8114611f5757600080fd5b50565b600081359050611f6981611f43565b92915050565b600060208284031215611f8557611f84611f0c565b5b6000611f9384828501611f5a565b91505092915050565b6000819050919050565b611faf81611f9c565b82525050565b6000819050919050565b611fc881611fb5565b82525050565b60008115159050919050565b611fe381611fce565b82525050565b600060a082019050611ffe6000830188611fa6565b61200b6020830187611fa6565b6120186040830186611fa6565b6120256060830185611fbf565b6120326080830184611fda565b9695505050505050565b600081519050919050565b600082825260208201905092915050565b60005b8381101561207657808201518184015260208101905061205b565b60008484015250505050565b6000601f19601f8301169050919050565b600061209e8261203c565b6120a88185612047565b93506120b8818560208601612058565b6120c181612082565b840191505092915050565b600060208201905081810360008301526120e68184612093565b905092915050565b6120f781611f9c565b811461210257600080fd5b50565b600081359050612114816120ee565b92915050565b6000806040838503121561213157612130611f0c565b5b600061213f85828601611f5a565b925050602061215085828601612105565b9150509250929050565b600060208201905061216f6000830184611fda565b92915050565b600060208201905061218a6000830184611fa6565b92915050565b6000806000606084860312156121a9576121a8611f0c565b5b60006121b786828701611f5a565b93505060206121c886828701611f5a565b92505060406121d986828701612105565b9150509250925092565b600060ff82169050919050565b6121f9816121e3565b82525050565b600060208201905061221460008301846121f0565b92915050565b6000806040838503121561223157612230611f0c565b5b600061223f85828601611f5a565b925050602061225085828601611f5a565b9150509250929050565b61226381611fb5565b811461226e57600080fd5b50565b6000813590506122808161225a565b92915050565b60006020828403121561229c5761229b611f0c565b5b60006122aa84828501612271565b91505092915050565b6122bc81611f31565b82525050565b60006020820190506122d760008301846122b3565b92915050565b7f4e487b7100000000000000000000000000000000000000000000000000000000600052602260045260246000fd5b6000600282049050600182168061232457607f821691505b602082108103612337576123366122dd565b5b50919050565b7f45524332303a20746f6b656e206973206e6f7420706175736564000000000000600082015250565b6000612373601a83612047565b915061237e8261233d565b602082019050919050565b600060208201905081810360008301526123a281612366565b9050919050565b7f45524332303a207472616e7366657220616d6f756e742065786365656473206160008201527f6c6c6f77616e6365000000000000000000000000000000000000000000000000602082015250565b6000612405602883612047565b9150612410826123a9565b604082019050919050565b60006020820190508181036000830152612434816123f8565b9050919050565b7f4e487b7100000000000000000000000000000000000000000000000000000000600052601160045260246000fd5b600061247582611f9c565b915061248083611f9c565b92508282019050808211156124985761249761243b565b5b92915050565b7f45524332303a206f6e6c7920636f72706f726174696f6e2063616e2063616c6c60008201527f20746869732066756e6374696f6e000000000000000000000000000000000000602082015250565b60006124fa602e83612047565b91506125058261249e565b604082019050919050565b60006020820190508181036000830152612529816124ed565b9050919050565b7f4c6f737420616464726573732063616e6e6f74206265207468652073616d652060008201527f6173206e65772061646472657373000000000000000000000000000000000000602082015250565b600061258c602e83612047565b915061259782612530565b604082019050919050565b600060208201905081810360008301526125bb8161257f565b9050919050565b7f4c6f73742061646472657373206d757374206265207265676973746572656400600082015250565b60006125f8601f83612047565b9150612603826125c2565b602082019050919050565b60006020820190508181036000830152612627816125eb565b9050919050565b7f4e65772061646472657373206d75737420626520726567697374657265640000600082015250565b6000612664601e83612047565b915061266f8261262e565b602082019050919050565b6000602082019050818103600083015261269381612657565b9050919050565b7f41646472657373206e6f74206d61726b656420666f72207265636f7665727900600082015250565b60006126d0601f83612047565b91506126db8261269a565b602082019050919050565b600060208201905081810360008301526126ff816126c3565b9050919050565b7f45524332303a20617070726f76655265636f7665727920746f20746865207a6560008201527f726f206164647265737300000000000000000000000000000000000000000000602082015250565b6000612762602a83612047565b915061276d82612706565b604082019050919050565b6000602082019050818103600083015261279181612755565b9050919050565b7f45524332303a206163636f756e74206d7573742062652072656769737465726560008201527f6400000000000000000000000000000000000000000000000000000000000000602082015250565b60006127f4602183612047565b91506127ff82612798565b604082019050919050565b60006020820190508181036000830152612823816127e7565b9050919050565b600060208201905061283f6000830184611fbf565b92915050565b7f45524332303a2064656372656173656420616c6c6f77616e63652062656c6f7760008201527f207a65726f000000000000000000000000000000000000000000000000000000602082015250565b60006128a1602583612047565b91506128ac82612845565b604082019050919050565b600060208201905081810360008301526128d081612894565b9050919050565b7f546f6b656e2062616c616e6365206973206e6f7420656e6f7567680000000000600082015250565b600061290d601b83612047565b9150612918826128d7565b602082019050919050565b6000602082019050818103600083015261293c81612900565b9050919050565b7f4e487b7100000000000000000000000000000000000000000000000000000000600052601260045260246000fd5b600061297d82611f9c565b915061298883611f9c565b92508261299857612997612943565b5b828204905092915050565b60006129ae82611f9c565b91506129b983611f9c565b9250826129c9576129c8612943565b5b828206905092915050565b60006129df82611f9c565b91506129ea83611f9c565b9250828203905081811115612a0257612a0161243b565b5b92915050565b7f45524332303a20617070726f76652066726f6d20746865207a65726f2061646460008201527f7265737300000000000000000000000000000000000000000000000000000000602082015250565b6000612a64602483612047565b9150612a6f82612a08565b604082019050919050565b60006020820190508181036000830152612a9381612a57565b9050919050565b7f45524332303a20617070726f766520746f20746865207a65726f20616464726560008201527f7373000000000000000000000000000000000000000000000000000000000000602082015250565b6000612af6602283612047565b9150612b0182612a9a565b604082019050919050565b60006020820190508181036000830152612b2581612ae9565b9050919050565b7f45524332303a207472616e736665722066726f6d20746865207a65726f20616460008201527f6472657373000000000000000000000000000000000000000000000000000000602082015250565b6000612b88602583612047565b9150612b9382612b2c565b604082019050919050565b60006020820190508181036000830152612bb781612b7b565b9050919050565b7f45524332303a207472616e7366657220746f20746865207a65726f206164647260008201527f6573730000000000000000000000000000000000000000000000000000000000602082015250565b6000612c1a602383612047565b9150612c2582612bbe565b604082019050919050565b60006020820190508181036000830152612c4981612c0d565b9050919050565b7f45524332303a207472616e7366657220616d6f756e742065786365656473206260008201527f616c616e63650000000000000000000000000000000000000000000000000000602082015250565b6000612cac602683612047565b9150612cb782612c50565b604082019050919050565b60006020820190508181036000830152612cdb81612c9f565b905091905056fea26469706673582212202a0a48e633ebf1f3bf7205bda14438f611f64a5f9f67ec0b53d131587bd697df64736f6c63430008120033",
					"opcodes": "PUSH1 0x80 PUSH1 0x40 MSTORE CALLVALUE DUP1 ISZERO PUSH3 0x11 JUMPI PUSH1 0x0 DUP1 REVERT JUMPDEST POP PUSH1 0x40 MLOAD PUSH3 0x3331 CODESIZE SUB DUP1 PUSH3 0x3331 DUP4 CODECOPY DUP2 DUP2 ADD PUSH1 0x40 MSTORE DUP2 ADD SWAP1 PUSH3 0x37 SWAP2 SWAP1 PUSH3 0x252 JUMP JUMPDEST DUP2 PUSH1 0x4 SWAP1 DUP2 PUSH3 0x48 SWAP2 SWAP1 PUSH3 0x522 JUMP JUMPDEST POP DUP1 PUSH1 0x5 SWAP1 DUP2 PUSH3 0x5A SWAP2 SWAP1 PUSH3 0x522 JUMP JUMPDEST POP CALLER PUSH1 0x6 PUSH1 0x0 PUSH2 0x100 EXP DUP2 SLOAD DUP2 PUSH20 0xFFFFFFFFFFFFFFFFFFFFFFFFFFFFFFFFFFFFFFFF MUL NOT AND SWAP1 DUP4 PUSH20 0xFFFFFFFFFFFFFFFFFFFFFFFFFFFFFFFFFFFFFFFF AND MUL OR SWAP1 SSTORE POP PUSH1 0x0 PUSH1 0x3 PUSH1 0x0 PUSH2 0x100 EXP DUP2 SLOAD DUP2 PUSH1 0xFF MUL NOT AND SWAP1 DUP4 ISZERO ISZERO MUL OR SWAP1 SSTORE POP POP POP PUSH3 0x609 JUMP JUMPDEST PUSH1 0x0 PUSH1 0x40 MLOAD SWAP1 POP SWAP1 JUMP JUMPDEST PUSH1 0x0 DUP1 REVERT JUMPDEST PUSH1 0x0 DUP1 REVERT JUMPDEST PUSH1 0x0 DUP1 REVERT JUMPDEST PUSH1 0x0 DUP1 REVERT JUMPDEST PUSH1 0x0 PUSH1 0x1F NOT PUSH1 0x1F DUP4 ADD AND SWAP1 POP SWAP2 SWAP1 POP JUMP JUMPDEST PUSH32 0x4E487B7100000000000000000000000000000000000000000000000000000000 PUSH1 0x0 MSTORE PUSH1 0x41 PUSH1 0x4 MSTORE PUSH1 0x24 PUSH1 0x0 REVERT JUMPDEST PUSH3 0x128 DUP3 PUSH3 0xDD JUMP JUMPDEST DUP2 ADD DUP2 DUP2 LT PUSH8 0xFFFFFFFFFFFFFFFF DUP3 GT OR ISZERO PUSH3 0x14A JUMPI PUSH3 0x149 PUSH3 0xEE JUMP JUMPDEST JUMPDEST DUP1 PUSH1 0x40 MSTORE POP POP POP JUMP JUMPDEST PUSH1 0x0 PUSH3 0x15F PUSH3 0xBF JUMP JUMPDEST SWAP1 POP PUSH3 0x16D DUP3 DUP3 PUSH3 0x11D JUMP JUMPDEST SWAP2 SWAP1 POP JUMP JUMPDEST PUSH1 0x0 PUSH8 0xFFFFFFFFFFFFFFFF DUP3 GT ISZERO PUSH3 0x190 JUMPI PUSH3 0x18F PUSH3 0xEE JUMP JUMPDEST JUMPDEST PUSH3 0x19B DUP3 PUSH3 0xDD JUMP JUMPDEST SWAP1 POP PUSH1 0x20 DUP2 ADD SWAP1 POP SWAP2 SWAP1 POP JUMP JUMPDEST PUSH1 0x0 JUMPDEST DUP4 DUP2 LT ISZERO PUSH3 0x1C8 JUMPI DUP1 DUP3 ADD MLOAD DUP2 DUP5 ADD MSTORE PUSH1 0x20 DUP2 ADD SWAP1 POP PUSH3 0x1AB JUMP JUMPDEST PUSH1 0x0 DUP5 DUP5 ADD MSTORE POP POP POP POP JUMP JUMPDEST PUSH1 0x0 PUSH3 0x1EB PUSH3 0x1E5 DUP5 PUSH3 0x172 JUMP JUMPDEST PUSH3 0x153 JUMP JUMPDEST SWAP1 POP DUP3 DUP2 MSTORE PUSH1 0x20 DUP2 ADD DUP5 DUP5 DUP5 ADD GT ISZERO PUSH3 0x20A JUMPI PUSH3 0x209 PUSH3 0xD8 JUMP JUMPDEST JUMPDEST PUSH3 0x217 DUP5 DUP3 DUP6 PUSH3 0x1A8 JUMP JUMPDEST POP SWAP4 SWAP3 POP POP POP JUMP JUMPDEST PUSH1 0x0 DUP3 PUSH1 0x1F DUP4 ADD SLT PUSH3 0x237 JUMPI PUSH3 0x236 PUSH3 0xD3 JUMP JUMPDEST JUMPDEST DUP2 MLOAD PUSH3 0x249 DUP5 DUP3 PUSH1 0x20 DUP7 ADD PUSH3 0x1D4 JUMP JUMPDEST SWAP2 POP POP SWAP3 SWAP2 POP POP JUMP JUMPDEST PUSH1 0x0 DUP1 PUSH1 0x40 DUP4 DUP6 SUB SLT ISZERO PUSH3 0x26C JUMPI PUSH3 0x26B PUSH3 0xC9 JUMP JUMPDEST JUMPDEST PUSH1 0x0 DUP4 ADD MLOAD PUSH8 0xFFFFFFFFFFFFFFFF DUP2 GT ISZERO PUSH3 0x28D JUMPI PUSH3 0x28C PUSH3 0xCE JUMP JUMPDEST JUMPDEST PUSH3 0x29B DUP6 DUP3 DUP7 ADD PUSH3 0x21F JUMP JUMPDEST SWAP3 POP POP PUSH1 0x20 DUP4 ADD MLOAD PUSH8 0xFFFFFFFFFFFFFFFF DUP2 GT ISZERO PUSH3 0x2BF JUMPI PUSH3 0x2BE PUSH3 0xCE JUMP JUMPDEST JUMPDEST PUSH3 0x2CD DUP6 DUP3 DUP7 ADD PUSH3 0x21F JUMP JUMPDEST SWAP2 POP POP SWAP3 POP SWAP3 SWAP1 POP JUMP JUMPDEST PUSH1 0x0 DUP2 MLOAD SWAP1 POP SWAP2 SWAP1 POP JUMP JUMPDEST PUSH32 0x4E487B7100000000000000000000000000000000000000000000000000000000 PUSH1 0x0 MSTORE PUSH1 0x22 PUSH1 0x4 MSTORE PUSH1 0x24 PUSH1 0x0 REVERT JUMPDEST PUSH1 0x0 PUSH1 0x2 DUP3 DIV SWAP1 POP PUSH1 0x1 DUP3 AND DUP1 PUSH3 0x32A JUMPI PUSH1 0x7F DUP3 AND SWAP2 POP JUMPDEST PUSH1 0x20 DUP3 LT DUP2 SUB PUSH3 0x340 JUMPI PUSH3 0x33F PUSH3 0x2E2 JUMP JUMPDEST JUMPDEST POP SWAP2 SWAP1 POP JUMP JUMPDEST PUSH1 0x0 DUP2 SWAP1 POP DUP2 PUSH1 0x0 MSTORE PUSH1 0x20 PUSH1 0x0 KECCAK256 SWAP1 POP SWAP2 SWAP1 POP JUMP JUMPDEST PUSH1 0x0 PUSH1 0x20 PUSH1 0x1F DUP4 ADD DIV SWAP1 POP SWAP2 SWAP1 POP JUMP JUMPDEST PUSH1 0x0 DUP3 DUP3 SHL SWAP1 POP SWAP3 SWAP2 POP POP JUMP JUMPDEST PUSH1 0x0 PUSH1 0x8 DUP4 MUL PUSH3 0x3AA PUSH32 0xFFFFFFFFFFFFFFFFFFFFFFFFFFFFFFFFFFFFFFFFFFFFFFFFFFFFFFFFFFFFFFFF DUP3 PUSH3 0x36B JUMP JUMPDEST PUSH3 0x3B6 DUP7 DUP4 PUSH3 0x36B JUMP JUMPDEST SWAP6 POP DUP1 NOT DUP5 AND SWAP4 POP DUP1 DUP7 AND DUP5 OR SWAP3 POP POP POP SWAP4 SWAP3 POP POP POP JUMP JUMPDEST PUSH1 0x0 DUP2 SWAP1 POP SWAP2 SWAP1 POP JUMP JUMPDEST PUSH1 0x0 DUP2 SWAP1 POP SWAP2 SWAP1 POP JUMP JUMPDEST PUSH1 0x0 PUSH3 0x403 PUSH3 0x3FD PUSH3 0x3F7 DUP5 PUSH3 0x3CE JUMP JUMPDEST PUSH3 0x3D8 JUMP JUMPDEST PUSH3 0x3CE JUMP JUMPDEST SWAP1 POP SWAP2 SWAP1 POP JUMP JUMPDEST PUSH1 0x0 DUP2 SWAP1 POP SWAP2 SWAP1 POP JUMP JUMPDEST PUSH3 0x41F DUP4 PUSH3 0x3E2 JUMP JUMPDEST PUSH3 0x437 PUSH3 0x42E DUP3 PUSH3 0x40A JUMP JUMPDEST DUP5 DUP5 SLOAD PUSH3 0x378 JUMP JUMPDEST DUP3 SSTORE POP POP POP POP JUMP JUMPDEST PUSH1 0x0 SWAP1 JUMP JUMPDEST PUSH3 0x44E PUSH3 0x43F JUMP JUMPDEST PUSH3 0x45B DUP2 DUP5 DUP5 PUSH3 0x414 JUMP JUMPDEST POP POP POP JUMP JUMPDEST JUMPDEST DUP2 DUP2 LT ISZERO PUSH3 0x483 JUMPI PUSH3 0x477 PUSH1 0x0 DUP3 PUSH3 0x444 JUMP JUMPDEST PUSH1 0x1 DUP2 ADD SWAP1 POP PUSH3 0x461 JUMP JUMPDEST POP POP JUMP JUMPDEST PUSH1 0x1F DUP3 GT ISZERO PUSH3 0x4D2 JUMPI PUSH3 0x49C DUP2 PUSH3 0x346 JUMP JUMPDEST PUSH3 0x4A7 DUP5 PUSH3 0x35B JUMP JUMPDEST DUP2 ADD PUSH1 0x20 DUP6 LT ISZERO PUSH3 0x4B7 JUMPI DUP2 SWAP1 POP JUMPDEST PUSH3 0x4CF PUSH3 0x4C6 DUP6 PUSH3 0x35B JUMP JUMPDEST DUP4 ADD DUP3 PUSH3 0x460 JUMP JUMPDEST POP POP JUMPDEST POP POP POP JUMP JUMPDEST PUSH1 0x0 DUP3 DUP3 SHR SWAP1 POP SWAP3 SWAP2 POP POP JUMP JUMPDEST PUSH1 0x0 PUSH3 0x4F7 PUSH1 0x0 NOT DUP5 PUSH1 0x8 MUL PUSH3 0x4D7 JUMP JUMPDEST NOT DUP1 DUP4 AND SWAP2 POP POP SWAP3 SWAP2 POP POP JUMP JUMPDEST PUSH1 0x0 PUSH3 0x512 DUP4 DUP4 PUSH3 0x4E4 JUMP JUMPDEST SWAP2 POP DUP3 PUSH1 0x2 MUL DUP3 OR SWAP1 POP SWAP3 SWAP2 POP POP JUMP JUMPDEST PUSH3 0x52D DUP3 PUSH3 0x2D7 JUMP JUMPDEST PUSH8 0xFFFFFFFFFFFFFFFF DUP2 GT ISZERO PUSH3 0x549 JUMPI PUSH3 0x548 PUSH3 0xEE JUMP JUMPDEST JUMPDEST PUSH3 0x555 DUP3 SLOAD PUSH3 0x311 JUMP JUMPDEST PUSH3 0x562 DUP3 DUP3 DUP6 PUSH3 0x487 JUMP JUMPDEST PUSH1 0x0 PUSH1 0x20 SWAP1 POP PUSH1 0x1F DUP4 GT PUSH1 0x1 DUP2 EQ PUSH3 0x59A JUMPI PUSH1 0x0 DUP5 ISZERO PUSH3 0x585 JUMPI DUP3 DUP8 ADD MLOAD SWAP1 POP JUMPDEST PUSH3 0x591 DUP6 DUP3 PUSH3 0x504 JUMP JUMPDEST DUP7 SSTORE POP PUSH3 0x601 JUMP JUMPDEST PUSH1 0x1F NOT DUP5 AND PUSH3 0x5AA DUP7 PUSH3 0x346 JUMP JUMPDEST PUSH1 0x0 JUMPDEST DUP3 DUP2 LT ISZERO PUSH3 0x5D4 JUMPI DUP5 DUP10 ADD MLOAD DUP3 SSTORE PUSH1 0x1 DUP3 ADD SWAP2 POP PUSH1 0x20 DUP6 ADD SWAP5 POP PUSH1 0x20 DUP2 ADD SWAP1 POP PUSH3 0x5AD JUMP JUMPDEST DUP7 DUP4 LT ISZERO PUSH3 0x5F4 JUMPI DUP5 DUP10 ADD MLOAD PUSH3 0x5F0 PUSH1 0x1F DUP10 AND DUP3 PUSH3 0x4E4 JUMP JUMPDEST DUP4 SSTORE POP JUMPDEST PUSH1 0x1 PUSH1 0x2 DUP9 MUL ADD DUP9 SSTORE POP POP POP JUMPDEST POP POP POP POP POP POP JUMP JUMPDEST PUSH2 0x2D18 DUP1 PUSH3 0x619 PUSH1 0x0 CODECOPY PUSH1 0x0 RETURN INVALID PUSH1 0x80 PUSH1 0x40 MSTORE PUSH1 0x4 CALLDATASIZE LT PUSH2 0x140 JUMPI PUSH1 0x0 CALLDATALOAD PUSH1 0xE0 SHR DUP1 PUSH4 0x648BF774 GT PUSH2 0xB6 JUMPI DUP1 PUSH4 0xA457C2D7 GT PUSH2 0x6F JUMPI DUP1 PUSH4 0xA457C2D7 EQ PUSH2 0x455 JUMPI DUP1 PUSH4 0xA9059CBB EQ PUSH2 0x492 JUMPI DUP1 PUSH4 0xB7D122B5 EQ PUSH2 0x4CF JUMPI DUP1 PUSH4 0xBD6F529E EQ PUSH2 0x4FA JUMPI DUP1 PUSH4 0xDD62ED3E EQ PUSH2 0x537 JUMPI DUP1 PUSH4 0xE25C4CF5 EQ PUSH2 0x574 JUMPI PUSH2 0x140 JUMP JUMPDEST DUP1 PUSH4 0x648BF774 EQ PUSH2 0x368 JUMPI DUP1 PUSH4 0x6E6CE65F EQ PUSH2 0x391 JUMPI DUP1 PUSH4 0x70A08231 EQ PUSH2 0x3AD JUMPI DUP1 PUSH4 0x8456CB59 EQ PUSH2 0x3EA JUMPI DUP1 PUSH4 0x8F1DE16E EQ PUSH2 0x401 JUMPI DUP1 PUSH4 0x95D89B41 EQ PUSH2 0x42A JUMPI PUSH2 0x140 JUMP JUMPDEST DUP1 PUSH4 0x313CE567 GT PUSH2 0x108 JUMPI DUP1 PUSH4 0x313CE567 EQ PUSH2 0x256 JUMPI DUP1 PUSH4 0x39509351 EQ PUSH2 0x281 JUMPI DUP1 PUSH4 0x3EAAF86B EQ PUSH2 0x2BE JUMPI DUP1 PUSH4 0x3F4BA83A EQ PUSH2 0x2E9 JUMPI DUP1 PUSH4 0x4473AD52 EQ PUSH2 0x300 JUMPI DUP1 PUSH4 0x5C975ABB EQ PUSH2 0x33D JUMPI PUSH2 0x140 JUMP JUMPDEST DUP1 PUSH4 0x38DEFD7 EQ PUSH2 0x145 JUMPI DUP1 PUSH4 0x6FDDE03 EQ PUSH2 0x186 JUMPI DUP1 PUSH4 0x95EA7B3 EQ PUSH2 0x1B1 JUMPI DUP1 PUSH4 0x18160DDD EQ PUSH2 0x1EE JUMPI DUP1 PUSH4 0x23B872DD EQ PUSH2 0x219 JUMPI JUMPDEST PUSH1 0x0 DUP1 REVERT JUMPDEST CALLVALUE DUP1 ISZERO PUSH2 0x151 JUMPI PUSH1 0x0 DUP1 REVERT JUMPDEST POP PUSH2 0x16C PUSH1 0x4 DUP1 CALLDATASIZE SUB DUP2 ADD SWAP1 PUSH2 0x167 SWAP2 SWAP1 PUSH2 0x1F6F JUMP JUMPDEST PUSH2 0x59F JUMP JUMPDEST PUSH1 0x40 MLOAD PUSH2 0x17D SWAP6 SWAP5 SWAP4 SWAP3 SWAP2 SWAP1 PUSH2 0x1FE9 JUMP JUMPDEST PUSH1 0x40 MLOAD DUP1 SWAP2 SUB SWAP1 RETURN JUMPDEST CALLVALUE DUP1 ISZERO PUSH2 0x192 JUMPI PUSH1 0x0 DUP1 REVERT JUMPDEST POP PUSH2 0x19B PUSH2 0x5E2 JUMP JUMPDEST PUSH1 0x40 MLOAD PUSH2 0x1A8 SWAP2 SWAP1 PUSH2 0x20CC JUMP JUMPDEST PUSH1 0x40 MLOAD DUP1 SWAP2 SUB SWAP1 RETURN JUMPDEST CALLVALUE DUP1 ISZERO PUSH2 0x1BD JUMPI PUSH1 0x0 DUP1 REVERT JUMPDEST POP PUSH2 0x1D8 PUSH1 0x4 DUP1 CALLDATASIZE SUB DUP2 ADD SWAP1 PUSH2 0x1D3 SWAP2 SWAP1 PUSH2 0x211A JUMP JUMPDEST PUSH2 0x674 JUMP JUMPDEST PUSH1 0x40 MLOAD PUSH2 0x1E5 SWAP2 SWAP1 PUSH2 0x215A JUMP JUMPDEST PUSH1 0x40 MLOAD DUP1 SWAP2 SUB SWAP1 RETURN JUMPDEST CALLVALUE DUP1 ISZERO PUSH2 0x1FA JUMPI PUSH1 0x0 DUP1 REVERT JUMPDEST POP PUSH2 0x203 PUSH2 0x690 JUMP JUMPDEST PUSH1 0x40 MLOAD PUSH2 0x210 SWAP2 SWAP1 PUSH2 0x2175 JUMP JUMPDEST PUSH1 0x40 MLOAD DUP1 SWAP2 SUB SWAP1 RETURN JUMPDEST CALLVALUE DUP1 ISZERO PUSH2 0x225 JUMPI PUSH1 0x0 DUP1 REVERT JUMPDEST POP PUSH2 0x240 PUSH1 0x4 DUP1 CALLDATASIZE SUB DUP2 ADD SWAP1 PUSH2 0x23B SWAP2 SWAP1 PUSH2 0x2190 JUMP JUMPDEST PUSH2 0x69A JUMP JUMPDEST PUSH1 0x40 MLOAD PUSH2 0x24D SWAP2 SWAP1 PUSH2 0x215A JUMP JUMPDEST PUSH1 0x40 MLOAD DUP1 SWAP2 SUB SWAP1 RETURN JUMPDEST CALLVALUE DUP1 ISZERO PUSH2 0x262 JUMPI PUSH1 0x0 DUP1 REVERT JUMPDEST POP PUSH2 0x26B PUSH2 0x766 JUMP JUMPDEST PUSH1 0x40 MLOAD PUSH2 0x278 SWAP2 SWAP1 PUSH2 0x21FF JUMP JUMPDEST PUSH1 0x40 MLOAD DUP1 SWAP2 SUB SWAP1 RETURN JUMPDEST CALLVALUE DUP1 ISZERO PUSH2 0x28D JUMPI PUSH1 0x0 DUP1 REVERT JUMPDEST POP PUSH2 0x2A8 PUSH1 0x4 DUP1 CALLDATASIZE SUB DUP2 ADD SWAP1 PUSH2 0x2A3 SWAP2 SWAP1 PUSH2 0x211A JUMP JUMPDEST PUSH2 0x76F JUMP JUMPDEST PUSH1 0x40 MLOAD PUSH2 0x2B5 SWAP2 SWAP1 PUSH2 0x215A JUMP JUMPDEST PUSH1 0x40 MLOAD DUP1 SWAP2 SUB SWAP1 RETURN JUMPDEST CALLVALUE DUP1 ISZERO PUSH2 0x2CA JUMPI PUSH1 0x0 DUP1 REVERT JUMPDEST POP PUSH2 0x2D3 PUSH2 0x79F JUMP JUMPDEST PUSH1 0x40 MLOAD PUSH2 0x2E0 SWAP2 SWAP1 PUSH2 0x2175 JUMP JUMPDEST PUSH1 0x40 MLOAD DUP1 SWAP2 SUB SWAP1 RETURN JUMPDEST CALLVALUE DUP1 ISZERO PUSH2 0x2F5 JUMPI PUSH1 0x0 DUP1 REVERT JUMPDEST POP PUSH2 0x2FE PUSH2 0x7A5 JUMP JUMPDEST STOP JUMPDEST CALLVALUE DUP1 ISZERO PUSH2 0x30C JUMPI PUSH1 0x0 DUP1 REVERT JUMPDEST POP PUSH2 0x327 PUSH1 0x4 DUP1 CALLDATASIZE SUB DUP2 ADD SWAP1 PUSH2 0x322 SWAP2 SWAP1 PUSH2 0x1F6F JUMP JUMPDEST PUSH2 0x852 JUMP JUMPDEST PUSH1 0x40 MLOAD PUSH2 0x334 SWAP2 SWAP1 PUSH2 0x2175 JUMP JUMPDEST PUSH1 0x40 MLOAD DUP1 SWAP2 SUB SWAP1 RETURN JUMPDEST CALLVALUE DUP1 ISZERO PUSH2 0x349 JUMPI PUSH1 0x0 DUP1 REVERT JUMPDEST POP PUSH2 0x352 PUSH2 0x89D JUMP JUMPDEST PUSH1 0x40 MLOAD PUSH2 0x35F SWAP2 SWAP1 PUSH2 0x215A JUMP JUMPDEST PUSH1 0x40 MLOAD DUP1 SWAP2 SUB SWAP1 RETURN JUMPDEST CALLVALUE DUP1 ISZERO PUSH2 0x374 JUMPI PUSH1 0x0 DUP1 REVERT JUMPDEST POP PUSH2 0x38F PUSH1 0x4 DUP1 CALLDATASIZE SUB DUP2 ADD SWAP1 PUSH2 0x38A SWAP2 SWAP1 PUSH2 0x221A JUMP JUMPDEST PUSH2 0x8B0 JUMP JUMPDEST STOP JUMPDEST PUSH2 0x3AB PUSH1 0x4 DUP1 CALLDATASIZE SUB DUP2 ADD SWAP1 PUSH2 0x3A6 SWAP2 SWAP1 PUSH2 0x1F6F JUMP JUMPDEST PUSH2 0xE2D JUMP JUMPDEST STOP JUMPDEST CALLVALUE DUP1 ISZERO PUSH2 0x3B9 JUMPI PUSH1 0x0 DUP1 REVERT JUMPDEST POP PUSH2 0x3D4 PUSH1 0x4 DUP1 CALLDATASIZE SUB DUP2 ADD SWAP1 PUSH2 0x3CF SWAP2 SWAP1 PUSH2 0x1F6F JUMP JUMPDEST PUSH2 0xFC2 JUMP JUMPDEST PUSH1 0x40 MLOAD PUSH2 0x3E1 SWAP2 SWAP1 PUSH2 0x2175 JUMP JUMPDEST PUSH1 0x40 MLOAD DUP1 SWAP2 SUB SWAP1 RETURN JUMPDEST CALLVALUE DUP1 ISZERO PUSH2 0x3F6 JUMPI PUSH1 0x0 DUP1 REVERT JUMPDEST POP PUSH2 0x3FF PUSH2 0x100D JUMP JUMPDEST STOP JUMPDEST CALLVALUE DUP1 ISZERO PUSH2 0x40D JUMPI PUSH1 0x0 DUP1 REVERT JUMPDEST POP PUSH2 0x428 PUSH1 0x4 DUP1 CALLDATASIZE SUB DUP2 ADD SWAP1 PUSH2 0x423 SWAP2 SWAP1 PUSH2 0x2286 JUMP JUMPDEST PUSH2 0x1109 JUMP JUMPDEST STOP JUMPDEST CALLVALUE DUP1 ISZERO PUSH2 0x436 JUMPI PUSH1 0x0 DUP1 REVERT JUMPDEST POP PUSH2 0x43F PUSH2 0x11A0 JUMP JUMPDEST PUSH1 0x40 MLOAD PUSH2 0x44C SWAP2 SWAP1 PUSH2 0x20CC JUMP JUMPDEST PUSH1 0x40 MLOAD DUP1 SWAP2 SUB SWAP1 RETURN JUMPDEST CALLVALUE DUP1 ISZERO PUSH2 0x461 JUMPI PUSH1 0x0 DUP1 REVERT JUMPDEST POP PUSH2 0x47C PUSH1 0x4 DUP1 CALLDATASIZE SUB DUP2 ADD SWAP1 PUSH2 0x477 SWAP2 SWAP1 PUSH2 0x211A JUMP JUMPDEST PUSH2 0x1232 JUMP JUMPDEST PUSH1 0x40 MLOAD PUSH2 0x489 SWAP2 SWAP1 PUSH2 0x215A JUMP JUMPDEST PUSH1 0x40 MLOAD DUP1 SWAP2 SUB SWAP1 RETURN JUMPDEST CALLVALUE DUP1 ISZERO PUSH2 0x49E JUMPI PUSH1 0x0 DUP1 REVERT JUMPDEST POP PUSH2 0x4B9 PUSH1 0x4 DUP1 CALLDATASIZE SUB DUP2 ADD SWAP1 PUSH2 0x4B4 SWAP2 SWAP1 PUSH2 0x211A JUMP JUMPDEST PUSH2 0x12A2 JUMP JUMPDEST PUSH1 0x40 MLOAD PUSH2 0x4C6 SWAP2 SWAP1 PUSH2 0x215A JUMP JUMPDEST PUSH1 0x40 MLOAD DUP1 SWAP2 SUB SWAP1 RETURN JUMPDEST CALLVALUE DUP1 ISZERO PUSH2 0x4DB JUMPI PUSH1 0x0 DUP1 REVERT JUMPDEST POP PUSH2 0x4E4 PUSH2 0x19C3 JUMP JUMPDEST PUSH1 0x40 MLOAD PUSH2 0x4F1 SWAP2 SWAP1 PUSH2 0x2175 JUMP JUMPDEST PUSH1 0x40 MLOAD DUP1 SWAP2 SUB SWAP1 RETURN JUMPDEST CALLVALUE DUP1 ISZERO PUSH2 0x506 JUMPI PUSH1 0x0 DUP1 REVERT JUMPDEST POP PUSH2 0x521 PUSH1 0x4 DUP1 CALLDATASIZE SUB DUP2 ADD SWAP1 PUSH2 0x51C SWAP2 SWAP1 PUSH2 0x1F6F JUMP JUMPDEST PUSH2 0x19CF JUMP JUMPDEST PUSH1 0x40 MLOAD PUSH2 0x52E SWAP2 SWAP1 PUSH2 0x2175 JUMP JUMPDEST PUSH1 0x40 MLOAD DUP1 SWAP2 SUB SWAP1 RETURN JUMPDEST CALLVALUE DUP1 ISZERO PUSH2 0x543 JUMPI PUSH1 0x0 DUP1 REVERT JUMPDEST POP PUSH2 0x55E PUSH1 0x4 DUP1 CALLDATASIZE SUB DUP2 ADD SWAP1 PUSH2 0x559 SWAP2 SWAP1 PUSH2 0x221A JUMP JUMPDEST PUSH2 0x1A1A JUMP JUMPDEST PUSH1 0x40 MLOAD PUSH2 0x56B SWAP2 SWAP1 PUSH2 0x2175 JUMP JUMPDEST PUSH1 0x40 MLOAD DUP1 SWAP2 SUB SWAP1 RETURN JUMPDEST CALLVALUE DUP1 ISZERO PUSH2 0x580 JUMPI PUSH1 0x0 DUP1 REVERT JUMPDEST POP PUSH2 0x589 PUSH2 0x1AA1 JUMP JUMPDEST PUSH1 0x40 MLOAD PUSH2 0x596 SWAP2 SWAP1 PUSH2 0x22C2 JUMP JUMPDEST PUSH1 0x40 MLOAD DUP1 SWAP2 SUB SWAP1 RETURN JUMPDEST PUSH1 0x0 PUSH1 0x20 MSTORE DUP1 PUSH1 0x0 MSTORE PUSH1 0x40 PUSH1 0x0 KECCAK256 PUSH1 0x0 SWAP2 POP SWAP1 POP DUP1 PUSH1 0x0 ADD SLOAD SWAP1 DUP1 PUSH1 0x1 ADD SLOAD SWAP1 DUP1 PUSH1 0x2 ADD SLOAD SWAP1 DUP1 PUSH1 0x3 ADD SLOAD SWAP1 DUP1 PUSH1 0x4 ADD PUSH1 0x0 SWAP1 SLOAD SWAP1 PUSH2 0x100 EXP SWAP1 DIV PUSH1 0xFF AND SWAP1 POP DUP6 JUMP JUMPDEST PUSH1 0x60 PUSH1 0x4 DUP1 SLOAD PUSH2 0x5F1 SWAP1 PUSH2 0x230C JUMP JUMPDEST DUP1 PUSH1 0x1F ADD PUSH1 0x20 DUP1 SWAP2 DIV MUL PUSH1 0x20 ADD PUSH1 0x40 MLOAD SWAP1 DUP2 ADD PUSH1 0x40 MSTORE DUP1 SWAP3 SWAP2 SWAP1 DUP2 DUP2 MSTORE PUSH1 0x20 ADD DUP3 DUP1 SLOAD PUSH2 0x61D SWAP1 PUSH2 0x230C JUMP JUMPDEST DUP1 ISZERO PUSH2 0x66A JUMPI DUP1 PUSH1 0x1F LT PUSH2 0x63F JUMPI PUSH2 0x100 DUP1 DUP4 SLOAD DIV MUL DUP4 MSTORE SWAP2 PUSH1 0x20 ADD SWAP2 PUSH2 0x66A JUMP JUMPDEST DUP3 ADD SWAP2 SWAP1 PUSH1 0x0 MSTORE PUSH1 0x20 PUSH1 0x0 KECCAK256 SWAP1 JUMPDEST DUP2 SLOAD DUP2 MSTORE SWAP1 PUSH1 0x1 ADD SWAP1 PUSH1 0x20 ADD DUP1 DUP4 GT PUSH2 0x64D JUMPI DUP3 SWAP1 SUB PUSH1 0x1F AND DUP3 ADD SWAP2 JUMPDEST POP POP POP POP POP SWAP1 POP SWAP1 JUMP JUMPDEST PUSH1 0x0 DUP1 CALLER SWAP1 POP PUSH2 0x685 DUP2 DUP6 DUP6 PUSH2 0x1AC7 JUMP JUMPDEST PUSH1 0x1 SWAP2 POP POP SWAP3 SWAP2 POP POP JUMP JUMPDEST PUSH1 0x0 PUSH1 0x2 SLOAD SWAP1 POP SWAP1 JUMP JUMPDEST PUSH1 0x0 PUSH1 0x3 PUSH1 0x0 SWAP1 SLOAD SWAP1 PUSH2 0x100 EXP SWAP1 DIV PUSH1 0xFF AND PUSH2 0x6EB JUMPI PUSH1 0x40 MLOAD PUSH32 0x8C379A000000000000000000000000000000000000000000000000000000000 DUP2 MSTORE PUSH1 0x4 ADD PUSH2 0x6E2 SWAP1 PUSH2 0x2389 JUMP JUMPDEST PUSH1 0x40 MLOAD DUP1 SWAP2 SUB SWAP1 REVERT JUMPDEST PUSH1 0x0 CALLER SWAP1 POP PUSH1 0x0 PUSH2 0x6FC DUP7 DUP4 PUSH2 0x1A1A JUMP JUMPDEST SWAP1 POP DUP4 DUP2 LT ISZERO PUSH2 0x741 JUMPI PUSH1 0x40 MLOAD PUSH32 0x8C379A000000000000000000000000000000000000000000000000000000000 DUP2 MSTORE PUSH1 0x4 ADD PUSH2 0x738 SWAP1 PUSH2 0x241B JUMP JUMPDEST PUSH1 0x40 MLOAD DUP1 SWAP2 SUB SWAP1 REVERT JUMPDEST PUSH2 0x74E DUP7 DUP4 DUP7 DUP5 SUB PUSH2 0x1AC7 JUMP JUMPDEST PUSH2 0x759 DUP7 DUP7 DUP7 PUSH2 0x1C90 JUMP JUMPDEST PUSH1 0x1 SWAP3 POP POP POP SWAP4 SWAP3 POP POP POP JUMP JUMPDEST PUSH1 0x0 PUSH1 0x12 SWAP1 POP SWAP1 JUMP JUMPDEST PUSH1 0x0 DUP1 CALLER SWAP1 POP PUSH2 0x794 DUP2 DUP6 DUP6 PUSH2 0x785 DUP6 DUP10 PUSH2 0x1A1A JUMP JUMPDEST PUSH2 0x78F SWAP2 SWAP1 PUSH2 0x246A JUMP JUMPDEST PUSH2 0x1AC7 JUMP JUMPDEST PUSH1 0x1 SWAP2 POP POP SWAP3 SWAP2 POP POP JUMP JUMPDEST PUSH1 0x2 SLOAD DUP2 JUMP JUMPDEST PUSH1 0x6 PUSH1 0x0 SWAP1 SLOAD SWAP1 PUSH2 0x100 EXP SWAP1 DIV PUSH20 0xFFFFFFFFFFFFFFFFFFFFFFFFFFFFFFFFFFFFFFFF AND PUSH20 0xFFFFFFFFFFFFFFFFFFFFFFFFFFFFFFFFFFFFFFFF AND CALLER PUSH20 0xFFFFFFFFFFFFFFFFFFFFFFFFFFFFFFFFFFFFFFFF AND EQ PUSH2 0x835 JUMPI PUSH1 0x40 MLOAD PUSH32 0x8C379A000000000000000000000000000000000000000000000000000000000 DUP2 MSTORE PUSH1 0x4 ADD PUSH2 0x82C SWAP1 PUSH2 0x2510 JUMP JUMPDEST PUSH1 0x40 MLOAD DUP1 SWAP2 SUB SWAP1 REVERT JUMPDEST PUSH1 0x0 PUSH1 0x3 PUSH1 0x0 PUSH2 0x100 EXP DUP2 SLOAD DUP2 PUSH1 0xFF MUL NOT AND SWAP1 DUP4 ISZERO ISZERO MUL OR SWAP1 SSTORE POP JUMP JUMPDEST PUSH1 0x0 DUP1 PUSH1 0x0 DUP4 PUSH20 0xFFFFFFFFFFFFFFFFFFFFFFFFFFFFFFFFFFFFFFFF AND PUSH20 0xFFFFFFFFFFFFFFFFFFFFFFFFFFFFFFFFFFFFFFFF AND DUP2 MSTORE PUSH1 0x20 ADD SWAP1 DUP2 MSTORE PUSH1 0x20 ADD PUSH1 0x0 KECCAK256 PUSH1 0x1 ADD SLOAD SWAP1 POP SWAP2 SWAP1 POP JUMP JUMPDEST PUSH1 0x3 PUSH1 0x0 SWAP1 SLOAD SWAP1 PUSH2 0x100 EXP SWAP1 DIV PUSH1 0xFF AND DUP2 JUMP JUMPDEST PUSH1 0x6 PUSH1 0x0 SWAP1 SLOAD SWAP1 PUSH2 0x100 EXP SWAP1 DIV PUSH20 0xFFFFFFFFFFFFFFFFFFFFFFFFFFFFFFFFFFFFFFFF AND PUSH20 0xFFFFFFFFFFFFFFFFFFFFFFFFFFFFFFFFFFFFFFFF AND CALLER PUSH20 0xFFFFFFFFFFFFFFFFFFFFFFFFFFFFFFFFFFFFFFFF AND EQ PUSH2 0x940 JUMPI PUSH1 0x40 MLOAD PUSH32 0x8C379A000000000000000000000000000000000000000000000000000000000 DUP2 MSTORE PUSH1 0x4 ADD PUSH2 0x937 SWAP1 PUSH2 0x2510 JUMP JUMPDEST PUSH1 0x40 MLOAD DUP1 SWAP2 SUB SWAP1 REVERT JUMPDEST PUSH1 0x3 PUSH1 0x0 SWAP1 SLOAD SWAP1 PUSH2 0x100 EXP SWAP1 DIV PUSH1 0xFF AND PUSH2 0x98F JUMPI PUSH1 0x40 MLOAD PUSH32 0x8C379A000000000000000000000000000000000000000000000000000000000 DUP2 MSTORE PUSH1 0x4 ADD PUSH2 0x986 SWAP1 PUSH2 0x2389 JUMP JUMPDEST PUSH1 0x40 MLOAD DUP1 SWAP2 SUB SWAP1 REVERT JUMPDEST DUP1 PUSH20 0xFFFFFFFFFFFFFFFFFFFFFFFFFFFFFFFFFFFFFFFF AND DUP3 PUSH20 0xFFFFFFFFFFFFFFFFFFFFFFFFFFFFFFFFFFFFFFFF AND SUB PUSH2 0x9FD JUMPI PUSH1 0x40 MLOAD PUSH32 0x8C379A000000000000000000000000000000000000000000000000000000000 DUP2 MSTORE PUSH1 0x4 ADD PUSH2 0x9F4 SWAP1 PUSH2 0x25A2 JUMP JUMPDEST PUSH1 0x40 MLOAD DUP1 SWAP2 SUB SWAP1 REVERT JUMPDEST PUSH1 0x0 DUP1 SHL PUSH1 0x0 DUP1 DUP5 PUSH20 0xFFFFFFFFFFFFFFFFFFFFFFFFFFFFFFFFFFFFFFFF AND PUSH20 0xFFFFFFFFFFFFFFFFFFFFFFFFFFFFFFFFFFFFFFFF AND DUP2 MSTORE PUSH1 0x20 ADD SWAP1 DUP2 MSTORE PUSH1 0x20 ADD PUSH1 0x0 KECCAK256 PUSH1 0x3 ADD SLOAD SUB PUSH2 0xA83 JUMPI PUSH1 0x40 MLOAD PUSH32 0x8C379A000000000000000000000000000000000000000000000000000000000 DUP2 MSTORE PUSH1 0x4 ADD PUSH2 0xA7A SWAP1 PUSH2 0x260E JUMP JUMPDEST PUSH1 0x40 MLOAD DUP1 SWAP2 SUB SWAP1 REVERT JUMPDEST PUSH1 0x0 DUP1 PUSH1 0x0 DUP4 PUSH20 0xFFFFFFFFFFFFFFFFFFFFFFFFFFFFFFFFFFFFFFFF AND PUSH20 0xFFFFFFFFFFFFFFFFFFFFFFFFFFFFFFFFFFFFFFFF AND DUP2 MSTORE PUSH1 0x20 ADD SWAP1 DUP2 MSTORE PUSH1 0x20 ADD PUSH1 0x0 KECCAK256 PUSH1 0x0 ADD SLOAD EQ PUSH2 0xB07 JUMPI PUSH1 0x40 MLOAD PUSH32 0x8C379A000000000000000000000000000000000000000000000000000000000 DUP2 MSTORE PUSH1 0x4 ADD PUSH2 0xAFE SWAP1 PUSH2 0x267A JUMP JUMPDEST PUSH1 0x40 MLOAD DUP1 SWAP2 SUB SWAP1 REVERT JUMPDEST PUSH1 0x0 DUP1 PUSH1 0x0 DUP4 PUSH20 0xFFFFFFFFFFFFFFFFFFFFFFFFFFFFFFFFFFFFFFFF AND PUSH20 0xFFFFFFFFFFFFFFFFFFFFFFFFFFFFFFFFFFFFFFFF AND DUP2 MSTORE PUSH1 0x20 ADD SWAP1 DUP2 MSTORE PUSH1 0x20 ADD PUSH1 0x0 KECCAK256 PUSH1 0x1 ADD SLOAD EQ PUSH2 0xB8B JUMPI PUSH1 0x40 MLOAD PUSH32 0x8C379A000000000000000000000000000000000000000000000000000000000 DUP2 MSTORE PUSH1 0x4 ADD PUSH2 0xB82 SWAP1 PUSH2 0x267A JUMP JUMPDEST PUSH1 0x40 MLOAD DUP1 SWAP2 SUB SWAP1 REVERT JUMPDEST PUSH1 0x0 DUP1 PUSH1 0x0 DUP4 PUSH20 0xFFFFFFFFFFFFFFFFFFFFFFFFFFFFFFFFFFFFFFFF AND PUSH20 0xFFFFFFFFFFFFFFFFFFFFFFFFFFFFFFFFFFFFFFFF AND DUP2 MSTORE PUSH1 0x20 ADD SWAP1 DUP2 MSTORE PUSH1 0x20 ADD PUSH1 0x0 KECCAK256 PUSH1 0x2 ADD SLOAD EQ PUSH2 0xC0F JUMPI PUSH1 0x40 MLOAD PUSH32 0x8C379A000000000000000000000000000000000000000000000000000000000 DUP2 MSTORE PUSH1 0x4 ADD PUSH2 0xC06 SWAP1 PUSH2 0x267A JUMP JUMPDEST PUSH1 0x40 MLOAD DUP1 SWAP2 SUB SWAP1 REVERT JUMPDEST PUSH1 0x0 DUP1 DUP4 PUSH20 0xFFFFFFFFFFFFFFFFFFFFFFFFFFFFFFFFFFFFFFFF AND PUSH20 0xFFFFFFFFFFFFFFFFFFFFFFFFFFFFFFFFFFFFFFFF AND DUP2 MSTORE PUSH1 0x20 ADD SWAP1 DUP2 MSTORE PUSH1 0x20 ADD PUSH1 0x0 KECCAK256 PUSH1 0x4 ADD PUSH1 0x0 SWAP1 SLOAD SWAP1 PUSH2 0x100 EXP SWAP1 DIV PUSH1 0xFF AND PUSH2 0xC9D JUMPI PUSH1 0x40 MLOAD PUSH32 0x8C379A000000000000000000000000000000000000000000000000000000000 DUP2 MSTORE PUSH1 0x4 ADD PUSH2 0xC94 SWAP1 PUSH2 0x26E6 JUMP JUMPDEST PUSH1 0x40 MLOAD DUP1 SWAP2 SUB SWAP1 REVERT JUMPDEST PUSH1 0x0 DUP1 DUP4 PUSH20 0xFFFFFFFFFFFFFFFFFFFFFFFFFFFFFFFFFFFFFFFF AND PUSH20 0xFFFFFFFFFFFFFFFFFFFFFFFFFFFFFFFFFFFFFFFF AND DUP2 MSTORE PUSH1 0x20 ADD SWAP1 DUP2 MSTORE PUSH1 0x20 ADD PUSH1 0x0 KECCAK256 PUSH1 0x0 DUP1 DUP4 PUSH20 0xFFFFFFFFFFFFFFFFFFFFFFFFFFFFFFFFFFFFFFFF AND PUSH20 0xFFFFFFFFFFFFFFFFFFFFFFFFFFFFFFFFFFFFFFFF AND DUP2 MSTORE PUSH1 0x20 ADD SWAP1 DUP2 MSTORE PUSH1 0x20 ADD PUSH1 0x0 KECCAK256 PUSH1 0x0 DUP3 ADD SLOAD DUP2 PUSH1 0x0 ADD SSTORE PUSH1 0x1 DUP3 ADD SLOAD DUP2 PUSH1 0x1 ADD SSTORE PUSH1 0x2 DUP3 ADD SLOAD DUP2 PUSH1 0x2 ADD SSTORE PUSH1 0x3 DUP3 ADD SLOAD DUP2 PUSH1 0x3 ADD SSTORE PUSH1 0x4 DUP3 ADD PUSH1 0x0 SWAP1 SLOAD SWAP1 PUSH2 0x100 EXP SWAP1 DIV PUSH1 0xFF AND DUP2 PUSH1 0x4 ADD PUSH1 0x0 PUSH2 0x100 EXP DUP2 SLOAD DUP2 PUSH1 0xFF MUL NOT AND SWAP1 DUP4 ISZERO ISZERO MUL OR SWAP1 SSTORE POP SWAP1 POP POP PUSH1 0x0 DUP1 DUP4 PUSH20 0xFFFFFFFFFFFFFFFFFFFFFFFFFFFFFFFFFFFFFFFF AND PUSH20 0xFFFFFFFFFFFFFFFFFFFFFFFFFFFFFFFFFFFFFFFF AND DUP2 MSTORE PUSH1 0x20 ADD SWAP1 DUP2 MSTORE PUSH1 0x20 ADD PUSH1 0x0 KECCAK256 PUSH1 0x0 DUP1 DUP3 ADD PUSH1 0x0 SWAP1 SSTORE PUSH1 0x1 DUP3 ADD PUSH1 0x0 SWAP1 SSTORE PUSH1 0x2 DUP3 ADD PUSH1 0x0 SWAP1 SSTORE PUSH1 0x3 DUP3 ADD PUSH1 0x0 SWAP1 SSTORE PUSH1 0x4 DUP3 ADD PUSH1 0x0 PUSH2 0x100 EXP DUP2 SLOAD SWAP1 PUSH1 0xFF MUL NOT AND SWAP1 SSTORE POP POP DUP2 PUSH20 0xFFFFFFFFFFFFFFFFFFFFFFFFFFFFFFFFFFFFFFFF AND PUSH32 0x5E06A4DA1C258BA9BC6142CA9E5B6DFA64E57F7FC4E91A150BA0B3FD301587A0 PUSH1 0x40 MLOAD PUSH1 0x40 MLOAD DUP1 SWAP2 SUB SWAP1 LOG2 POP POP JUMP JUMPDEST PUSH1 0x0 PUSH20 0xFFFFFFFFFFFFFFFFFFFFFFFFFFFFFFFFFFFFFFFF AND DUP2 PUSH20 0xFFFFFFFFFFFFFFFFFFFFFFFFFFFFFFFFFFFFFFFF AND SUB PUSH2 0xE9C JUMPI PUSH1 0x40 MLOAD PUSH32 0x8C379A000000000000000000000000000000000000000000000000000000000 DUP2 MSTORE PUSH1 0x4 ADD PUSH2 0xE93 SWAP1 PUSH2 0x2778 JUMP JUMPDEST PUSH1 0x40 MLOAD DUP1 SWAP2 SUB SWAP1 REVERT JUMPDEST PUSH1 0x0 DUP1 SHL PUSH1 0x0 DUP1 DUP4 PUSH20 0xFFFFFFFFFFFFFFFFFFFFFFFFFFFFFFFFFFFFFFFF AND PUSH20 0xFFFFFFFFFFFFFFFFFFFFFFFFFFFFFFFFFFFFFFFF AND DUP2 MSTORE PUSH1 0x20 ADD SWAP1 DUP2 MSTORE PUSH1 0x20 ADD PUSH1 0x0 KECCAK256 PUSH1 0x3 ADD SLOAD SUB PUSH2 0xF22 JUMPI PUSH1 0x40 MLOAD PUSH32 0x8C379A000000000000000000000000000000000000000000000000000000000 DUP2 MSTORE PUSH1 0x4 ADD PUSH2 0xF19 SWAP1 PUSH2 0x280A JUMP JUMPDEST PUSH1 0x40 MLOAD DUP1 SWAP2 SUB SWAP1 REVERT JUMPDEST PUSH1 0x1 PUSH1 0x0 DUP1 DUP4 PUSH20 0xFFFFFFFFFFFFFFFFFFFFFFFFFFFFFFFFFFFFFFFF AND PUSH20 0xFFFFFFFFFFFFFFFFFFFFFFFFFFFFFFFFFFFFFFFF AND DUP2 MSTORE PUSH1 0x20 ADD SWAP1 DUP2 MSTORE PUSH1 0x20 ADD PUSH1 0x0 KECCAK256 PUSH1 0x4 ADD PUSH1 0x0 PUSH2 0x100 EXP DUP2 SLOAD DUP2 PUSH1 0xFF MUL NOT AND SWAP1 DUP4 ISZERO ISZERO MUL OR SWAP1 SSTORE POP DUP1 PUSH20 0xFFFFFFFFFFFFFFFFFFFFFFFFFFFFFFFFFFFFFFFF AND PUSH32 0xADF0EFCE7D511D3BF9054D210D803D5D49CAD8479BC76EDE63AEFCAEE73A646F PUSH1 0x40 MLOAD PUSH1 0x40 MLOAD DUP1 SWAP2 SUB SWAP1 LOG2 POP JUMP JUMPDEST PUSH1 0x0 DUP1 PUSH1 0x0 DUP4 PUSH20 0xFFFFFFFFFFFFFFFFFFFFFFFFFFFFFFFFFFFFFFFF AND PUSH20 0xFFFFFFFFFFFFFFFFFFFFFFFFFFFFFFFFFFFFFFFF AND DUP2 MSTORE PUSH1 0x20 ADD SWAP1 DUP2 MSTORE PUSH1 0x20 ADD PUSH1 0x0 KECCAK256 PUSH1 0x0 ADD SLOAD SWAP1 POP SWAP2 SWAP1 POP JUMP JUMPDEST PUSH1 0x6 PUSH1 0x0 SWAP1 SLOAD SWAP1 PUSH2 0x100 EXP SWAP1 DIV PUSH20 0xFFFFFFFFFFFFFFFFFFFFFFFFFFFFFFFFFFFFFFFF AND PUSH20 0xFFFFFFFFFFFFFFFFFFFFFFFFFFFFFFFFFFFFFFFF AND CALLER PUSH20 0xFFFFFFFFFFFFFFFFFFFFFFFFFFFFFFFFFFFFFFFF AND EQ PUSH2 0x109D JUMPI PUSH1 0x40 MLOAD PUSH32 0x8C379A000000000000000000000000000000000000000000000000000000000 DUP2 MSTORE PUSH1 0x4 ADD PUSH2 0x1094 SWAP1 PUSH2 0x2510 JUMP JUMPDEST PUSH1 0x40 MLOAD DUP1 SWAP2 SUB SWAP1 REVERT JUMPDEST PUSH1 0x3 PUSH1 0x0 SWAP1 SLOAD SWAP1 PUSH2 0x100 EXP SWAP1 DIV PUSH1 0xFF AND PUSH2 0x10EC JUMPI PUSH1 0x40 MLOAD PUSH32 0x8C379A000000000000000000000000000000000000000000000000000000000 DUP2 MSTORE PUSH1 0x4 ADD PUSH2 0x10E3 SWAP1 PUSH2 0x2389 JUMP JUMPDEST PUSH1 0x40 MLOAD DUP1 SWAP2 SUB SWAP1 REVERT JUMPDEST PUSH1 0x1 PUSH1 0x3 PUSH1 0x0 PUSH2 0x100 EXP DUP2 SLOAD DUP2 PUSH1 0xFF MUL NOT AND SWAP1 DUP4 ISZERO ISZERO MUL OR SWAP1 SSTORE POP JUMP JUMPDEST DUP1 PUSH1 0x0 DUP1 CALLER PUSH20 0xFFFFFFFFFFFFFFFFFFFFFFFFFFFFFFFFFFFFFFFF AND PUSH20 0xFFFFFFFFFFFFFFFFFFFFFFFFFFFFFFFFFFFFFFFF AND DUP2 MSTORE PUSH1 0x20 ADD SWAP1 DUP2 MSTORE PUSH1 0x20 ADD PUSH1 0x0 KECCAK256 PUSH1 0x3 ADD DUP2 SWAP1 SSTORE POP CALLER PUSH20 0xFFFFFFFFFFFFFFFFFFFFFFFFFFFFFFFFFFFFFFFF AND PUSH32 0xB8142D42F05D95ABF0A6570799774D59276E49EA32A04D9A4EC316EA4A6886BC DUP3 PUSH1 0x40 MLOAD PUSH2 0x1195 SWAP2 SWAP1 PUSH2 0x282A JUMP JUMPDEST PUSH1 0x40 MLOAD DUP1 SWAP2 SUB SWAP1 LOG2 POP JUMP JUMPDEST PUSH1 0x60 PUSH1 0x5 DUP1 SLOAD PUSH2 0x11AF SWAP1 PUSH2 0x230C JUMP JUMPDEST DUP1 PUSH1 0x1F ADD PUSH1 0x20 DUP1 SWAP2 DIV MUL PUSH1 0x20 ADD PUSH1 0x40 MLOAD SWAP1 DUP2 ADD PUSH1 0x40 MSTORE DUP1 SWAP3 SWAP2 SWAP1 DUP2 DUP2 MSTORE PUSH1 0x20 ADD DUP3 DUP1 SLOAD PUSH2 0x11DB SWAP1 PUSH2 0x230C JUMP JUMPDEST DUP1 ISZERO PUSH2 0x1228 JUMPI DUP1 PUSH1 0x1F LT PUSH2 0x11FD JUMPI PUSH2 0x100 DUP1 DUP4 SLOAD DIV MUL DUP4 MSTORE SWAP2 PUSH1 0x20 ADD SWAP2 PUSH2 0x1228 JUMP JUMPDEST DUP3 ADD SWAP2 SWAP1 PUSH1 0x0 MSTORE PUSH1 0x20 PUSH1 0x0 KECCAK256 SWAP1 JUMPDEST DUP2 SLOAD DUP2 MSTORE SWAP1 PUSH1 0x1 ADD SWAP1 PUSH1 0x20 ADD DUP1 DUP4 GT PUSH2 0x120B JUMPI DUP3 SWAP1 SUB PUSH1 0x1F AND DUP3 ADD SWAP2 JUMPDEST POP POP POP POP POP SWAP1 POP SWAP1 JUMP JUMPDEST PUSH1 0x0 DUP1 CALLER SWAP1 POP PUSH1 0x0 PUSH2 0x1244 DUP3 DUP7 PUSH2 0x1A1A JUMP JUMPDEST SWAP1 POP DUP4 DUP2 LT ISZERO PUSH2 0x1289 JUMPI PUSH1 0x40 MLOAD PUSH32 0x8C379A000000000000000000000000000000000000000000000000000000000 DUP2 MSTORE PUSH1 0x4 ADD PUSH2 0x1280 SWAP1 PUSH2 0x28B7 JUMP JUMPDEST PUSH1 0x40 MLOAD DUP1 SWAP2 SUB SWAP1 REVERT JUMPDEST PUSH2 0x1296 DUP3 DUP7 DUP7 DUP5 SUB PUSH2 0x1AC7 JUMP JUMPDEST PUSH1 0x1 SWAP3 POP POP POP SWAP3 SWAP2 POP POP JUMP JUMPDEST PUSH1 0x0 PUSH1 0x3 PUSH1 0x0 SWAP1 SLOAD SWAP1 PUSH2 0x100 EXP SWAP1 DIV PUSH1 0xFF AND PUSH2 0x12F3 JUMPI PUSH1 0x40 MLOAD PUSH32 0x8C379A000000000000000000000000000000000000000000000000000000000 DUP2 MSTORE PUSH1 0x4 ADD PUSH2 0x12EA SWAP1 PUSH2 0x2389 JUMP JUMPDEST PUSH1 0x40 MLOAD DUP1 SWAP2 SUB SWAP1 REVERT JUMPDEST PUSH1 0x0 DUP1 CALLER PUSH20 0xFFFFFFFFFFFFFFFFFFFFFFFFFFFFFFFFFFFFFFFF AND PUSH20 0xFFFFFFFFFFFFFFFFFFFFFFFFFFFFFFFFFFFFFFFF AND DUP2 MSTORE PUSH1 0x20 ADD SWAP1 DUP2 MSTORE PUSH1 0x20 ADD PUSH1 0x0 KECCAK256 PUSH1 0x0 ADD SLOAD DUP3 GT ISZERO PUSH2 0x1377 JUMPI PUSH1 0x40 MLOAD PUSH32 0x8C379A000000000000000000000000000000000000000000000000000000000 DUP2 MSTORE PUSH1 0x4 ADD PUSH2 0x136E SWAP1 PUSH2 0x2923 JUMP JUMPDEST PUSH1 0x40 MLOAD DUP1 SWAP2 SUB SWAP1 REVERT JUMPDEST PUSH1 0x0 PUSH8 0xDE0B6B3A7640000 DUP4 PUSH2 0x138D SWAP2 SWAP1 PUSH2 0x2972 JUMP JUMPDEST SWAP1 POP PUSH1 0x0 PUSH8 0xDE0B6B3A7640000 DUP5 PUSH2 0x13A5 SWAP2 SWAP1 PUSH2 0x29A3 JUMP JUMPDEST SWAP1 POP PUSH1 0x0 DUP1 CALLER PUSH20 0xFFFFFFFFFFFFFFFFFFFFFFFFFFFFFFFFFFFFFFFF AND PUSH20 0xFFFFFFFFFFFFFFFFFFFFFFFFFFFFFFFFFFFFFFFF AND DUP2 MSTORE PUSH1 0x20 ADD SWAP1 DUP2 MSTORE PUSH1 0x20 ADD PUSH1 0x0 KECCAK256 PUSH1 0x2 ADD SLOAD DUP2 GT ISZERO PUSH2 0x15A7 JUMPI PUSH1 0x1 PUSH1 0x0 DUP1 CALLER PUSH20 0xFFFFFFFFFFFFFFFFFFFFFFFFFFFFFFFFFFFFFFFF AND PUSH20 0xFFFFFFFFFFFFFFFFFFFFFFFFFFFFFFFFFFFFFFFF AND DUP2 MSTORE PUSH1 0x20 ADD SWAP1 DUP2 MSTORE PUSH1 0x20 ADD PUSH1 0x0 KECCAK256 PUSH1 0x1 ADD PUSH1 0x0 DUP3 DUP3 SLOAD PUSH2 0x1442 SWAP2 SWAP1 PUSH2 0x29D4 JUMP JUMPDEST SWAP3 POP POP DUP2 SWAP1 SSTORE POP PUSH1 0x1 PUSH1 0x0 DUP1 PUSH1 0x6 PUSH1 0x0 SWAP1 SLOAD SWAP1 PUSH2 0x100 EXP SWAP1 DIV PUSH20 0xFFFFFFFFFFFFFFFFFFFFFFFFFFFFFFFFFFFFFFFF AND PUSH20 0xFFFFFFFFFFFFFFFFFFFFFFFFFFFFFFFFFFFFFFFF AND PUSH20 0xFFFFFFFFFFFFFFFFFFFFFFFFFFFFFFFFFFFFFFFF AND DUP2 MSTORE PUSH1 0x20 ADD SWAP1 DUP2 MSTORE PUSH1 0x20 ADD PUSH1 0x0 KECCAK256 PUSH1 0x1 ADD PUSH1 0x0 DUP3 DUP3 SLOAD PUSH2 0x14BD SWAP2 SWAP1 PUSH2 0x246A JUMP JUMPDEST SWAP3 POP POP DUP2 SWAP1 SSTORE POP PUSH8 0xDE0B6B3A7640000 PUSH1 0x0 DUP1 CALLER PUSH20 0xFFFFFFFFFFFFFFFFFFFFFFFFFFFFFFFFFFFFFFFF AND PUSH20 0xFFFFFFFFFFFFFFFFFFFFFFFFFFFFFFFFFFFFFFFF AND DUP2 MSTORE PUSH1 0x20 ADD SWAP1 DUP2 MSTORE PUSH1 0x20 ADD PUSH1 0x0 KECCAK256 PUSH1 0x2 ADD PUSH1 0x0 DUP3 DUP3 SLOAD PUSH2 0x151D SWAP2 SWAP1 PUSH2 0x246A JUMP JUMPDEST SWAP3 POP POP DUP2 SWAP1 SSTORE POP PUSH8 0xDE0B6B3A7640000 PUSH1 0x0 DUP1 PUSH1 0x6 PUSH1 0x0 SWAP1 SLOAD SWAP1 PUSH2 0x100 EXP SWAP1 DIV PUSH20 0xFFFFFFFFFFFFFFFFFFFFFFFFFFFFFFFFFFFFFFFF AND PUSH20 0xFFFFFFFFFFFFFFFFFFFFFFFFFFFFFFFFFFFFFFFF AND PUSH20 0xFFFFFFFFFFFFFFFFFFFFFFFFFFFFFFFFFFFFFFFF AND DUP2 MSTORE PUSH1 0x20 ADD SWAP1 DUP2 MSTORE PUSH1 0x20 ADD PUSH1 0x0 KECCAK256 PUSH1 0x2 ADD PUSH1 0x0 DUP3 DUP3 SLOAD PUSH2 0x159F SWAP2 SWAP1 PUSH2 0x29D4 JUMP JUMPDEST SWAP3 POP POP DUP2 SWAP1 SSTORE POP JUMPDEST DUP2 PUSH1 0x0 DUP1 CALLER PUSH20 0xFFFFFFFFFFFFFFFFFFFFFFFFFFFFFFFFFFFFFFFF AND PUSH20 0xFFFFFFFFFFFFFFFFFFFFFFFFFFFFFFFFFFFFFFFF AND DUP2 MSTORE PUSH1 0x20 ADD SWAP1 DUP2 MSTORE PUSH1 0x20 ADD PUSH1 0x0 KECCAK256 PUSH1 0x1 ADD PUSH1 0x0 DUP3 DUP3 SLOAD PUSH2 0x15F8 SWAP2 SWAP1 PUSH2 0x29D4 JUMP JUMPDEST SWAP3 POP POP DUP2 SWAP1 SSTORE POP DUP1 PUSH1 0x0 DUP1 CALLER PUSH20 0xFFFFFFFFFFFFFFFFFFFFFFFFFFFFFFFFFFFFFFFF AND PUSH20 0xFFFFFFFFFFFFFFFFFFFFFFFFFFFFFFFFFFFFFFFF AND DUP2 MSTORE PUSH1 0x20 ADD SWAP1 DUP2 MSTORE PUSH1 0x20 ADD PUSH1 0x0 KECCAK256 PUSH1 0x2 ADD PUSH1 0x0 DUP3 DUP3 SLOAD PUSH2 0x1650 SWAP2 SWAP1 PUSH2 0x29D4 JUMP JUMPDEST SWAP3 POP POP DUP2 SWAP1 SSTORE POP DUP4 PUSH1 0x0 DUP1 CALLER PUSH20 0xFFFFFFFFFFFFFFFFFFFFFFFFFFFFFFFFFFFFFFFF AND PUSH20 0xFFFFFFFFFFFFFFFFFFFFFFFFFFFFFFFFFFFFFFFF AND DUP2 MSTORE PUSH1 0x20 ADD SWAP1 DUP2 MSTORE PUSH1 0x20 ADD PUSH1 0x0 KECCAK256 PUSH1 0x0 ADD PUSH1 0x0 DUP3 DUP3 SLOAD PUSH2 0x16A8 SWAP2 SWAP1 PUSH2 0x29D4 JUMP JUMPDEST SWAP3 POP POP DUP2 SWAP1 SSTORE POP PUSH1 0x0 DUP1 DUP7 PUSH20 0xFFFFFFFFFFFFFFFFFFFFFFFFFFFFFFFFFFFFFFFF AND PUSH20 0xFFFFFFFFFFFFFFFFFFFFFFFFFFFFFFFFFFFFFFFF AND DUP2 MSTORE PUSH1 0x20 ADD SWAP1 DUP2 MSTORE PUSH1 0x20 ADD PUSH1 0x0 KECCAK256 PUSH1 0x2 ADD SLOAD DUP2 LT ISZERO PUSH2 0x18AF JUMPI PUSH1 0x1 PUSH1 0x0 DUP1 DUP8 PUSH20 0xFFFFFFFFFFFFFFFFFFFFFFFFFFFFFFFFFFFFFFFF AND PUSH20 0xFFFFFFFFFFFFFFFFFFFFFFFFFFFFFFFFFFFFFFFF AND DUP2 MSTORE PUSH1 0x20 ADD SWAP1 DUP2 MSTORE PUSH1 0x20 ADD PUSH1 0x0 KECCAK256 PUSH1 0x1 ADD PUSH1 0x0 DUP3 DUP3 SLOAD PUSH2 0x174A SWAP2 SWAP1 PUSH2 0x246A JUMP JUMPDEST SWAP3 POP POP DUP2 SWAP1 SSTORE POP PUSH1 0x1 PUSH1 0x0 DUP1 PUSH1 0x6 PUSH1 0x0 SWAP1 SLOAD SWAP1 PUSH2 0x100 EXP SWAP1 DIV PUSH20 0xFFFFFFFFFFFFFFFFFFFFFFFFFFFFFFFFFFFFFFFF AND PUSH20 0xFFFFFFFFFFFFFFFFFFFFFFFFFFFFFFFFFFFFFFFF AND PUSH20 0xFFFFFFFFFFFFFFFFFFFFFFFFFFFFFFFFFFFFFFFF AND DUP2 MSTORE PUSH1 0x20 ADD SWAP1 DUP2 MSTORE PUSH1 0x20 ADD PUSH1 0x0 KECCAK256 PUSH1 0x1 ADD PUSH1 0x0 DUP3 DUP3 SLOAD PUSH2 0x17C5 SWAP2 SWAP1 PUSH2 0x29D4 JUMP JUMPDEST SWAP3 POP POP DUP2 SWAP1 SSTORE POP PUSH8 0xDE0B6B3A7640000 PUSH1 0x0 DUP1 DUP8 PUSH20 0xFFFFFFFFFFFFFFFFFFFFFFFFFFFFFFFFFFFFFFFF AND PUSH20 0xFFFFFFFFFFFFFFFFFFFFFFFFFFFFFFFFFFFFFFFF AND DUP2 MSTORE PUSH1 0x20 ADD SWAP1 DUP2 MSTORE PUSH1 0x20 ADD PUSH1 0x0 KECCAK256 PUSH1 0x2 ADD PUSH1 0x0 DUP3 DUP3 SLOAD PUSH2 0x1825 SWAP2 SWAP1 PUSH2 0x29D4 JUMP JUMPDEST SWAP3 POP POP DUP2 SWAP1 SSTORE POP PUSH8 0xDE0B6B3A7640000 PUSH1 0x0 DUP1 PUSH1 0x6 PUSH1 0x0 SWAP1 SLOAD SWAP1 PUSH2 0x100 EXP SWAP1 DIV PUSH20 0xFFFFFFFFFFFFFFFFFFFFFFFFFFFFFFFFFFFFFFFF AND PUSH20 0xFFFFFFFFFFFFFFFFFFFFFFFFFFFFFFFFFFFFFFFF AND PUSH20 0xFFFFFFFFFFFFFFFFFFFFFFFFFFFFFFFFFFFFFFFF AND DUP2 MSTORE PUSH1 0x20 ADD SWAP1 DUP2 MSTORE PUSH1 0x20 ADD PUSH1 0x0 KECCAK256 PUSH1 0x2 ADD PUSH1 0x0 DUP3 DUP3 SLOAD PUSH2 0x18A7 SWAP2 SWAP1 PUSH2 0x246A JUMP JUMPDEST SWAP3 POP POP DUP2 SWAP1 SSTORE POP JUMPDEST DUP2 PUSH1 0x0 DUP1 DUP8 PUSH20 0xFFFFFFFFFFFFFFFFFFFFFFFFFFFFFFFFFFFFFFFF AND PUSH20 0xFFFFFFFFFFFFFFFFFFFFFFFFFFFFFFFFFFFFFFFF AND DUP2 MSTORE PUSH1 0x20 ADD SWAP1 DUP2 MSTORE PUSH1 0x20 ADD PUSH1 0x0 KECCAK256 PUSH1 0x1 ADD PUSH1 0x0 DUP3 DUP3 SLOAD PUSH2 0x1900 SWAP2 SWAP1 PUSH2 0x246A JUMP JUMPDEST SWAP3 POP POP DUP2 SWAP1 SSTORE POP DUP1 PUSH1 0x0 DUP1 DUP8 PUSH20 0xFFFFFFFFFFFFFFFFFFFFFFFFFFFFFFFFFFFFFFFF AND PUSH20 0xFFFFFFFFFFFFFFFFFFFFFFFFFFFFFFFFFFFFFFFF AND DUP2 MSTORE PUSH1 0x20 ADD SWAP1 DUP2 MSTORE PUSH1 0x20 ADD PUSH1 0x0 KECCAK256 PUSH1 0x2 ADD PUSH1 0x0 DUP3 DUP3 SLOAD PUSH2 0x1958 SWAP2 SWAP1 PUSH2 0x246A JUMP JUMPDEST SWAP3 POP POP DUP2 SWAP1 SSTORE POP DUP4 PUSH1 0x0 DUP1 DUP8 PUSH20 0xFFFFFFFFFFFFFFFFFFFFFFFFFFFFFFFFFFFFFFFF AND PUSH20 0xFFFFFFFFFFFFFFFFFFFFFFFFFFFFFFFFFFFFFFFF AND DUP2 MSTORE PUSH1 0x20 ADD SWAP1 DUP2 MSTORE PUSH1 0x20 ADD PUSH1 0x0 KECCAK256 PUSH1 0x0 ADD PUSH1 0x0 DUP3 DUP3 SLOAD PUSH2 0x19B0 SWAP2 SWAP1 PUSH2 0x246A JUMP JUMPDEST SWAP3 POP POP DUP2 SWAP1 SSTORE POP PUSH1 0x1 SWAP3 POP POP POP SWAP3 SWAP2 POP POP JUMP JUMPDEST PUSH8 0xDE0B6B3A7640000 DUP2 JUMP JUMPDEST PUSH1 0x0 DUP1 PUSH1 0x0 DUP4 PUSH20 0xFFFFFFFFFFFFFFFFFFFFFFFFFFFFFFFFFFFFFFFF AND PUSH20 0xFFFFFFFFFFFFFFFFFFFFFFFFFFFFFFFFFFFFFFFF AND DUP2 MSTORE PUSH1 0x20 ADD SWAP1 DUP2 MSTORE PUSH1 0x20 ADD PUSH1 0x0 KECCAK256 PUSH1 0x2 ADD SLOAD SWAP1 POP SWAP2 SWAP1 POP JUMP JUMPDEST PUSH1 0x0 PUSH1 0x1 PUSH1 0x0 DUP5 PUSH20 0xFFFFFFFFFFFFFFFFFFFFFFFFFFFFFFFFFFFFFFFF AND PUSH20 0xFFFFFFFFFFFFFFFFFFFFFFFFFFFFFFFFFFFFFFFF AND DUP2 MSTORE PUSH1 0x20 ADD SWAP1 DUP2 MSTORE PUSH1 0x20 ADD PUSH1 0x0 KECCAK256 PUSH1 0x0 DUP4 PUSH20 0xFFFFFFFFFFFFFFFFFFFFFFFFFFFFFFFFFFFFFFFF AND PUSH20 0xFFFFFFFFFFFFFFFFFFFFFFFFFFFFFFFFFFFFFFFF AND DUP2 MSTORE PUSH1 0x20 ADD SWAP1 DUP2 MSTORE PUSH1 0x20 ADD PUSH1 0x0 KECCAK256 SLOAD SWAP1 POP SWAP3 SWAP2 POP POP JUMP JUMPDEST PUSH1 0x6 PUSH1 0x0 SWAP1 SLOAD SWAP1 PUSH2 0x100 EXP SWAP1 DIV PUSH20 0xFFFFFFFFFFFFFFFFFFFFFFFFFFFFFFFFFFFFFFFF AND DUP2 JUMP JUMPDEST PUSH1 0x0 PUSH20 0xFFFFFFFFFFFFFFFFFFFFFFFFFFFFFFFFFFFFFFFF AND DUP4 PUSH20 0xFFFFFFFFFFFFFFFFFFFFFFFFFFFFFFFFFFFFFFFF AND SUB PUSH2 0x1B36 JUMPI PUSH1 0x40 MLOAD PUSH32 0x8C379A000000000000000000000000000000000000000000000000000000000 DUP2 MSTORE PUSH1 0x4 ADD PUSH2 0x1B2D SWAP1 PUSH2 0x2A7A JUMP JUMPDEST PUSH1 0x40 MLOAD DUP1 SWAP2 SUB SWAP1 REVERT JUMPDEST PUSH1 0x0 PUSH20 0xFFFFFFFFFFFFFFFFFFFFFFFFFFFFFFFFFFFFFFFF AND DUP3 PUSH20 0xFFFFFFFFFFFFFFFFFFFFFFFFFFFFFFFFFFFFFFFF AND SUB PUSH2 0x1BA5 JUMPI PUSH1 0x40 MLOAD PUSH32 0x8C379A000000000000000000000000000000000000000000000000000000000 DUP2 MSTORE PUSH1 0x4 ADD PUSH2 0x1B9C SWAP1 PUSH2 0x2B0C JUMP JUMPDEST PUSH1 0x40 MLOAD DUP1 SWAP2 SUB SWAP1 REVERT JUMPDEST DUP1 PUSH1 0x1 PUSH1 0x0 DUP6 PUSH20 0xFFFFFFFFFFFFFFFFFFFFFFFFFFFFFFFFFFFFFFFF AND PUSH20 0xFFFFFFFFFFFFFFFFFFFFFFFFFFFFFFFFFFFFFFFF AND DUP2 MSTORE PUSH1 0x20 ADD SWAP1 DUP2 MSTORE PUSH1 0x20 ADD PUSH1 0x0 KECCAK256 PUSH1 0x0 DUP5 PUSH20 0xFFFFFFFFFFFFFFFFFFFFFFFFFFFFFFFFFFFFFFFF AND PUSH20 0xFFFFFFFFFFFFFFFFFFFFFFFFFFFFFFFFFFFFFFFF AND DUP2 MSTORE PUSH1 0x20 ADD SWAP1 DUP2 MSTORE PUSH1 0x20 ADD PUSH1 0x0 KECCAK256 DUP2 SWAP1 SSTORE POP DUP2 PUSH20 0xFFFFFFFFFFFFFFFFFFFFFFFFFFFFFFFFFFFFFFFF AND DUP4 PUSH20 0xFFFFFFFFFFFFFFFFFFFFFFFFFFFFFFFFFFFFFFFF AND PUSH32 0x8C5BE1E5EBEC7D5BD14F71427D1E84F3DD0314C0F7B2291E5B200AC8C7C3B925 DUP4 PUSH1 0x40 MLOAD PUSH2 0x1C83 SWAP2 SWAP1 PUSH2 0x2175 JUMP JUMPDEST PUSH1 0x40 MLOAD DUP1 SWAP2 SUB SWAP1 LOG3 POP POP POP JUMP JUMPDEST PUSH1 0x0 PUSH20 0xFFFFFFFFFFFFFFFFFFFFFFFFFFFFFFFFFFFFFFFF AND DUP4 PUSH20 0xFFFFFFFFFFFFFFFFFFFFFFFFFFFFFFFFFFFFFFFF AND SUB PUSH2 0x1CFF JUMPI PUSH1 0x40 MLOAD PUSH32 0x8C379A000000000000000000000000000000000000000000000000000000000 DUP2 MSTORE PUSH1 0x4 ADD PUSH2 0x1CF6 SWAP1 PUSH2 0x2B9E JUMP JUMPDEST PUSH1 0x40 MLOAD DUP1 SWAP2 SUB SWAP1 REVERT JUMPDEST PUSH1 0x0 PUSH20 0xFFFFFFFFFFFFFFFFFFFFFFFFFFFFFFFFFFFFFFFF AND DUP3 PUSH20 0xFFFFFFFFFFFFFFFFFFFFFFFFFFFFFFFFFFFFFFFF AND SUB PUSH2 0x1D6E JUMPI PUSH1 0x40 MLOAD PUSH32 0x8C379A000000000000000000000000000000000000000000000000000000000 DUP2 MSTORE PUSH1 0x4 ADD PUSH2 0x1D65 SWAP1 PUSH2 0x2C30 JUMP JUMPDEST PUSH1 0x40 MLOAD DUP1 SWAP2 SUB SWAP1 REVERT JUMPDEST PUSH1 0x0 DUP1 DUP5 PUSH20 0xFFFFFFFFFFFFFFFFFFFFFFFFFFFFFFFFFFFFFFFF AND PUSH20 0xFFFFFFFFFFFFFFFFFFFFFFFFFFFFFFFFFFFFFFFF AND DUP2 MSTORE PUSH1 0x20 ADD SWAP1 DUP2 MSTORE PUSH1 0x20 ADD PUSH1 0x0 KECCAK256 PUSH1 0x0 ADD SLOAD DUP2 GT ISZERO PUSH2 0x1DF2 JUMPI PUSH1 0x40 MLOAD PUSH32 0x8C379A000000000000000000000000000000000000000000000000000000000 DUP2 MSTORE PUSH1 0x4 ADD PUSH2 0x1DE9 SWAP1 PUSH2 0x2CC2 JUMP JUMPDEST PUSH1 0x40 MLOAD DUP1 SWAP2 SUB SWAP1 REVERT JUMPDEST DUP1 PUSH1 0x0 DUP1 DUP6 PUSH20 0xFFFFFFFFFFFFFFFFFFFFFFFFFFFFFFFFFFFFFFFF AND PUSH20 0xFFFFFFFFFFFFFFFFFFFFFFFFFFFFFFFFFFFFFFFF AND DUP2 MSTORE PUSH1 0x20 ADD SWAP1 DUP2 MSTORE PUSH1 0x20 ADD PUSH1 0x0 KECCAK256 PUSH1 0x0 ADD PUSH1 0x0 DUP3 DUP3 SLOAD PUSH2 0x1E43 SWAP2 SWAP1 PUSH2 0x29D4 JUMP JUMPDEST SWAP3 POP POP DUP2 SWAP1 SSTORE POP DUP1 PUSH1 0x0 DUP1 DUP5 PUSH20 0xFFFFFFFFFFFFFFFFFFFFFFFFFFFFFFFFFFFFFFFF AND PUSH20 0xFFFFFFFFFFFFFFFFFFFFFFFFFFFFFFFFFFFFFFFF AND DUP2 MSTORE PUSH1 0x20 ADD SWAP1 DUP2 MSTORE PUSH1 0x20 ADD PUSH1 0x0 KECCAK256 PUSH1 0x0 ADD PUSH1 0x0 DUP3 DUP3 SLOAD PUSH2 0x1E9B SWAP2 SWAP1 PUSH2 0x246A JUMP JUMPDEST SWAP3 POP POP DUP2 SWAP1 SSTORE POP DUP2 PUSH20 0xFFFFFFFFFFFFFFFFFFFFFFFFFFFFFFFFFFFFFFFF AND DUP4 PUSH20 0xFFFFFFFFFFFFFFFFFFFFFFFFFFFFFFFFFFFFFFFF AND PUSH32 0xDDF252AD1BE2C89B69C2B068FC378DAA952BA7F163C4A11628F55A4DF523B3EF DUP4 PUSH1 0x40 MLOAD PUSH2 0x1EFF SWAP2 SWAP1 PUSH2 0x2175 JUMP JUMPDEST PUSH1 0x40 MLOAD DUP1 SWAP2 SUB SWAP1 LOG3 POP POP POP JUMP JUMPDEST PUSH1 0x0 DUP1 REVERT JUMPDEST PUSH1 0x0 PUSH20 0xFFFFFFFFFFFFFFFFFFFFFFFFFFFFFFFFFFFFFFFF DUP3 AND SWAP1 POP SWAP2 SWAP1 POP JUMP JUMPDEST PUSH1 0x0 PUSH2 0x1F3C DUP3 PUSH2 0x1F11 JUMP JUMPDEST SWAP1 POP SWAP2 SWAP1 POP JUMP JUMPDEST PUSH2 0x1F4C DUP2 PUSH2 0x1F31 JUMP JUMPDEST DUP2 EQ PUSH2 0x1F57 JUMPI PUSH1 0x0 DUP1 REVERT JUMPDEST POP JUMP JUMPDEST PUSH1 0x0 DUP2 CALLDATALOAD SWAP1 POP PUSH2 0x1F69 DUP2 PUSH2 0x1F43 JUMP JUMPDEST SWAP3 SWAP2 POP POP JUMP JUMPDEST PUSH1 0x0 PUSH1 0x20 DUP3 DUP5 SUB SLT ISZERO PUSH2 0x1F85 JUMPI PUSH2 0x1F84 PUSH2 0x1F0C JUMP JUMPDEST JUMPDEST PUSH1 0x0 PUSH2 0x1F93 DUP5 DUP3 DUP6 ADD PUSH2 0x1F5A JUMP JUMPDEST SWAP2 POP POP SWAP3 SWAP2 POP POP JUMP JUMPDEST PUSH1 0x0 DUP2 SWAP1 POP SWAP2 SWAP1 POP JUMP JUMPDEST PUSH2 0x1FAF DUP2 PUSH2 0x1F9C JUMP JUMPDEST DUP3 MSTORE POP POP JUMP JUMPDEST PUSH1 0x0 DUP2 SWAP1 POP SWAP2 SWAP1 POP JUMP JUMPDEST PUSH2 0x1FC8 DUP2 PUSH2 0x1FB5 JUMP JUMPDEST DUP3 MSTORE POP POP JUMP JUMPDEST PUSH1 0x0 DUP2 ISZERO ISZERO SWAP1 POP SWAP2 SWAP1 POP JUMP JUMPDEST PUSH2 0x1FE3 DUP2 PUSH2 0x1FCE JUMP JUMPDEST DUP3 MSTORE POP POP JUMP JUMPDEST PUSH1 0x0 PUSH1 0xA0 DUP3 ADD SWAP1 POP PUSH2 0x1FFE PUSH1 0x0 DUP4 ADD DUP9 PUSH2 0x1FA6 JUMP JUMPDEST PUSH2 0x200B PUSH1 0x20 DUP4 ADD DUP8 PUSH2 0x1FA6 JUMP JUMPDEST PUSH2 0x2018 PUSH1 0x40 DUP4 ADD DUP7 PUSH2 0x1FA6 JUMP JUMPDEST PUSH2 0x2025 PUSH1 0x60 DUP4 ADD DUP6 PUSH2 0x1FBF JUMP JUMPDEST PUSH2 0x2032 PUSH1 0x80 DUP4 ADD DUP5 PUSH2 0x1FDA JUMP JUMPDEST SWAP7 SWAP6 POP POP POP POP POP POP JUMP JUMPDEST PUSH1 0x0 DUP2 MLOAD SWAP1 POP SWAP2 SWAP1 POP JUMP JUMPDEST PUSH1 0x0 DUP3 DUP3 MSTORE PUSH1 0x20 DUP3 ADD SWAP1 POP SWAP3 SWAP2 POP POP JUMP JUMPDEST PUSH1 0x0 JUMPDEST DUP4 DUP2 LT ISZERO PUSH2 0x2076 JUMPI DUP1 DUP3 ADD MLOAD DUP2 DUP5 ADD MSTORE PUSH1 0x20 DUP2 ADD SWAP1 POP PUSH2 0x205B JUMP JUMPDEST PUSH1 0x0 DUP5 DUP5 ADD MSTORE POP POP POP POP JUMP JUMPDEST PUSH1 0x0 PUSH1 0x1F NOT PUSH1 0x1F DUP4 ADD AND SWAP1 POP SWAP2 SWAP1 POP JUMP JUMPDEST PUSH1 0x0 PUSH2 0x209E DUP3 PUSH2 0x203C JUMP JUMPDEST PUSH2 0x20A8 DUP2 DUP6 PUSH2 0x2047 JUMP JUMPDEST SWAP4 POP PUSH2 0x20B8 DUP2 DUP6 PUSH1 0x20 DUP7 ADD PUSH2 0x2058 JUMP JUMPDEST PUSH2 0x20C1 DUP2 PUSH2 0x2082 JUMP JUMPDEST DUP5 ADD SWAP2 POP POP SWAP3 SWAP2 POP POP JUMP JUMPDEST PUSH1 0x0 PUSH1 0x20 DUP3 ADD SWAP1 POP DUP2 DUP2 SUB PUSH1 0x0 DUP4 ADD MSTORE PUSH2 0x20E6 DUP2 DUP5 PUSH2 0x2093 JUMP JUMPDEST SWAP1 POP SWAP3 SWAP2 POP POP JUMP JUMPDEST PUSH2 0x20F7 DUP2 PUSH2 0x1F9C JUMP JUMPDEST DUP2 EQ PUSH2 0x2102 JUMPI PUSH1 0x0 DUP1 REVERT JUMPDEST POP JUMP JUMPDEST PUSH1 0x0 DUP2 CALLDATALOAD SWAP1 POP PUSH2 0x2114 DUP2 PUSH2 0x20EE JUMP JUMPDEST SWAP3 SWAP2 POP POP JUMP JUMPDEST PUSH1 0x0 DUP1 PUSH1 0x40 DUP4 DUP6 SUB SLT ISZERO PUSH2 0x2131 JUMPI PUSH2 0x2130 PUSH2 0x1F0C JUMP JUMPDEST JUMPDEST PUSH1 0x0 PUSH2 0x213F DUP6 DUP3 DUP7 ADD PUSH2 0x1F5A JUMP JUMPDEST SWAP3 POP POP PUSH1 0x20 PUSH2 0x2150 DUP6 DUP3 DUP7 ADD PUSH2 0x2105 JUMP JUMPDEST SWAP2 POP POP SWAP3 POP SWAP3 SWAP1 POP JUMP JUMPDEST PUSH1 0x0 PUSH1 0x20 DUP3 ADD SWAP1 POP PUSH2 0x216F PUSH1 0x0 DUP4 ADD DUP5 PUSH2 0x1FDA JUMP JUMPDEST SWAP3 SWAP2 POP POP JUMP JUMPDEST PUSH1 0x0 PUSH1 0x20 DUP3 ADD SWAP1 POP PUSH2 0x218A PUSH1 0x0 DUP4 ADD DUP5 PUSH2 0x1FA6 JUMP JUMPDEST SWAP3 SWAP2 POP POP JUMP JUMPDEST PUSH1 0x0 DUP1 PUSH1 0x0 PUSH1 0x60 DUP5 DUP7 SUB SLT ISZERO PUSH2 0x21A9 JUMPI PUSH2 0x21A8 PUSH2 0x1F0C JUMP JUMPDEST JUMPDEST PUSH1 0x0 PUSH2 0x21B7 DUP7 DUP3 DUP8 ADD PUSH2 0x1F5A JUMP JUMPDEST SWAP4 POP POP PUSH1 0x20 PUSH2 0x21C8 DUP7 DUP3 DUP8 ADD PUSH2 0x1F5A JUMP JUMPDEST SWAP3 POP POP PUSH1 0x40 PUSH2 0x21D9 DUP7 DUP3 DUP8 ADD PUSH2 0x2105 JUMP JUMPDEST SWAP2 POP POP SWAP3 POP SWAP3 POP SWAP3 JUMP JUMPDEST PUSH1 0x0 PUSH1 0xFF DUP3 AND SWAP1 POP SWAP2 SWAP1 POP JUMP JUMPDEST PUSH2 0x21F9 DUP2 PUSH2 0x21E3 JUMP JUMPDEST DUP3 MSTORE POP POP JUMP JUMPDEST PUSH1 0x0 PUSH1 0x20 DUP3 ADD SWAP1 POP PUSH2 0x2214 PUSH1 0x0 DUP4 ADD DUP5 PUSH2 0x21F0 JUMP JUMPDEST SWAP3 SWAP2 POP POP JUMP JUMPDEST PUSH1 0x0 DUP1 PUSH1 0x40 DUP4 DUP6 SUB SLT ISZERO PUSH2 0x2231 JUMPI PUSH2 0x2230 PUSH2 0x1F0C JUMP JUMPDEST JUMPDEST PUSH1 0x0 PUSH2 0x223F DUP6 DUP3 DUP7 ADD PUSH2 0x1F5A JUMP JUMPDEST SWAP3 POP POP PUSH1 0x20 PUSH2 0x2250 DUP6 DUP3 DUP7 ADD PUSH2 0x1F5A JUMP JUMPDEST SWAP2 POP POP SWAP3 POP SWAP3 SWAP1 POP JUMP JUMPDEST PUSH2 0x2263 DUP2 PUSH2 0x1FB5 JUMP JUMPDEST DUP2 EQ PUSH2 0x226E JUMPI PUSH1 0x0 DUP1 REVERT JUMPDEST POP JUMP JUMPDEST PUSH1 0x0 DUP2 CALLDATALOAD SWAP1 POP PUSH2 0x2280 DUP2 PUSH2 0x225A JUMP JUMPDEST SWAP3 SWAP2 POP POP JUMP JUMPDEST PUSH1 0x0 PUSH1 0x20 DUP3 DUP5 SUB SLT ISZERO PUSH2 0x229C JUMPI PUSH2 0x229B PUSH2 0x1F0C JUMP JUMPDEST JUMPDEST PUSH1 0x0 PUSH2 0x22AA DUP5 DUP3 DUP6 ADD PUSH2 0x2271 JUMP JUMPDEST SWAP2 POP POP SWAP3 SWAP2 POP POP JUMP JUMPDEST PUSH2 0x22BC DUP2 PUSH2 0x1F31 JUMP JUMPDEST DUP3 MSTORE POP POP JUMP JUMPDEST PUSH1 0x0 PUSH1 0x20 DUP3 ADD SWAP1 POP PUSH2 0x22D7 PUSH1 0x0 DUP4 ADD DUP5 PUSH2 0x22B3 JUMP JUMPDEST SWAP3 SWAP2 POP POP JUMP JUMPDEST PUSH32 0x4E487B7100000000000000000000000000000000000000000000000000000000 PUSH1 0x0 MSTORE PUSH1 0x22 PUSH1 0x4 MSTORE PUSH1 0x24 PUSH1 0x0 REVERT JUMPDEST PUSH1 0x0 PUSH1 0x2 DUP3 DIV SWAP1 POP PUSH1 0x1 DUP3 AND DUP1 PUSH2 0x2324 JUMPI PUSH1 0x7F DUP3 AND SWAP2 POP JUMPDEST PUSH1 0x20 DUP3 LT DUP2 SUB PUSH2 0x2337 JUMPI PUSH2 0x2336 PUSH2 0x22DD JUMP JUMPDEST JUMPDEST POP SWAP2 SWAP1 POP JUMP JUMPDEST PUSH32 0x45524332303A20746F6B656E206973206E6F7420706175736564000000000000 PUSH1 0x0 DUP3 ADD MSTORE POP JUMP JUMPDEST PUSH1 0x0 PUSH2 0x2373 PUSH1 0x1A DUP4 PUSH2 0x2047 JUMP JUMPDEST SWAP2 POP PUSH2 0x237E DUP3 PUSH2 0x233D JUMP JUMPDEST PUSH1 0x20 DUP3 ADD SWAP1 POP SWAP2 SWAP1 POP JUMP JUMPDEST PUSH1 0x0 PUSH1 0x20 DUP3 ADD SWAP1 POP DUP2 DUP2 SUB PUSH1 0x0 DUP4 ADD MSTORE PUSH2 0x23A2 DUP2 PUSH2 0x2366 JUMP JUMPDEST SWAP1 POP SWAP2 SWAP1 POP JUMP JUMPDEST PUSH32 0x45524332303A207472616E7366657220616D6F756E7420657863656564732061 PUSH1 0x0 DUP3 ADD MSTORE PUSH32 0x6C6C6F77616E6365000000000000000000000000000000000000000000000000 PUSH1 0x20 DUP3 ADD MSTORE POP JUMP JUMPDEST PUSH1 0x0 PUSH2 0x2405 PUSH1 0x28 DUP4 PUSH2 0x2047 JUMP JUMPDEST SWAP2 POP PUSH2 0x2410 DUP3 PUSH2 0x23A9 JUMP JUMPDEST PUSH1 0x40 DUP3 ADD SWAP1 POP SWAP2 SWAP1 POP JUMP JUMPDEST PUSH1 0x0 PUSH1 0x20 DUP3 ADD SWAP1 POP DUP2 DUP2 SUB PUSH1 0x0 DUP4 ADD MSTORE PUSH2 0x2434 DUP2 PUSH2 0x23F8 JUMP JUMPDEST SWAP1 POP SWAP2 SWAP1 POP JUMP JUMPDEST PUSH32 0x4E487B7100000000000000000000000000000000000000000000000000000000 PUSH1 0x0 MSTORE PUSH1 0x11 PUSH1 0x4 MSTORE PUSH1 0x24 PUSH1 0x0 REVERT JUMPDEST PUSH1 0x0 PUSH2 0x2475 DUP3 PUSH2 0x1F9C JUMP JUMPDEST SWAP2 POP PUSH2 0x2480 DUP4 PUSH2 0x1F9C JUMP JUMPDEST SWAP3 POP DUP3 DUP3 ADD SWAP1 POP DUP1 DUP3 GT ISZERO PUSH2 0x2498 JUMPI PUSH2 0x2497 PUSH2 0x243B JUMP JUMPDEST JUMPDEST SWAP3 SWAP2 POP POP JUMP JUMPDEST PUSH32 0x45524332303A206F6E6C7920636F72706F726174696F6E2063616E2063616C6C PUSH1 0x0 DUP3 ADD MSTORE PUSH32 0x20746869732066756E6374696F6E000000000000000000000000000000000000 PUSH1 0x20 DUP3 ADD MSTORE POP JUMP JUMPDEST PUSH1 0x0 PUSH2 0x24FA PUSH1 0x2E DUP4 PUSH2 0x2047 JUMP JUMPDEST SWAP2 POP PUSH2 0x2505 DUP3 PUSH2 0x249E JUMP JUMPDEST PUSH1 0x40 DUP3 ADD SWAP1 POP SWAP2 SWAP1 POP JUMP JUMPDEST PUSH1 0x0 PUSH1 0x20 DUP3 ADD SWAP1 POP DUP2 DUP2 SUB PUSH1 0x0 DUP4 ADD MSTORE PUSH2 0x2529 DUP2 PUSH2 0x24ED JUMP JUMPDEST SWAP1 POP SWAP2 SWAP1 POP JUMP JUMPDEST PUSH32 0x4C6F737420616464726573732063616E6E6F74206265207468652073616D6520 PUSH1 0x0 DUP3 ADD MSTORE PUSH32 0x6173206E65772061646472657373000000000000000000000000000000000000 PUSH1 0x20 DUP3 ADD MSTORE POP JUMP JUMPDEST PUSH1 0x0 PUSH2 0x258C PUSH1 0x2E DUP4 PUSH2 0x2047 JUMP JUMPDEST SWAP2 POP PUSH2 0x2597 DUP3 PUSH2 0x2530 JUMP JUMPDEST PUSH1 0x40 DUP3 ADD SWAP1 POP SWAP2 SWAP1 POP JUMP JUMPDEST PUSH1 0x0 PUSH1 0x20 DUP3 ADD SWAP1 POP DUP2 DUP2 SUB PUSH1 0x0 DUP4 ADD MSTORE PUSH2 0x25BB DUP2 PUSH2 0x257F JUMP JUMPDEST SWAP1 POP SWAP2 SWAP1 POP JUMP JUMPDEST PUSH32 0x4C6F73742061646472657373206D757374206265207265676973746572656400 PUSH1 0x0 DUP3 ADD MSTORE POP JUMP JUMPDEST PUSH1 0x0 PUSH2 0x25F8 PUSH1 0x1F DUP4 PUSH2 0x2047 JUMP JUMPDEST SWAP2 POP PUSH2 0x2603 DUP3 PUSH2 0x25C2 JUMP JUMPDEST PUSH1 0x20 DUP3 ADD SWAP1 POP SWAP2 SWAP1 POP JUMP JUMPDEST PUSH1 0x0 PUSH1 0x20 DUP3 ADD SWAP1 POP DUP2 DUP2 SUB PUSH1 0x0 DUP4 ADD MSTORE PUSH2 0x2627 DUP2 PUSH2 0x25EB JUMP JUMPDEST SWAP1 POP SWAP2 SWAP1 POP JUMP JUMPDEST PUSH32 0x4E65772061646472657373206D75737420626520726567697374657265640000 PUSH1 0x0 DUP3 ADD MSTORE POP JUMP JUMPDEST PUSH1 0x0 PUSH2 0x2664 PUSH1 0x1E DUP4 PUSH2 0x2047 JUMP JUMPDEST SWAP2 POP PUSH2 0x266F DUP3 PUSH2 0x262E JUMP JUMPDEST PUSH1 0x20 DUP3 ADD SWAP1 POP SWAP2 SWAP1 POP JUMP JUMPDEST PUSH1 0x0 PUSH1 0x20 DUP3 ADD SWAP1 POP DUP2 DUP2 SUB PUSH1 0x0 DUP4 ADD MSTORE PUSH2 0x2693 DUP2 PUSH2 0x2657 JUMP JUMPDEST SWAP1 POP SWAP2 SWAP1 POP JUMP JUMPDEST PUSH32 0x41646472657373206E6F74206D61726B656420666F72207265636F7665727900 PUSH1 0x0 DUP3 ADD MSTORE POP JUMP JUMPDEST PUSH1 0x0 PUSH2 0x26D0 PUSH1 0x1F DUP4 PUSH2 0x2047 JUMP JUMPDEST SWAP2 POP PUSH2 0x26DB DUP3 PUSH2 0x269A JUMP JUMPDEST PUSH1 0x20 DUP3 ADD SWAP1 POP SWAP2 SWAP1 POP JUMP JUMPDEST PUSH1 0x0 PUSH1 0x20 DUP3 ADD SWAP1 POP DUP2 DUP2 SUB PUSH1 0x0 DUP4 ADD MSTORE PUSH2 0x26FF DUP2 PUSH2 0x26C3 JUMP JUMPDEST SWAP1 POP SWAP2 SWAP1 POP JUMP JUMPDEST PUSH32 0x45524332303A20617070726F76655265636F7665727920746F20746865207A65 PUSH1 0x0 DUP3 ADD MSTORE PUSH32 0x726F206164647265737300000000000000000000000000000000000000000000 PUSH1 0x20 DUP3 ADD MSTORE POP JUMP JUMPDEST PUSH1 0x0 PUSH2 0x2762 PUSH1 0x2A DUP4 PUSH2 0x2047 JUMP JUMPDEST SWAP2 POP PUSH2 0x276D DUP3 PUSH2 0x2706 JUMP JUMPDEST PUSH1 0x40 DUP3 ADD SWAP1 POP SWAP2 SWAP1 POP JUMP JUMPDEST PUSH1 0x0 PUSH1 0x20 DUP3 ADD SWAP1 POP DUP2 DUP2 SUB PUSH1 0x0 DUP4 ADD MSTORE PUSH2 0x2791 DUP2 PUSH2 0x2755 JUMP JUMPDEST SWAP1 POP SWAP2 SWAP1 POP JUMP JUMPDEST PUSH32 0x45524332303A206163636F756E74206D75737420626520726567697374657265 PUSH1 0x0 DUP3 ADD MSTORE PUSH32 0x6400000000000000000000000000000000000000000000000000000000000000 PUSH1 0x20 DUP3 ADD MSTORE POP JUMP JUMPDEST PUSH1 0x0 PUSH2 0x27F4 PUSH1 0x21 DUP4 PUSH2 0x2047 JUMP JUMPDEST SWAP2 POP PUSH2 0x27FF DUP3 PUSH2 0x2798 JUMP JUMPDEST PUSH1 0x40 DUP3 ADD SWAP1 POP SWAP2 SWAP1 POP JUMP JUMPDEST PUSH1 0x0 PUSH1 0x20 DUP3 ADD SWAP1 POP DUP2 DUP2 SUB PUSH1 0x0 DUP4 ADD MSTORE PUSH2 0x2823 DUP2 PUSH2 0x27E7 JUMP JUMPDEST SWAP1 POP SWAP2 SWAP1 POP JUMP JUMPDEST PUSH1 0x0 PUSH1 0x20 DUP3 ADD SWAP1 POP PUSH2 0x283F PUSH1 0x0 DUP4 ADD DUP5 PUSH2 0x1FBF JUMP JUMPDEST SWAP3 SWAP2 POP POP JUMP JUMPDEST PUSH32 0x45524332303A2064656372656173656420616C6C6F77616E63652062656C6F77 PUSH1 0x0 DUP3 ADD MSTORE PUSH32 0x207A65726F000000000000000000000000000000000000000000000000000000 PUSH1 0x20 DUP3 ADD MSTORE POP JUMP JUMPDEST PUSH1 0x0 PUSH2 0x28A1 PUSH1 0x25 DUP4 PUSH2 0x2047 JUMP JUMPDEST SWAP2 POP PUSH2 0x28AC DUP3 PUSH2 0x2845 JUMP JUMPDEST PUSH1 0x40 DUP3 ADD SWAP1 POP SWAP2 SWAP1 POP JUMP JUMPDEST PUSH1 0x0 PUSH1 0x20 DUP3 ADD SWAP1 POP DUP2 DUP2 SUB PUSH1 0x0 DUP4 ADD MSTORE PUSH2 0x28D0 DUP2 PUSH2 0x2894 JUMP JUMPDEST SWAP1 POP SWAP2 SWAP1 POP JUMP JUMPDEST PUSH32 0x546F6B656E2062616C616E6365206973206E6F7420656E6F7567680000000000 PUSH1 0x0 DUP3 ADD MSTORE POP JUMP JUMPDEST PUSH1 0x0 PUSH2 0x290D PUSH1 0x1B DUP4 PUSH2 0x2047 JUMP JUMPDEST SWAP2 POP PUSH2 0x2918 DUP3 PUSH2 0x28D7 JUMP JUMPDEST PUSH1 0x20 DUP3 ADD SWAP1 POP SWAP2 SWAP1 POP JUMP JUMPDEST PUSH1 0x0 PUSH1 0x20 DUP3 ADD SWAP1 POP DUP2 DUP2 SUB PUSH1 0x0 DUP4 ADD MSTORE PUSH2 0x293C DUP2 PUSH2 0x2900 JUMP JUMPDEST SWAP1 POP SWAP2 SWAP1 POP JUMP JUMPDEST PUSH32 0x4E487B7100000000000000000000000000000000000000000000000000000000 PUSH1 0x0 MSTORE PUSH1 0x12 PUSH1 0x4 MSTORE PUSH1 0x24 PUSH1 0x0 REVERT JUMPDEST PUSH1 0x0 PUSH2 0x297D DUP3 PUSH2 0x1F9C JUMP JUMPDEST SWAP2 POP PUSH2 0x2988 DUP4 PUSH2 0x1F9C JUMP JUMPDEST SWAP3 POP DUP3 PUSH2 0x2998 JUMPI PUSH2 0x2997 PUSH2 0x2943 JUMP JUMPDEST JUMPDEST DUP3 DUP3 DIV SWAP1 POP SWAP3 SWAP2 POP POP JUMP JUMPDEST PUSH1 0x0 PUSH2 0x29AE DUP3 PUSH2 0x1F9C JUMP JUMPDEST SWAP2 POP PUSH2 0x29B9 DUP4 PUSH2 0x1F9C JUMP JUMPDEST SWAP3 POP DUP3 PUSH2 0x29C9 JUMPI PUSH2 0x29C8 PUSH2 0x2943 JUMP JUMPDEST JUMPDEST DUP3 DUP3 MOD SWAP1 POP SWAP3 SWAP2 POP POP JUMP JUMPDEST PUSH1 0x0 PUSH2 0x29DF DUP3 PUSH2 0x1F9C JUMP JUMPDEST SWAP2 POP PUSH2 0x29EA DUP4 PUSH2 0x1F9C JUMP JUMPDEST SWAP3 POP DUP3 DUP3 SUB SWAP1 POP DUP2 DUP2 GT ISZERO PUSH2 0x2A02 JUMPI PUSH2 0x2A01 PUSH2 0x243B JUMP JUMPDEST JUMPDEST SWAP3 SWAP2 POP POP JUMP JUMPDEST PUSH32 0x45524332303A20617070726F76652066726F6D20746865207A65726F20616464 PUSH1 0x0 DUP3 ADD MSTORE PUSH32 0x7265737300000000000000000000000000000000000000000000000000000000 PUSH1 0x20 DUP3 ADD MSTORE POP JUMP JUMPDEST PUSH1 0x0 PUSH2 0x2A64 PUSH1 0x24 DUP4 PUSH2 0x2047 JUMP JUMPDEST SWAP2 POP PUSH2 0x2A6F DUP3 PUSH2 0x2A08 JUMP JUMPDEST PUSH1 0x40 DUP3 ADD SWAP1 POP SWAP2 SWAP1 POP JUMP JUMPDEST PUSH1 0x0 PUSH1 0x20 DUP3 ADD SWAP1 POP DUP2 DUP2 SUB PUSH1 0x0 DUP4 ADD MSTORE PUSH2 0x2A93 DUP2 PUSH2 0x2A57 JUMP JUMPDEST SWAP1 POP SWAP2 SWAP1 POP JUMP JUMPDEST PUSH32 0x45524332303A20617070726F766520746F20746865207A65726F206164647265 PUSH1 0x0 DUP3 ADD MSTORE PUSH32 0x7373000000000000000000000000000000000000000000000000000000000000 PUSH1 0x20 DUP3 ADD MSTORE POP JUMP JUMPDEST PUSH1 0x0 PUSH2 0x2AF6 PUSH1 0x22 DUP4 PUSH2 0x2047 JUMP JUMPDEST SWAP2 POP PUSH2 0x2B01 DUP3 PUSH2 0x2A9A JUMP JUMPDEST PUSH1 0x40 DUP3 ADD SWAP1 POP SWAP2 SWAP1 POP JUMP JUMPDEST PUSH1 0x0 PUSH1 0x20 DUP3 ADD SWAP1 POP DUP2 DUP2 SUB PUSH1 0x0 DUP4 ADD MSTORE PUSH2 0x2B25 DUP2 PUSH2 0x2AE9 JUMP JUMPDEST SWAP1 POP SWAP2 SWAP1 POP JUMP JUMPDEST PUSH32 0x45524332303A207472616E736665722066726F6D20746865207A65726F206164 PUSH1 0x0 DUP3 ADD MSTORE PUSH32 0x6472657373000000000000000000000000000000000000000000000000000000 PUSH1 0x20 DUP3 ADD MSTORE POP JUMP JUMPDEST PUSH1 0x0 PUSH2 0x2B88 PUSH1 0x25 DUP4 PUSH2 0x2047 JUMP JUMPDEST SWAP2 POP PUSH2 0x2B93 DUP3 PUSH2 0x2B2C JUMP JUMPDEST PUSH1 0x40 DUP3 ADD SWAP1 POP SWAP2 SWAP1 POP JUMP JUMPDEST PUSH1 0x0 PUSH1 0x20 DUP3 ADD SWAP1 POP DUP2 DUP2 SUB PUSH1 0x0 DUP4 ADD MSTORE PUSH2 0x2BB7 DUP2 PUSH2 0x2B7B JUMP JUMPDEST SWAP1 POP SWAP2 SWAP1 POP JUMP JUMPDEST PUSH32 0x45524332303A207472616E7366657220746F20746865207A65726F2061646472 PUSH1 0x0 DUP3 ADD MSTORE PUSH32 0x6573730000000000000000000000000000000000000000000000000000000000 PUSH1 0x20 DUP3 ADD MSTORE POP JUMP JUMPDEST PUSH1 0x0 PUSH2 0x2C1A PUSH1 0x23 DUP4 PUSH2 0x2047 JUMP JUMPDEST SWAP2 POP PUSH2 0x2C25 DUP3 PUSH2 0x2BBE JUMP JUMPDEST PUSH1 0x40 DUP3 ADD SWAP1 POP SWAP2 SWAP1 POP JUMP JUMPDEST PUSH1 0x0 PUSH1 0x20 DUP3 ADD SWAP1 POP DUP2 DUP2 SUB PUSH1 0x0 DUP4 ADD MSTORE PUSH2 0x2C49 DUP2 PUSH2 0x2C0D JUMP JUMPDEST SWAP1 POP SWAP2 SWAP1 POP JUMP JUMPDEST PUSH32 0x45524332303A207472616E7366657220616D6F756E7420657863656564732062 PUSH1 0x0 DUP3 ADD MSTORE PUSH32 0x616C616E63650000000000000000000000000000000000000000000000000000 PUSH1 0x20 DUP3 ADD MSTORE POP JUMP JUMPDEST PUSH1 0x0 PUSH2 0x2CAC PUSH1 0x26 DUP4 PUSH2 0x2047 JUMP JUMPDEST SWAP2 POP PUSH2 0x2CB7 DUP3 PUSH2 0x2C50 JUMP JUMPDEST PUSH1 0x40 DUP3 ADD SWAP1 POP SWAP2 SWAP1 POP JUMP JUMPDEST PUSH1 0x0 PUSH1 0x20 DUP3 ADD SWAP1 POP DUP2 DUP2 SUB PUSH1 0x0 DUP4 ADD MSTORE PUSH2 0x2CDB DUP2 PUSH2 0x2C9F JUMP JUMPDEST SWAP1 POP SWAP2 SWAP1 POP JUMP INVALID LOG2 PUSH5 0x6970667358 0x22 SLT KECCAK256 0x2A EXP BASEFEE 0xE6 CALLER 0xEB CALL RETURN 0xBF PUSH19 0x5BDA14438F611F64A5F9F67EC0B53D131587B 0xD6 SWAP8 0xDF PUSH5 0x736F6C6343 STOP ADDMOD SLT STOP CALLER "
				},
				"gasEstimates": {
					"creation": {
						"codeDepositCost": "2308800",
						"executionCost": "infinite",
						"totalCost": "infinite"
					},
					"external": {
						"ONE_SHARE()": "395",
						"_totalSupply()": "2496",
						"allowance(address,address)": "infinite",
						"approve(address,uint256)": "infinite",
						"askForRecovery(address)": "28260",
						"balanceOf(address)": "2914",
						"corporation()": "2646",
						"decimals()": "366",
						"decreaseAllowance(address,uint256)": "infinite",
						"fractionalShareBalanceOf(address)": "2935",
						"increaseAllowance(address,uint256)": "infinite",
						"name()": "infinite",
						"pause()": "28823",
						"paused()": "2604",
						"recover(address,address)": "infinite",
						"registerHash(bytes32)": "infinite",
						"registry(address)": "infinite",
						"shareBalanceOf(address)": "2958",
						"symbol()": "infinite",
						"totalSupply()": "2527",
						"transfer(address,uint256)": "infinite",
						"transferFrom(address,address,uint256)": "infinite",
						"unpause()": "26670"
					},
					"internal": {
						"_approve(address,address,uint256)": "infinite",
						"_burn(address,uint256)": "infinite",
						"_mint(address,uint256)": "infinite",
						"_transfer(address,address,uint256)": "infinite"
					}
				},
				"methodIdentifiers": {
					"ONE_SHARE()": "b7d122b5",
					"_totalSupply()": "3eaaf86b",
					"allowance(address,address)": "dd62ed3e",
					"approve(address,uint256)": "095ea7b3",
					"askForRecovery(address)": "6e6ce65f",
					"balanceOf(address)": "70a08231",
					"corporation()": "e25c4cf5",
					"decimals()": "313ce567",
					"decreaseAllowance(address,uint256)": "a457c2d7",
					"fractionalShareBalanceOf(address)": "bd6f529e",
					"increaseAllowance(address,uint256)": "39509351",
					"name()": "06fdde03",
					"pause()": "8456cb59",
					"paused()": "5c975abb",
					"recover(address,address)": "648bf774",
					"registerHash(bytes32)": "8f1de16e",
					"registry(address)": "038defd7",
					"shareBalanceOf(address)": "4473ad52",
					"symbol()": "95d89b41",
					"totalSupply()": "18160ddd",
					"transfer(address,uint256)": "a9059cbb",
					"transferFrom(address,address,uint256)": "23b872dd",
					"unpause()": "3f4ba83a"
				}
			},
			"storageLayout": {
				"storage": [
					{
						"astId": 17,
						"contract": "contract/new_contract.sol:ERC20",
						"label": "registry",
						"offset": 0,
						"slot": "0",
						"type": "t_mapping(t_address,t_struct(InvestorData)12_storage)"
					},
					{
						"astId": 23,
						"contract": "contract/new_contract.sol:ERC20",
						"label": "_allowances",
						"offset": 0,
						"slot": "1",
						"type": "t_mapping(t_address,t_mapping(t_address,t_uint256))"
					},
					{
						"astId": 25,
						"contract": "contract/new_contract.sol:ERC20",
						"label": "_totalSupply",
						"offset": 0,
						"slot": "2",
						"type": "t_uint256"
					},
					{
						"astId": 30,
						"contract": "contract/new_contract.sol:ERC20",
						"label": "paused",
						"offset": 0,
						"slot": "3",
						"type": "t_bool"
					},
					{
						"astId": 32,
						"contract": "contract/new_contract.sol:ERC20",
						"label": "_name",
						"offset": 0,
						"slot": "4",
						"type": "t_string_storage"
					},
					{
						"astId": 34,
						"contract": "contract/new_contract.sol:ERC20",
						"label": "_symbol",
						"offset": 0,
						"slot": "5",
						"type": "t_string_storage"
					},
					{
						"astId": 36,
						"contract": "contract/new_contract.sol:ERC20",
						"label": "corporation",
						"offset": 0,
						"slot": "6",
						"type": "t_address"
					}
				],
				"types": {
					"t_address": {
						"encoding": "inplace",
						"label": "address",
						"numberOfBytes": "20"
					},
					"t_bool": {
						"encoding": "inplace",
						"label": "bool",
						"numberOfBytes": "1"
					},
					"t_bytes32": {
						"encoding": "inplace",
						"label": "bytes32",
						"numberOfBytes": "32"
					},
					"t_mapping(t_address,t_mapping(t_address,t_uint256))": {
						"encoding": "mapping",
						"key": "t_address",
						"label": "mapping(address => mapping(address => uint256))",
						"numberOfBytes": "32",
						"value": "t_mapping(t_address,t_uint256)"
					},
					"t_mapping(t_address,t_struct(InvestorData)12_storage)": {
						"encoding": "mapping",
						"key": "t_address",
						"label": "mapping(address => struct ERC20.InvestorData)",
						"numberOfBytes": "32",
						"value": "t_struct(InvestorData)12_storage"
					},
					"t_mapping(t_address,t_uint256)": {
						"encoding": "mapping",
						"key": "t_address",
						"label": "mapping(address => uint256)",
						"numberOfBytes": "32",
						"value": "t_uint256"
					},
					"t_string_storage": {
						"encoding": "bytes",
						"label": "string",
						"numberOfBytes": "32"
					},
					"t_struct(InvestorData)12_storage": {
						"encoding": "inplace",
						"label": "struct ERC20.InvestorData",
						"members": [
							{
								"astId": 3,
								"contract": "contract/new_contract.sol:ERC20",
								"label": "tokenBalance",
								"offset": 0,
								"slot": "0",
								"type": "t_uint256"
							},
							{
								"astId": 5,
								"contract": "contract/new_contract.sol:ERC20",
								"label": "shareBalance",
								"offset": 0,
								"slot": "1",
								"type": "t_uint256"
							},
							{
								"astId": 7,
								"contract": "contract/new_contract.sol:ERC20",
								"label": "fractionalPartOfTokenBalance",
								"offset": 0,
								"slot": "2",
								"type": "t_uint256"
							},
							{
								"astId": 9,
								"contract": "contract/new_contract.sol:ERC20",
								"label": "registrationHash",
								"offset": 0,
								"slot": "3",
								"type": "t_bytes32"
							},
							{
								"astId": 11,
								"contract": "contract/new_contract.sol:ERC20",
								"label": "recoverable",
								"offset": 0,
								"slot": "4",
								"type": "t_bool"
							}
						],
						"numberOfBytes": "160"
					},
					"t_uint256": {
						"encoding": "inplace",
						"label": "uint256",
						"numberOfBytes": "32"
					}
				}
			},
			"userdoc": {
				"kind": "user",
				"methods": {},
				"version": 1
			}
		}
	}
}